{
  "contractName": "StormToken",
  "abi": [
    {
      "inputs": [
        {
          "internalType": "address",
          "name": "_crowdsaleAddress",
          "type": "address"
        }
      ],
      "payable": false,
      "stateMutability": "nonpayable",
      "type": "constructor"
    },
    {
      "anonymous": false,
      "inputs": [
        {
          "indexed": true,
          "internalType": "address",
          "name": "_owner",
          "type": "address"
        },
        {
          "indexed": true,
          "internalType": "address",
          "name": "_spender",
          "type": "address"
        },
        {
          "indexed": false,
          "internalType": "uint256",
          "name": "_value",
          "type": "uint256"
        }
      ],
      "name": "Approval",
      "type": "event"
    },
    {
      "anonymous": false,
      "inputs": [
        {
          "indexed": false,
          "internalType": "uint256",
          "name": "_amount",
          "type": "uint256"
        }
      ],
      "name": "Destruction",
      "type": "event"
    },
    {
      "anonymous": false,
      "inputs": [
        {
          "indexed": false,
          "internalType": "uint256",
          "name": "_amount",
          "type": "uint256"
        }
      ],
      "name": "Issuance",
      "type": "event"
    },
    {
      "anonymous": false,
      "inputs": [
        {
          "indexed": true,
          "internalType": "address",
          "name": "_to",
          "type": "address"
        },
        {
          "indexed": false,
          "internalType": "uint256",
          "name": "_value",
          "type": "uint256"
        }
      ],
      "name": "Mint",
      "type": "event"
    },
    {
      "anonymous": false,
      "inputs": [
        {
          "indexed": false,
          "internalType": "address",
          "name": "_prevOwner",
          "type": "address"
        },
        {
          "indexed": false,
          "internalType": "address",
          "name": "_newOwner",
          "type": "address"
        }
      ],
      "name": "OwnerUpdate",
      "type": "event"
    },
    {
      "anonymous": false,
      "inputs": [
        {
          "indexed": true,
          "internalType": "address",
          "name": "_from",
          "type": "address"
        },
        {
          "indexed": true,
          "internalType": "address",
          "name": "_to",
          "type": "address"
        },
        {
          "indexed": false,
          "internalType": "uint256",
          "name": "_value",
          "type": "uint256"
        }
      ],
      "name": "Transfer",
      "type": "event"
    },
    {
      "constant": false,
      "inputs": [],
      "name": "acceptOwnership",
      "outputs": [],
      "payable": false,
      "stateMutability": "nonpayable",
      "type": "function"
    },
    {
      "constant": false,
      "inputs": [
        {
          "internalType": "address",
          "name": "_owner",
          "type": "address"
        },
        {
          "internalType": "address",
          "name": "_spender",
          "type": "address"
        }
      ],
      "name": "allowance",
      "outputs": [
        {
          "internalType": "uint256",
          "name": "remaining",
          "type": "uint256"
        }
      ],
      "payable": false,
      "stateMutability": "nonpayable",
      "type": "function"
    },
    {
      "constant": false,
      "inputs": [
        {
          "internalType": "address",
          "name": "_spender",
          "type": "address"
        },
        {
          "internalType": "uint256",
          "name": "_value",
          "type": "uint256"
        }
      ],
      "name": "approve",
      "outputs": [
        {
          "internalType": "bool",
          "name": "success",
          "type": "bool"
        }
      ],
      "payable": false,
      "stateMutability": "nonpayable",
      "type": "function"
    },
    {
      "constant": false,
      "inputs": [
        {
          "internalType": "address",
          "name": "_spender",
          "type": "address"
        },
        {
          "internalType": "uint256",
          "name": "_value",
          "type": "uint256"
        },
        {
          "internalType": "bytes",
          "name": "_extraData",
          "type": "bytes"
        }
      ],
      "name": "approveAndCall",
      "outputs": [
        {
          "internalType": "bool",
          "name": "success",
          "type": "bool"
        }
      ],
      "payable": false,
      "stateMutability": "nonpayable",
      "type": "function"
    },
    {
      "constant": true,
      "inputs": [
        {
          "internalType": "address",
          "name": "_owner",
          "type": "address"
        }
      ],
      "name": "balanceOf",
      "outputs": [
        {
          "internalType": "uint256",
          "name": "balance",
          "type": "uint256"
        }
      ],
      "payable": false,
      "stateMutability": "view",
      "type": "function"
    },
    {
      "constant": true,
      "inputs": [],
      "name": "crowdsaleContractAddress",
      "outputs": [
        {
          "internalType": "address",
          "name": "",
          "type": "address"
        }
      ],
      "payable": false,
      "stateMutability": "view",
      "type": "function"
    },
    {
      "constant": true,
      "inputs": [],
      "name": "decimals",
      "outputs": [
        {
          "internalType": "uint8",
          "name": "",
          "type": "uint8"
        }
      ],
      "payable": false,
      "stateMutability": "view",
      "type": "function"
    },
    {
      "constant": false,
      "inputs": [
        {
          "internalType": "address",
          "name": "_to",
          "type": "address"
        },
        {
          "internalType": "uint256",
          "name": "_amount",
          "type": "uint256"
        }
      ],
      "name": "mintTokens",
      "outputs": [],
      "payable": false,
      "stateMutability": "nonpayable",
      "type": "function"
    },
    {
      "constant": true,
      "inputs": [],
      "name": "name",
      "outputs": [
        {
          "internalType": "string",
          "name": "",
          "type": "string"
        }
      ],
      "payable": false,
      "stateMutability": "view",
      "type": "function"
    },
    {
      "constant": true,
      "inputs": [],
      "name": "newOwner",
      "outputs": [
        {
          "internalType": "address",
          "name": "",
          "type": "address"
        }
      ],
      "payable": false,
      "stateMutability": "view",
      "type": "function"
    },
    {
      "constant": true,
      "inputs": [],
      "name": "owner",
      "outputs": [
        {
          "internalType": "address",
          "name": "",
          "type": "address"
        }
      ],
      "payable": false,
      "stateMutability": "view",
      "type": "function"
    },
    {
      "constant": false,
      "inputs": [
        {
          "internalType": "address",
          "name": "_tokenAddress",
          "type": "address"
        },
        {
          "internalType": "address",
          "name": "_to",
          "type": "address"
        },
        {
          "internalType": "uint256",
          "name": "_amount",
          "type": "uint256"
        }
      ],
      "name": "salvageTokensFromContract",
      "outputs": [],
      "payable": false,
      "stateMutability": "nonpayable",
      "type": "function"
    },
    {
      "constant": true,
      "inputs": [],
      "name": "standard",
      "outputs": [
        {
          "internalType": "string",
          "name": "",
          "type": "string"
        }
      ],
      "payable": false,
      "stateMutability": "view",
      "type": "function"
    },
    {
      "constant": true,
      "inputs": [],
      "name": "symbol",
      "outputs": [
        {
          "internalType": "string",
          "name": "",
          "type": "string"
        }
      ],
      "payable": false,
      "stateMutability": "view",
      "type": "function"
    },
    {
      "constant": false,
      "inputs": [],
      "name": "totalSupply",
      "outputs": [
        {
          "internalType": "uint256",
          "name": "",
          "type": "uint256"
        }
      ],
      "payable": false,
      "stateMutability": "nonpayable",
      "type": "function"
    },
    {
      "constant": false,
      "inputs": [
        {
          "internalType": "address",
          "name": "_newOwner",
          "type": "address"
        }
      ],
      "name": "transferOwnership",
      "outputs": [],
      "payable": false,
      "stateMutability": "nonpayable",
      "type": "function"
    },
    {
      "constant": true,
      "inputs": [],
      "name": "transfersEnabled",
      "outputs": [
        {
          "internalType": "bool",
          "name": "",
          "type": "bool"
        }
      ],
      "payable": false,
      "stateMutability": "view",
      "type": "function"
    },
    {
      "constant": false,
      "inputs": [
        {
          "internalType": "bool",
          "name": "_disable",
          "type": "bool"
        }
      ],
      "name": "disableTransfers",
      "outputs": [],
      "payable": false,
      "stateMutability": "nonpayable",
      "type": "function"
    },
    {
      "constant": false,
      "inputs": [
        {
          "internalType": "address",
          "name": "_to",
          "type": "address"
        },
        {
          "internalType": "uint256",
          "name": "_amount",
          "type": "uint256"
        }
      ],
      "name": "issue",
      "outputs": [],
      "payable": false,
      "stateMutability": "nonpayable",
      "type": "function"
    },
    {
      "constant": false,
      "inputs": [
        {
          "internalType": "address",
          "name": "_from",
          "type": "address"
        },
        {
          "internalType": "uint256",
          "name": "_amount",
          "type": "uint256"
        }
      ],
      "name": "destroy",
      "outputs": [],
      "payable": false,
      "stateMutability": "nonpayable",
      "type": "function"
    },
    {
      "constant": false,
      "inputs": [
        {
          "internalType": "address",
          "name": "_to",
          "type": "address"
        },
        {
          "internalType": "uint256",
          "name": "_value",
          "type": "uint256"
        }
      ],
      "name": "transfer",
      "outputs": [
        {
          "internalType": "bool",
          "name": "success",
          "type": "bool"
        }
      ],
      "payable": false,
      "stateMutability": "nonpayable",
      "type": "function"
    },
    {
      "constant": false,
      "inputs": [
        {
          "internalType": "address[]",
          "name": "_recipients",
          "type": "address[]"
        },
        {
          "internalType": "uint256[]",
          "name": "_values",
          "type": "uint256[]"
        }
      ],
      "name": "transfers",
      "outputs": [
        {
          "internalType": "bool",
          "name": "success",
          "type": "bool"
        }
      ],
      "payable": false,
      "stateMutability": "nonpayable",
      "type": "function"
    },
    {
      "constant": false,
      "inputs": [
        {
          "internalType": "address",
          "name": "_from",
          "type": "address"
        },
        {
          "internalType": "address",
          "name": "_to",
          "type": "address"
        },
        {
          "internalType": "uint256",
          "name": "_value",
          "type": "uint256"
        }
      ],
      "name": "transferFrom",
      "outputs": [
        {
          "internalType": "bool",
          "name": "success",
          "type": "bool"
        }
      ],
      "payable": false,
      "stateMutability": "nonpayable",
      "type": "function"
    }
  ],
  "bytecode": "0x608060405260006006556000600960006101000a81548160ff0219169083151502179055503480156200003157600080fd5b506040516200251038038062002510833981810160405260208110156200005757600080fd5b8101908080519060200190929190505050336000806101000a81548173ffffffffffffffffffffffffffffffffffffffff021916908373ffffffffffffffffffffffffffffffffffffffff1602179055506040518060400160405280601081526020017f53746f726d20546f6b656e2076312e300000000000000000000000000000000081525060029080519060200190620000f5929190620001f6565b506040518060400160405280600b81526020017f53746f726d20546f6b656e0000000000000000000000000000000000000000008152506003908051906020019062000143929190620001f6565b506040518060400160405280600581526020017f53544f524d0000000000000000000000000000000000000000000000000000008152506004908051906020019062000191929190620001f6565b506012600560006101000a81548160ff021916908360ff16021790555080600560016101000a81548173ffffffffffffffffffffffffffffffffffffffff021916908373ffffffffffffffffffffffffffffffffffffffff16021790555050620002a5565b828054600181600116156101000203166002900490600052602060002090601f016020900481019282601f106200023957805160ff19168380011785556200026a565b828001600101855582156200026a579182015b82811115620002695782518255916020019190600101906200024c565b5b5090506200027991906200027d565b5090565b620002a291905b808211156200029e57600081600090555060010162000284565b5090565b90565b61225b80620002b56000396000f3fe608060405234801561001057600080fd5b506004361061014d5760003560e01c80638da5cb5b116100c3578063bef97c871161007c578063bef97c8714610803578063cae9ca5114610825578063d4ee1d9014610922578063dd62ed3e1461096c578063f0dda65c146109e4578063f2fde38b14610a325761014d565b80638da5cb5b146105ca57806395d89b41146106145780639c481c9e14610697578063a0929cda146106e1578063a24835d11461074f578063a9059cbb1461079d5761014d565b8063313ce56711610115578063313ce5671461030f57806352346412146103335780635a3b7e421461049757806370a082311461051a57806379ba509714610572578063867904b41461057c5761014d565b806306fdde0314610152578063095ea7b3146101d55780631608f18f1461023b57806318160ddd1461026b57806323b872dd14610289575b600080fd5b61015a610a76565b6040518080602001828103825283818151815260200191508051906020019080838360005b8381101561019a57808201518184015260208101905061017f565b50505050905090810190601f1680156101c75780820380516001836020036101000a031916815260200191505b509250505060405180910390f35b610221600480360360408110156101eb57600080fd5b81019080803573ffffffffffffffffffffffffffffffffffffffff16906020019092919080359060200190929190505050610b14565b604051808215151515815260200191505060405180910390f35b6102696004803603602081101561025157600080fd5b81019080803515159060200190929190505050610c06565b005b610273610c7a565b6040518082815260200191505060405180910390f35b6102f56004803603606081101561029f57600080fd5b81019080803573ffffffffffffffffffffffffffffffffffffffff169060200190929190803573ffffffffffffffffffffffffffffffffffffffff16906020019092919080359060200190929190505050610c84565b604051808215151515815260200191505060405180910390f35b610317610cb8565b604051808260ff1660ff16815260200191505060405180910390f35b61047d6004803603604081101561034957600080fd5b810190808035906020019064010000000081111561036657600080fd5b82018360208201111561037857600080fd5b8035906020019184602083028401116401000000008311171561039a57600080fd5b919080806020026020016040519081016040528093929190818152602001838360200280828437600081840152601f19601f820116905080830192505050505050509192919290803590602001906401000000008111156103fa57600080fd5b82018360208201111561040c57600080fd5b8035906020019184602083028401116401000000008311171561042e57600080fd5b919080806020026020016040519081016040528093929190818152602001838360200280828437600081840152601f19601f820116905080830192505050505050509192919290505050610ccb565b604051808215151515815260200191505060405180910390f35b61049f610da4565b6040518080602001828103825283818151815260200191508051906020019080838360005b838110156104df5780820151818401526020810190506104c4565b50505050905090810190601f16801561050c5780820380516001836020036101000a031916815260200191505b509250505060405180910390f35b61055c6004803603602081101561053057600080fd5b81019080803573ffffffffffffffffffffffffffffffffffffffff169060200190929190505050610e42565b6040518082815260200191505060405180910390f35b61057a610e8b565b005b6105c86004803603604081101561059257600080fd5b81019080803573ffffffffffffffffffffffffffffffffffffffff16906020019092919080359060200190929190505050611065565b005b6105d2611282565b604051808273ffffffffffffffffffffffffffffffffffffffff1673ffffffffffffffffffffffffffffffffffffffff16815260200191505060405180910390f35b61061c6112a7565b6040518080602001828103825283818151815260200191508051906020019080838360005b8381101561065c578082015181840152602081019050610641565b50505050905090810190601f1680156106895780820380516001836020036101000a031916815260200191505b509250505060405180910390f35b61069f611345565b604051808273ffffffffffffffffffffffffffffffffffffffff1673ffffffffffffffffffffffffffffffffffffffff16815260200191505060405180910390f35b61074d600480360360608110156106f757600080fd5b81019080803573ffffffffffffffffffffffffffffffffffffffff169060200190929190803573ffffffffffffffffffffffffffffffffffffffff1690602001909291908035906020019092919050505061136b565b005b61079b6004803603604081101561076557600080fd5b81019080803573ffffffffffffffffffffffffffffffffffffffff16906020019092919080359060200190929190505050611489565b005b6107e9600480360360408110156107b357600080fd5b81019080803573ffffffffffffffffffffffffffffffffffffffff16906020019092919080359060200190929190505050611668565b604051808215151515815260200191505060405180910390f35b61080b61169a565b604051808215151515815260200191505060405180910390f35b6109086004803603606081101561083b57600080fd5b81019080803573ffffffffffffffffffffffffffffffffffffffff169060200190929190803590602001909291908035906020019064010000000081111561088257600080fd5b82018360208201111561089457600080fd5b803590602001918460018302840111640100000000831117156108b657600080fd5b91908080601f016020809104026020016040519081016040528093929190818152602001838380828437600081840152601f19601f8201169050808301925050505050505091929192905050506116ad565b604051808215151515815260200191505060405180910390f35b61092a61180a565b604051808273ffffffffffffffffffffffffffffffffffffffff1673ffffffffffffffffffffffffffffffffffffffff16815260200191505060405180910390f35b6109ce6004803603604081101561098257600080fd5b81019080803573ffffffffffffffffffffffffffffffffffffffff169060200190929190803573ffffffffffffffffffffffffffffffffffffffff169060200190929190505050611830565b6040518082815260200191505060405180910390f35b610a30600480360360408110156109fa57600080fd5b81019080803573ffffffffffffffffffffffffffffffffffffffff169060200190929190803590602001909291905050506118b7565b005b610a7460048036036020811015610a4857600080fd5b81019080803573ffffffffffffffffffffffffffffffffffffffff169060200190929190505050611a78565b005b60038054600181600116156101000203166002900480601f016020809104026020016040519081016040528092919081815260200182805460018160011615610100020316600290048015610b0c5780601f10610ae157610100808354040283529160200191610b0c565b820191906000526020600020905b815481529060010190602001808311610aef57829003601f168201915b505050505081565b600081600860003373ffffffffffffffffffffffffffffffffffffffff1673ffffffffffffffffffffffffffffffffffffffff16815260200190815260200160002060008573ffffffffffffffffffffffffffffffffffffffff1673ffffffffffffffffffffffffffffffffffffffff168152602001908152602001600020819055508273ffffffffffffffffffffffffffffffffffffffff163373ffffffffffffffffffffffffffffffffffffffff167f8c5be1e5ebec7d5bd14f71427d1e84f3dd0314c0f7b2291e5b200ac8c7c3b925846040518082815260200191505060405180910390a36001905092915050565b6000809054906101000a900473ffffffffffffffffffffffffffffffffffffffff1673ffffffffffffffffffffffffffffffffffffffff163373ffffffffffffffffffffffffffffffffffffffff1614610c5c57fe5b8015600960006101000a81548160ff02191690831515021790555050565b6000600654905090565b6000600960009054906101000a900460ff16610c9c57fe5b610ca7848484611b6c565b610cad57fe5b600190509392505050565b600560009054906101000a900460ff1681565b6000600960009054906101000a900460ff16610ce357fe5b6000809054906101000a900473ffffffffffffffffffffffffffffffffffffffff1673ffffffffffffffffffffffffffffffffffffffff163373ffffffffffffffffffffffffffffffffffffffff1614610d3957fe5b8151835114610d4757600080fd5b60008090505b8351811015610d9957610d86848281518110610d6557fe5b6020026020010151848381518110610d7957fe5b6020026020010151611e88565b610d8c57fe5b8080600101915050610d4d565b506001905092915050565b60028054600181600116156101000203166002900480601f016020809104026020016040519081016040528092919081815260200182805460018160011615610100020316600290048015610e3a5780601f10610e0f57610100808354040283529160200191610e3a565b820191906000526020600020905b815481529060010190602001808311610e1d57829003601f168201915b505050505081565b6000600760008373ffffffffffffffffffffffffffffffffffffffff1673ffffffffffffffffffffffffffffffffffffffff168152602001908152602001600020549050919050565b600160009054906101000a900473ffffffffffffffffffffffffffffffffffffffff1673ffffffffffffffffffffffffffffffffffffffff163373ffffffffffffffffffffffffffffffffffffffff1614610ee557600080fd5b7f343765429aea5a34b3ff6a3785a98a5abb2597aca87bfbb58632c173d585373a6000809054906101000a900473ffffffffffffffffffffffffffffffffffffffff16600160009054906101000a900473ffffffffffffffffffffffffffffffffffffffff16604051808373ffffffffffffffffffffffffffffffffffffffff1673ffffffffffffffffffffffffffffffffffffffff1681526020018273ffffffffffffffffffffffffffffffffffffffff1673ffffffffffffffffffffffffffffffffffffffff1681526020019250505060405180910390a1600160009054906101000a900473ffffffffffffffffffffffffffffffffffffffff166000806101000a81548173ffffffffffffffffffffffffffffffffffffffff021916908373ffffffffffffffffffffffffffffffffffffffff1602179055506000600160006101000a81548173ffffffffffffffffffffffffffffffffffffffff021916908373ffffffffffffffffffffffffffffffffffffffff160217905550565b6000809054906101000a900473ffffffffffffffffffffffffffffffffffffffff1673ffffffffffffffffffffffffffffffffffffffff163373ffffffffffffffffffffffffffffffffffffffff16146110bb57fe5b81600073ffffffffffffffffffffffffffffffffffffffff168173ffffffffffffffffffffffffffffffffffffffff1614156110f657600080fd5b823073ffffffffffffffffffffffffffffffffffffffff168173ffffffffffffffffffffffffffffffffffffffff16141561113057600080fd5b6111458360065461209490919063ffffffff16565b60068190555061119d83600760008773ffffffffffffffffffffffffffffffffffffffff1673ffffffffffffffffffffffffffffffffffffffff1681526020019081526020016000205461209490919063ffffffff16565b600760008673ffffffffffffffffffffffffffffffffffffffff1673ffffffffffffffffffffffffffffffffffffffff168152602001908152602001600020819055507f9386c90217c323f58030f9dadcbc938f807a940f4ff41cd4cead9562f5da7dc3836040518082815260200191505060405180910390a18373ffffffffffffffffffffffffffffffffffffffff163073ffffffffffffffffffffffffffffffffffffffff167fddf252ad1be2c89b69c2b068fc378daa952ba7f163c4a11628f55a4df523b3ef856040518082815260200191505060405180910390a350505050565b6000809054906101000a900473ffffffffffffffffffffffffffffffffffffffff1681565b60048054600181600116156101000203166002900480601f01602080910402602001604051908101604052809291908181526020018280546001816001161561010002031660029004801561133d5780601f106113125761010080835404028352916020019161133d565b820191906000526020600020905b81548152906001019060200180831161132057829003601f168201915b505050505081565b600560019054906101000a900473ffffffffffffffffffffffffffffffffffffffff1681565b6000809054906101000a900473ffffffffffffffffffffffffffffffffffffffff1673ffffffffffffffffffffffffffffffffffffffff163373ffffffffffffffffffffffffffffffffffffffff16146113c157fe5b8273ffffffffffffffffffffffffffffffffffffffff1663a9059cbb83836040518363ffffffff1660e01b8152600401808373ffffffffffffffffffffffffffffffffffffffff1673ffffffffffffffffffffffffffffffffffffffff16815260200182815260200192505050602060405180830381600087803b15801561144857600080fd5b505af115801561145c573d6000803e3d6000fd5b505050506040513d602081101561147257600080fd5b810190808051906020019092919050505050505050565b8173ffffffffffffffffffffffffffffffffffffffff163373ffffffffffffffffffffffffffffffffffffffff16148061150f57506000809054906101000a900473ffffffffffffffffffffffffffffffffffffffff1673ffffffffffffffffffffffffffffffffffffffff163373ffffffffffffffffffffffffffffffffffffffff16145b61151857600080fd5b61156a81600760008573ffffffffffffffffffffffffffffffffffffffff1673ffffffffffffffffffffffffffffffffffffffff1681526020019081526020016000205461211c90919063ffffffff16565b600760008473ffffffffffffffffffffffffffffffffffffffff1673ffffffffffffffffffffffffffffffffffffffff168152602001908152602001600020819055506115c28160065461211c90919063ffffffff16565b6006819055503073ffffffffffffffffffffffffffffffffffffffff168273ffffffffffffffffffffffffffffffffffffffff167fddf252ad1be2c89b69c2b068fc378daa952ba7f163c4a11628f55a4df523b3ef836040518082815260200191505060405180910390a37f9a1b418bc061a5d80270261562e6986a35d995f8051145f277be16103abd3453816040518082815260200191505060405180910390a15050565b6000600960009054906101000a900460ff1661168057fe5b61168a8383611e88565b61169057fe5b6001905092915050565b600960009054906101000a900460ff1681565b6000808490506116bd8585610b14565b508073ffffffffffffffffffffffffffffffffffffffff16638f4ffcb1338630876040518563ffffffff1660e01b8152600401808573ffffffffffffffffffffffffffffffffffffffff1673ffffffffffffffffffffffffffffffffffffffff1681526020018481526020018373ffffffffffffffffffffffffffffffffffffffff1673ffffffffffffffffffffffffffffffffffffffff16815260200180602001828103825283818151815260200191508051906020019080838360005b8381101561179757808201518184015260208101905061177c565b50505050905090810190601f1680156117c45780820380516001836020036101000a031916815260200191505b5095505050505050600060405180830381600087803b1580156117e657600080fd5b505af11580156117fa573d6000803e3d6000fd5b5050505060019150509392505050565b600160009054906101000a900473ffffffffffffffffffffffffffffffffffffffff1681565b6000600860008473ffffffffffffffffffffffffffffffffffffffff1673ffffffffffffffffffffffffffffffffffffffff16815260200190815260200160002060008373ffffffffffffffffffffffffffffffffffffffff1673ffffffffffffffffffffffffffffffffffffffff16815260200190815260200160002054905092915050565b600560019054906101000a900473ffffffffffffffffffffffffffffffffffffffff1673ffffffffffffffffffffffffffffffffffffffff163373ffffffffffffffffffffffffffffffffffffffff161461191157600080fd5b6119268160065461209490919063ffffffff16565b60068190555061197e81600760008573ffffffffffffffffffffffffffffffffffffffff1673ffffffffffffffffffffffffffffffffffffffff1681526020019081526020016000205461209490919063ffffffff16565b600760008473ffffffffffffffffffffffffffffffffffffffff1673ffffffffffffffffffffffffffffffffffffffff168152602001908152602001600020819055508173ffffffffffffffffffffffffffffffffffffffff167f0f6798a560793a54c3bcfe86a93cde1e73087d944c0ea20544137d4121396885826040518082815260200191505060405180910390a28173ffffffffffffffffffffffffffffffffffffffff163373ffffffffffffffffffffffffffffffffffffffff167fddf252ad1be2c89b69c2b068fc378daa952ba7f163c4a11628f55a4df523b3ef836040518082815260200191505060405180910390a35050565b6000809054906101000a900473ffffffffffffffffffffffffffffffffffffffff1673ffffffffffffffffffffffffffffffffffffffff163373ffffffffffffffffffffffffffffffffffffffff1614611ace57fe5b6000809054906101000a900473ffffffffffffffffffffffffffffffffffffffff1673ffffffffffffffffffffffffffffffffffffffff168173ffffffffffffffffffffffffffffffffffffffff161415611b2857600080fd5b80600160006101000a81548173ffffffffffffffffffffffffffffffffffffffff021916908373ffffffffffffffffffffffffffffffffffffffff16021790555050565b60008073ffffffffffffffffffffffffffffffffffffffff168373ffffffffffffffffffffffffffffffffffffffff1614158015611bd657503073ffffffffffffffffffffffffffffffffffffffff168373ffffffffffffffffffffffffffffffffffffffff1614155b611bdf57600080fd5b611c3182600760008773ffffffffffffffffffffffffffffffffffffffff1673ffffffffffffffffffffffffffffffffffffffff1681526020019081526020016000205461211c90919063ffffffff16565b600760008673ffffffffffffffffffffffffffffffffffffffff1673ffffffffffffffffffffffffffffffffffffffff16815260200190815260200160002081905550611cc682600760008673ffffffffffffffffffffffffffffffffffffffff1673ffffffffffffffffffffffffffffffffffffffff1681526020019081526020016000205461209490919063ffffffff16565b600760008573ffffffffffffffffffffffffffffffffffffffff1673ffffffffffffffffffffffffffffffffffffffff16815260200190815260200160002081905550611d9882600860008773ffffffffffffffffffffffffffffffffffffffff1673ffffffffffffffffffffffffffffffffffffffff16815260200190815260200160002060003373ffffffffffffffffffffffffffffffffffffffff1673ffffffffffffffffffffffffffffffffffffffff1681526020019081526020016000205461211c90919063ffffffff16565b600860008673ffffffffffffffffffffffffffffffffffffffff1673ffffffffffffffffffffffffffffffffffffffff16815260200190815260200160002060003373ffffffffffffffffffffffffffffffffffffffff1673ffffffffffffffffffffffffffffffffffffffff168152602001908152602001600020819055508273ffffffffffffffffffffffffffffffffffffffff168473ffffffffffffffffffffffffffffffffffffffff167fddf252ad1be2c89b69c2b068fc378daa952ba7f163c4a11628f55a4df523b3ef846040518082815260200191505060405180910390a3600190509392505050565b60008073ffffffffffffffffffffffffffffffffffffffff168373ffffffffffffffffffffffffffffffffffffffff1614158015611ef257503073ffffffffffffffffffffffffffffffffffffffff168373ffffffffffffffffffffffffffffffffffffffff1614155b611efb57600080fd5b611f4d82600760003373ffffffffffffffffffffffffffffffffffffffff1673ffffffffffffffffffffffffffffffffffffffff1681526020019081526020016000205461211c90919063ffffffff16565b600760003373ffffffffffffffffffffffffffffffffffffffff1673ffffffffffffffffffffffffffffffffffffffff16815260200190815260200160002081905550611fe282600760008673ffffffffffffffffffffffffffffffffffffffff1673ffffffffffffffffffffffffffffffffffffffff1681526020019081526020016000205461209490919063ffffffff16565b600760008573ffffffffffffffffffffffffffffffffffffffff1673ffffffffffffffffffffffffffffffffffffffff168152602001908152602001600020819055508273ffffffffffffffffffffffffffffffffffffffff163373ffffffffffffffffffffffffffffffffffffffff167fddf252ad1be2c89b69c2b068fc378daa952ba7f163c4a11628f55a4df523b3ef846040518082815260200191505060405180910390a36001905092915050565b600080828401905083811015612112576040517f08c379a000000000000000000000000000000000000000000000000000000000815260040180806020018281038252601b8152602001807f536166654d6174683a206164646974696f6e206f766572666c6f77000000000081525060200191505060405180910390fd5b8091505092915050565b600061215e83836040518060400160405280601e81526020017f536166654d6174683a207375627472616374696f6e206f766572666c6f770000815250612166565b905092915050565b6000838311158290612213576040517f08c379a00000000000000000000000000000000000000000000000000000000081526004018080602001828103825283818151815260200191508051906020019080838360005b838110156121d85780820151818401526020810190506121bd565b50505050905090810190601f1680156122055780820380516001836020036101000a031916815260200191505b509250505060405180910390fd5b506000838503905080915050939250505056fea265627a7a72315820239aa566157f7e3bf56d76fe2b1b755e6e8308b154a36fb21cfad8a06f69480e64736f6c63430005100032",
  "source": "/**\n * Submitted for verification at Etherscan.io on 2018-06-20\n * This mock is for testing\n * Modifications have been made regarding syntax to align with\n * current solidity version\n*/\n\npragma solidity 0.5.16;\n\nimport \"@openzeppelin/contracts/math/SafeMath.sol\";\n\n\ncontract ItokenRecipient {\n  function receiveApproval(address _from, uint256 _value, address _token, bytes memory _extraData) public;\n}\n\ncontract Owned {\n    address public owner;\n    address public newOwner;\n\n    constructor() public {\n        owner = msg.sender;\n    }\n\n    modifier onlyOwner {\n        assert(msg.sender == owner);\n        _;\n    }\n\n    function transferOwnership(address _newOwner) public onlyOwner {\n        require(_newOwner != owner);\n        newOwner = _newOwner;\n    }\n\n    function acceptOwnership() public {\n        require(msg.sender == newOwner);\n        emit OwnerUpdate(owner, newOwner);\n        owner = newOwner;\n        newOwner = address(0);\n    }\n\n    event OwnerUpdate(address _prevOwner, address _newOwner);\n}\n\ncontract IERC20Token {\n  function totalSupply() public returns (uint256 totalSupply);\n  function balanceOf(address _owner) public view returns (uint256 balance) {}\n  function transfer(address _to, uint256 _value) public returns (bool success) {}\n  function transferFrom(address _from, address _to, uint256 _value) public returns (bool success) {}\n  function approve(address _spender, uint256 _value) public returns (bool success) {}\n  function allowance(address _owner, address _spender) public returns (uint256 remaining) {}\n\n  event Transfer(address indexed _from, address indexed _to, uint256 _value);\n  event Approval(address indexed _owner, address indexed _spender, uint256 _value);\n}\n\ncontract Token is IERC20Token, Owned {\n\n  using SafeMath for uint256;\n\n  /* Public variables of the token */\n  string public standard;\n  string public name;\n  string public symbol;\n  uint8 public decimals;\n\n  address public crowdsaleContractAddress;\n\n  /* Private variables of the token */\n  uint256 supply = 0;\n  mapping (address => uint256) balances;\n  mapping (address => mapping (address => uint256)) allowances;\n\n  /* Events */\n  event Mint(address indexed _to, uint256 _value);\n\n  // validates address is the crowdsale owner\n  modifier onlyCrowdsaleOwner() {\n      require(msg.sender == crowdsaleContractAddress);\n      _;\n  }\n\n  constructor() public {}\n\n  /* Returns total supply of issued tokens */\n  function totalSupply() public returns (uint256) {\n    return supply;\n  }\n\n  /* Returns balance of address */\n  function balanceOf(address _owner) public view returns (uint256 balance) {\n    return balances[_owner];\n  }\n\n  /* Transfers tokens from your address to other */\n  function transfer(address _to, uint256 _value) public returns (bool success) {\n    require(_to != address(0) && _to != address(this));\n    balances[msg.sender] = balances[msg.sender].sub(_value); // Deduct senders balance\n    balances[_to] = balances[_to].add(_value);               // Add recivers blaance\n    emit Transfer(msg.sender, _to, _value);                       // Raise Transfer event\n    return true;\n  }\n\n  /* Approve other address to spend tokens on your account */\n  function approve(address _spender, uint256 _value) public returns (bool success) {\n    allowances[msg.sender][_spender] = _value;        // Set allowance\n    emit Approval(msg.sender, _spender, _value);           // Raise Approval event\n    return true;\n  }\n\n  /* Approve and then communicate the approved contract in a single tx */\n  function approveAndCall(address _spender, uint256 _value, bytes memory _extraData) public returns (bool success) {\n    ItokenRecipient spender = ItokenRecipient(_spender);            // Cast spender to tokenRecipient contract\n    approve(_spender, _value);                                      // Set approval to contract for _value\n    spender.receiveApproval(msg.sender, _value, address(this), _extraData);  // Raise method on _spender contract\n    return true;\n  }\n\n  /* A contract attempts to get the coins */\n  function transferFrom(address _from, address _to, uint256 _value) public returns (bool success) {\n    require(_to != address(0) && _to != address(this));\n    balances[_from] = balances[_from].sub(_value);                              // Deduct senders balance\n    balances[_to] = balances[_to].add(_value);                                  // Add recipient blaance\n    allowances[_from][msg.sender] = allowances[_from][msg.sender].sub(_value);  // Deduct allowance for this address\n    emit Transfer(_from, _to, _value);                                               // Raise Transfer event\n    return true;\n  }\n\n  function allowance(address _owner, address _spender) public returns (uint256 remaining) {\n    return allowances[_owner][_spender];\n  }\n\n  function mintTokens(address _to, uint256 _amount) public onlyCrowdsaleOwner {\n    supply = supply.add(_amount);\n    balances[_to] = balances[_to].add(_amount);\n    emit Mint(_to, _amount);\n    emit Transfer(msg.sender, _to, _amount);\n  }\n\n  function salvageTokensFromContract(address _tokenAddress, address _to, uint _amount) public onlyOwner {\n    IERC20Token(_tokenAddress).transfer(_to, _amount);\n  }\n}\n\ncontract StormToken is Token {\n\n\tbool public transfersEnabled = false;    // true if transfer/transferFrom are enabled, false if not\n\n\t// triggered when the total supply is increased\n\tevent Issuance(uint256 _amount);\n\t// triggered when the total supply is decreased\n\tevent Destruction(uint256 _amount);\n\n\n  /* Initializes contract */\n  constructor(address _crowdsaleAddress) public {\n    standard = \"Storm Token v1.0\";\n    name = \"Storm Token\";\n    symbol = \"STORM\"; // token symbol\n    decimals = 18;\n    crowdsaleContractAddress = _crowdsaleAddress;\n  }\n\n    // validates an address - currently only checks that it isn't null\n    modifier validAddress(address _address) {\n        require(_address != address(0));\n        _;\n    }\n\n    // verifies that the address is different than this contract address\n    modifier notThis(address _address) {\n        require(_address != address(this));\n        _;\n    }\n\n    // allows execution only when transfers aren't disabled\n    modifier transfersAllowed {\n        assert(transfersEnabled);\n        _;\n    }\n\n   /**\n        @dev disables/enables transfers\n        can only be called by the contract owner\n\n        @param _disable    true to disable transfers, false to enable them\n    */\n    function disableTransfers(bool _disable) public onlyOwner {\n        transfersEnabled = !_disable;\n    }\n\n    /**\n        @dev increases the token supply and sends the new tokens to an account\n        can only be called by the contract owner\n\n        @param _to         account to receive the new amount\n        @param _amount     amount to increase the supply by\n    */\n    function issue(address _to, uint256 _amount)\n        public\n        onlyOwner\n        validAddress(_to)\n        notThis(_to)\n    {\n        supply = supply.add(_amount);\n        balances[_to] = balances[_to].add(_amount);\n\n        emit Issuance(_amount);\n        emit Transfer(address(this), _to, _amount);\n    }\n\n    /**\n        @dev removes tokens from an account and decreases the token supply\n        can be called by the contract owner to destroy tokens from any account or by any holder to destroy tokens from his/her own account\n\n        @param _from       account to remove the amount from\n        @param _amount     amount to decrease the supply by\n    */\n    function destroy(address _from, uint256 _amount) public {\n        require(msg.sender == _from || msg.sender == owner); // validate input\n\n        balances[_from] = balances[_from].sub(_amount);\n        supply = supply.sub(_amount);\n\n        emit Transfer(_from, address(this), _amount);\n        emit Destruction(_amount);\n    }\n\n    // ERC20 standard method overrides with some extra functionality\n\n    /**\n        @dev send coins\n        throws on any error rather then return a false flag to minimize user errors\n        in addition to the standard checks, the function throws if transfers are disabled\n\n        @param _to      target address\n        @param _value   transfer amount\n\n        @return true if the transfer was successful, false if it wasn't\n    */\n    function transfer(address _to, uint256 _value) public transfersAllowed returns (bool success) {\n        assert(super.transfer(_to, _value));\n        return true;\n    }\n  \n    function transfers(address[] memory _recipients, uint256[] memory _values) public transfersAllowed onlyOwner returns (bool success) {\n        require(_recipients.length == _values.length); // Check if input data is correct\n\n        for (uint cnt = 0; cnt < _recipients.length; cnt++) {\n            assert(super.transfer(_recipients[cnt], _values[cnt]));\n        }\n        return true;\n    }\n\n    /**\n        @dev an account/contract attempts to get the coins\n        throws on any error rather then return a false flag to minimize user errors\n        in addition to the standard checks, the function throws if transfers are disabled\n\n        @param _from    source address\n        @param _to      target address\n        @param _value   transfer amount\n\n        @return true if the transfer was successful, false if it wasn't\n    */\n    function transferFrom(address _from, address _to, uint256 _value) public transfersAllowed returns (bool success) {\n        assert(super.transferFrom(_from, _to, _value));\n        return true;\n    }\n}\n",
  "sourcePath": "/Users/evaxu/Desktop/stormx-token/mock/OldStormXToken.sol",
  "compiler": {
    "name": "solc",
    "version": "0.5.16+commit.9c3226ce.Emscripten.clang"
  },
  "schemaVersion": "3.0.21",
  "updatedAt": "2020-03-25T20:08:13.771Z",
  "networkType": "ethereum",
  "devdoc": {
    "methods": {
      "destroy(address,uint256)": {
        "details": "removes tokens from an account and decreases the token supply can be called by the contract owner to destroy tokens from any account or by any holder to destroy tokens from his/her own account",
        "params": {
          "_amount": "amount to decrease the supply by",
          "_from": "account to remove the amount from"
        }
      },
      "disableTransfers(bool)": {
        "details": "disables/enables transfers can only be called by the contract owner",
        "params": {
          "_disable": "true to disable transfers, false to enable them"
        }
      },
      "issue(address,uint256)": {
        "details": "increases the token supply and sends the new tokens to an account can only be called by the contract owner",
        "params": {
          "_amount": "amount to increase the supply by",
          "_to": "account to receive the new amount"
        }
      },
      "transfer(address,uint256)": {
        "details": "send coins throws on any error rather then return a false flag to minimize user errors in addition to the standard checks, the function throws if transfers are disabled",
        "params": {
          "_to": "target address",
          "_value": "transfer amount"
        },
        "return": "true if the transfer was successful, false if it wasn't"
      },
      "transferFrom(address,address,uint256)": {
        "details": "an account/contract attempts to get the coins throws on any error rather then return a false flag to minimize user errors in addition to the standard checks, the function throws if transfers are disabled",
        "params": {
          "_from": "source address",
          "_to": "target address",
          "_value": "transfer amount"
        },
        "return": "true if the transfer was successful, false if it wasn't"
      }
    }
  },
  "userdoc": {
    "methods": {}
  }
}