{
  "contractName": "StormXToken",
  "abi": [
    {
      "inputs": [
        {
          "internalType": "address",
          "name": "reserve",
          "type": "address"
        }
      ],
      "payable": false,
      "stateMutability": "nonpayable",
      "type": "constructor"
    },
    {
      "anonymous": false,
      "inputs": [
        {
          "indexed": true,
          "internalType": "address",
          "name": "owner",
          "type": "address"
        },
        {
          "indexed": true,
          "internalType": "address",
          "name": "spender",
          "type": "address"
        },
        {
          "indexed": false,
          "internalType": "uint256",
          "name": "value",
          "type": "uint256"
        }
      ],
      "name": "Approval",
      "type": "event"
    },
    {
      "anonymous": false,
      "inputs": [
        {
          "indexed": false,
          "internalType": "uint256",
          "name": "newFee",
          "type": "uint256"
        }
      ],
      "name": "ChargeFeeSet",
      "type": "event"
    },
    {
      "anonymous": false,
      "inputs": [
        {
          "indexed": false,
          "internalType": "address",
          "name": "recipient",
          "type": "address"
        }
      ],
      "name": "GSNRecipientAdded",
      "type": "event"
    },
    {
      "anonymous": false,
      "inputs": [
        {
          "indexed": false,
          "internalType": "address",
          "name": "recipient",
          "type": "address"
        }
      ],
      "name": "GSNRecipientDeleted",
      "type": "event"
    },
    {
      "anonymous": false,
      "inputs": [
        {
          "indexed": true,
          "internalType": "address",
          "name": "account",
          "type": "address"
        }
      ],
      "name": "MinterAdded",
      "type": "event"
    },
    {
      "anonymous": false,
      "inputs": [
        {
          "indexed": true,
          "internalType": "address",
          "name": "account",
          "type": "address"
        }
      ],
      "name": "MinterRemoved",
      "type": "event"
    },
    {
      "anonymous": false,
      "inputs": [
        {
          "indexed": true,
          "internalType": "address",
          "name": "previousOwner",
          "type": "address"
        },
        {
          "indexed": true,
          "internalType": "address",
          "name": "newOwner",
          "type": "address"
        }
      ],
      "name": "OwnershipTransferred",
      "type": "event"
    },
    {
      "anonymous": false,
      "inputs": [
        {
          "indexed": true,
          "internalType": "address",
          "name": "oldRelayHub",
          "type": "address"
        },
        {
          "indexed": true,
          "internalType": "address",
          "name": "newRelayHub",
          "type": "address"
        }
      ],
      "name": "RelayHubChanged",
      "type": "event"
    },
    {
      "anonymous": false,
      "inputs": [
        {
          "indexed": false,
          "internalType": "address",
          "name": "newAddress",
          "type": "address"
        }
      ],
      "name": "StormXReserveSet",
      "type": "event"
    },
    {
      "anonymous": false,
      "inputs": [
        {
          "indexed": true,
          "internalType": "address",
          "name": "account",
          "type": "address"
        },
        {
          "indexed": false,
          "internalType": "uint256",
          "name": "amount",
          "type": "uint256"
        }
      ],
      "name": "TokenLocked",
      "type": "event"
    },
    {
      "anonymous": false,
      "inputs": [
        {
          "indexed": true,
          "internalType": "address",
          "name": "account",
          "type": "address"
        },
        {
          "indexed": false,
          "internalType": "uint256",
          "name": "amount",
          "type": "uint256"
        }
      ],
      "name": "TokenUnlocked",
      "type": "event"
    },
    {
      "anonymous": false,
      "inputs": [
        {
          "indexed": true,
          "internalType": "address",
          "name": "from",
          "type": "address"
        },
        {
          "indexed": true,
          "internalType": "address",
          "name": "to",
          "type": "address"
        },
        {
          "indexed": false,
          "internalType": "uint256",
          "name": "value",
          "type": "uint256"
        }
      ],
      "name": "Transfer",
      "type": "event"
    },
    {
      "anonymous": false,
      "inputs": [
        {
          "indexed": false,
          "internalType": "bool",
          "name": "newStatus",
          "type": "bool"
        }
      ],
      "name": "TransfersEnabled",
      "type": "event"
    },
    {
      "anonymous": false,
      "inputs": [
        {
          "indexed": false,
          "internalType": "address",
          "name": "minter",
          "type": "address"
        }
      ],
      "name": "ValidMinterAdded",
      "type": "event"
    },
    {
      "constant": true,
      "inputs": [
        {
          "internalType": "address",
          "name": "relay",
          "type": "address"
        },
        {
          "internalType": "address",
          "name": "from",
          "type": "address"
        },
        {
          "internalType": "bytes",
          "name": "encodedFunction",
          "type": "bytes"
        },
        {
          "internalType": "uint256",
          "name": "transactionFee",
          "type": "uint256"
        },
        {
          "internalType": "uint256",
          "name": "gasPrice",
          "type": "uint256"
        },
        {
          "internalType": "uint256",
          "name": "gasLimit",
          "type": "uint256"
        },
        {
          "internalType": "uint256",
          "name": "nonce",
          "type": "uint256"
        },
        {
          "internalType": "bytes",
          "name": "approvalData",
          "type": "bytes"
        },
        {
          "internalType": "uint256",
          "name": "maxPossibleCharge",
          "type": "uint256"
        }
      ],
      "name": "acceptRelayedCall",
      "outputs": [
        {
          "internalType": "uint256",
          "name": "",
          "type": "uint256"
        },
        {
          "internalType": "bytes",
          "name": "",
          "type": "bytes"
        }
      ],
      "payable": false,
      "stateMutability": "view",
      "type": "function"
    },
    {
      "constant": false,
      "inputs": [
        {
          "internalType": "address",
          "name": "account",
          "type": "address"
        }
      ],
      "name": "addMinter",
      "outputs": [],
      "payable": false,
      "stateMutability": "nonpayable",
      "type": "function"
    },
    {
      "constant": true,
      "inputs": [
        {
          "internalType": "address",
          "name": "owner",
          "type": "address"
        },
        {
          "internalType": "address",
          "name": "spender",
          "type": "address"
        }
      ],
      "name": "allowance",
      "outputs": [
        {
          "internalType": "uint256",
          "name": "",
          "type": "uint256"
        }
      ],
      "payable": false,
      "stateMutability": "view",
      "type": "function"
    },
    {
      "constant": false,
      "inputs": [
        {
          "internalType": "address",
          "name": "spender",
          "type": "address"
        },
        {
          "internalType": "uint256",
          "name": "amount",
          "type": "uint256"
        }
      ],
      "name": "approve",
      "outputs": [
        {
          "internalType": "bool",
          "name": "",
          "type": "bool"
        }
      ],
      "payable": false,
      "stateMutability": "nonpayable",
      "type": "function"
    },
    {
      "constant": true,
      "inputs": [
        {
          "internalType": "address",
          "name": "account",
          "type": "address"
        }
      ],
      "name": "balanceOf",
      "outputs": [
        {
          "internalType": "uint256",
          "name": "",
          "type": "uint256"
        }
      ],
      "payable": false,
      "stateMutability": "view",
      "type": "function"
    },
    {
      "constant": true,
      "inputs": [],
      "name": "chargeFee",
      "outputs": [
        {
          "internalType": "uint256",
          "name": "",
          "type": "uint256"
        }
      ],
      "payable": false,
      "stateMutability": "view",
      "type": "function"
    },
    {
      "constant": true,
      "inputs": [],
      "name": "decimals",
      "outputs": [
        {
          "internalType": "uint8",
          "name": "",
          "type": "uint8"
        }
      ],
      "payable": false,
      "stateMutability": "view",
      "type": "function"
    },
    {
      "constant": false,
      "inputs": [
        {
          "internalType": "address",
          "name": "spender",
          "type": "address"
        },
        {
          "internalType": "uint256",
          "name": "subtractedValue",
          "type": "uint256"
        }
      ],
      "name": "decreaseAllowance",
      "outputs": [
        {
          "internalType": "bool",
          "name": "",
          "type": "bool"
        }
      ],
      "payable": false,
      "stateMutability": "nonpayable",
      "type": "function"
    },
    {
      "constant": true,
      "inputs": [],
      "name": "getHubAddr",
      "outputs": [
        {
          "internalType": "address",
          "name": "",
          "type": "address"
        }
      ],
      "payable": false,
      "stateMutability": "view",
      "type": "function"
    },
    {
      "constant": false,
      "inputs": [
        {
          "internalType": "address",
          "name": "spender",
          "type": "address"
        },
        {
          "internalType": "uint256",
          "name": "addedValue",
          "type": "uint256"
        }
      ],
      "name": "increaseAllowance",
      "outputs": [
        {
          "internalType": "bool",
          "name": "",
          "type": "bool"
        }
      ],
      "payable": false,
      "stateMutability": "nonpayable",
      "type": "function"
    },
    {
      "constant": true,
      "inputs": [],
      "name": "initialized",
      "outputs": [
        {
          "internalType": "bool",
          "name": "",
          "type": "bool"
        }
      ],
      "payable": false,
      "stateMutability": "view",
      "type": "function"
    },
    {
      "constant": true,
      "inputs": [
        {
          "internalType": "address",
          "name": "account",
          "type": "address"
        }
      ],
      "name": "isMinter",
      "outputs": [
        {
          "internalType": "bool",
          "name": "",
          "type": "bool"
        }
      ],
      "payable": false,
      "stateMutability": "view",
      "type": "function"
    },
    {
      "constant": true,
      "inputs": [],
      "name": "isOwner",
      "outputs": [
        {
          "internalType": "bool",
          "name": "",
          "type": "bool"
        }
      ],
      "payable": false,
      "stateMutability": "view",
      "type": "function"
    },
    {
      "constant": true,
      "inputs": [
        {
          "internalType": "address",
          "name": "",
          "type": "address"
        }
      ],
      "name": "lockedBalanceOf",
      "outputs": [
        {
          "internalType": "uint256",
          "name": "",
          "type": "uint256"
        }
      ],
      "payable": false,
      "stateMutability": "view",
      "type": "function"
    },
    {
      "constant": true,
      "inputs": [],
      "name": "name",
      "outputs": [
        {
          "internalType": "string",
          "name": "",
          "type": "string"
        }
      ],
      "payable": false,
      "stateMutability": "view",
      "type": "function"
    },
    {
      "constant": true,
      "inputs": [],
      "name": "owner",
      "outputs": [
        {
          "internalType": "address",
          "name": "",
          "type": "address"
        }
      ],
      "payable": false,
      "stateMutability": "view",
      "type": "function"
    },
    {
      "constant": false,
      "inputs": [
        {
          "internalType": "bytes",
          "name": "context",
          "type": "bytes"
        },
        {
          "internalType": "bool",
          "name": "success",
          "type": "bool"
        },
        {
          "internalType": "uint256",
          "name": "actualCharge",
          "type": "uint256"
        },
        {
          "internalType": "bytes32",
          "name": "preRetVal",
          "type": "bytes32"
        }
      ],
      "name": "postRelayedCall",
      "outputs": [],
      "payable": false,
      "stateMutability": "nonpayable",
      "type": "function"
    },
    {
      "constant": false,
      "inputs": [
        {
          "internalType": "bytes",
          "name": "context",
          "type": "bytes"
        }
      ],
      "name": "preRelayedCall",
      "outputs": [
        {
          "internalType": "bytes32",
          "name": "",
          "type": "bytes32"
        }
      ],
      "payable": false,
      "stateMutability": "nonpayable",
      "type": "function"
    },
    {
      "constant": true,
      "inputs": [
        {
          "internalType": "address",
          "name": "",
          "type": "address"
        }
      ],
      "name": "recipients",
      "outputs": [
        {
          "internalType": "bool",
          "name": "",
          "type": "bool"
        }
      ],
      "payable": false,
      "stateMutability": "view",
      "type": "function"
    },
    {
      "constant": true,
      "inputs": [],
      "name": "relayHubVersion",
      "outputs": [
        {
          "internalType": "string",
          "name": "",
          "type": "string"
        }
      ],
      "payable": false,
      "stateMutability": "view",
      "type": "function"
    },
    {
      "constant": false,
      "inputs": [],
      "name": "renounceMinter",
      "outputs": [],
      "payable": false,
      "stateMutability": "nonpayable",
      "type": "function"
    },
    {
      "constant": false,
      "inputs": [],
      "name": "renounceOwnership",
      "outputs": [],
      "payable": false,
      "stateMutability": "nonpayable",
      "type": "function"
    },
    {
      "constant": false,
      "inputs": [
        {
          "internalType": "uint256",
          "name": "newFee",
          "type": "uint256"
        }
      ],
      "name": "setChargeFee",
      "outputs": [
        {
          "internalType": "bool",
          "name": "",
          "type": "bool"
        }
      ],
      "payable": false,
      "stateMutability": "nonpayable",
      "type": "function"
    },
    {
      "constant": false,
      "inputs": [
        {
          "internalType": "address",
          "name": "newReserve",
          "type": "address"
        }
      ],
      "name": "setStormXReserve",
      "outputs": [
        {
          "internalType": "bool",
          "name": "",
          "type": "bool"
        }
      ],
      "payable": false,
      "stateMutability": "nonpayable",
      "type": "function"
    },
    {
      "constant": true,
      "inputs": [],
      "name": "stormXReserve",
      "outputs": [
        {
          "internalType": "address",
          "name": "",
          "type": "address"
        }
      ],
      "payable": false,
      "stateMutability": "view",
      "type": "function"
    },
    {
      "constant": true,
      "inputs": [],
      "name": "symbol",
      "outputs": [
        {
          "internalType": "string",
          "name": "",
          "type": "string"
        }
      ],
      "payable": false,
      "stateMutability": "view",
      "type": "function"
    },
    {
      "constant": true,
      "inputs": [],
      "name": "token",
      "outputs": [
        {
          "internalType": "contract IStormXToken",
          "name": "",
          "type": "address"
        }
      ],
      "payable": false,
      "stateMutability": "view",
      "type": "function"
    },
    {
      "constant": true,
      "inputs": [],
      "name": "totalSupply",
      "outputs": [
        {
          "internalType": "uint256",
          "name": "",
          "type": "uint256"
        }
      ],
      "payable": false,
      "stateMutability": "view",
      "type": "function"
    },
    {
      "constant": false,
      "inputs": [
        {
          "internalType": "address",
          "name": "newOwner",
          "type": "address"
        }
      ],
      "name": "transferOwnership",
      "outputs": [],
      "payable": false,
      "stateMutability": "nonpayable",
      "type": "function"
    },
    {
      "constant": true,
      "inputs": [],
      "name": "transfersEnabled",
      "outputs": [
        {
          "internalType": "bool",
          "name": "",
          "type": "bool"
        }
      ],
      "payable": false,
      "stateMutability": "view",
      "type": "function"
    },
    {
      "constant": true,
      "inputs": [],
      "name": "validMinter",
      "outputs": [
        {
          "internalType": "address",
          "name": "",
          "type": "address"
        }
      ],
      "payable": false,
      "stateMutability": "view",
      "type": "function"
    },
    {
      "constant": false,
      "inputs": [
        {
          "internalType": "address",
          "name": "recipient",
          "type": "address"
        }
      ],
      "name": "addGSNRecipient",
      "outputs": [
        {
          "internalType": "bool",
          "name": "",
          "type": "bool"
        }
      ],
      "payable": false,
      "stateMutability": "nonpayable",
      "type": "function"
    },
    {
      "constant": false,
      "inputs": [
        {
          "internalType": "address",
          "name": "recipient",
          "type": "address"
        }
      ],
      "name": "deleteGSNRecipient",
      "outputs": [
        {
          "internalType": "bool",
          "name": "",
          "type": "bool"
        }
      ],
      "payable": false,
      "stateMutability": "nonpayable",
      "type": "function"
    },
    {
      "constant": true,
      "inputs": [
        {
          "internalType": "address",
          "name": "account",
          "type": "address"
        }
      ],
      "name": "unlockedBalanceOf",
      "outputs": [
        {
          "internalType": "uint256",
          "name": "",
          "type": "uint256"
        }
      ],
      "payable": false,
      "stateMutability": "view",
      "type": "function"
    },
    {
      "constant": false,
      "inputs": [
        {
          "internalType": "uint256",
          "name": "amount",
          "type": "uint256"
        }
      ],
      "name": "lock",
      "outputs": [
        {
          "internalType": "bool",
          "name": "",
          "type": "bool"
        }
      ],
      "payable": false,
      "stateMutability": "nonpayable",
      "type": "function"
    },
    {
      "constant": false,
      "inputs": [
        {
          "internalType": "uint256",
          "name": "amount",
          "type": "uint256"
        }
      ],
      "name": "unlock",
      "outputs": [
        {
          "internalType": "bool",
          "name": "",
          "type": "bool"
        }
      ],
      "payable": false,
      "stateMutability": "nonpayable",
      "type": "function"
    },
    {
      "constant": false,
      "inputs": [
        {
          "internalType": "address",
          "name": "sender",
          "type": "address"
        },
        {
          "internalType": "address",
          "name": "recipient",
          "type": "address"
        },
        {
          "internalType": "uint256",
          "name": "amount",
          "type": "uint256"
        }
      ],
      "name": "transferFrom",
      "outputs": [
        {
          "internalType": "bool",
          "name": "",
          "type": "bool"
        }
      ],
      "payable": false,
      "stateMutability": "nonpayable",
      "type": "function"
    },
    {
      "constant": false,
      "inputs": [
        {
          "internalType": "address",
          "name": "recipient",
          "type": "address"
        },
        {
          "internalType": "uint256",
          "name": "amount",
          "type": "uint256"
        }
      ],
      "name": "transfer",
      "outputs": [
        {
          "internalType": "bool",
          "name": "",
          "type": "bool"
        }
      ],
      "payable": false,
      "stateMutability": "nonpayable",
      "type": "function"
    },
    {
      "constant": false,
      "inputs": [
        {
          "internalType": "address[]",
          "name": "recipients",
          "type": "address[]"
        },
        {
          "internalType": "uint256[]",
          "name": "values",
          "type": "uint256[]"
        }
      ],
      "name": "transfers",
      "outputs": [
        {
          "internalType": "bool",
          "name": "",
          "type": "bool"
        }
      ],
      "payable": false,
      "stateMutability": "nonpayable",
      "type": "function"
    },
    {
      "constant": false,
      "inputs": [
        {
          "internalType": "bool",
          "name": "enable",
          "type": "bool"
        }
      ],
      "name": "enableTransfers",
      "outputs": [
        {
          "internalType": "bool",
          "name": "",
          "type": "bool"
        }
      ],
      "payable": false,
      "stateMutability": "nonpayable",
      "type": "function"
    },
    {
      "constant": false,
      "inputs": [
        {
          "internalType": "address",
          "name": "account",
          "type": "address"
        },
        {
          "internalType": "uint256",
          "name": "amount",
          "type": "uint256"
        }
      ],
      "name": "mint",
      "outputs": [
        {
          "internalType": "bool",
          "name": "",
          "type": "bool"
        }
      ],
      "payable": false,
      "stateMutability": "nonpayable",
      "type": "function"
    },
    {
      "constant": false,
      "inputs": [
        {
          "internalType": "address",
          "name": "swap",
          "type": "address"
        }
      ],
      "name": "initialize",
      "outputs": [],
      "payable": false,
      "stateMutability": "nonpayable",
      "type": "function"
    }
  ],
  "bytecode": "0x608060405273d216153c06e857cd7f72665e0af1d7d82172f4946000806101000a81548173ffffffffffffffffffffffffffffffffffffffff021916908373ffffffffffffffffffffffffffffffffffffffff1602179055506000600b60026101000a81548160ff0219169083151502179055503480156200008057600080fd5b5060405162004e4538038062004e4583398181016040526020811015620000a657600080fd5b81019080805190602001909291905050506040518060400160405280600681526020017f53746f726d5800000000000000000000000000000000000000000000000000008152506040518060400160405280600481526020017f53544d5800000000000000000000000000000000000000000000000000000000815250601230846000620001396200050060201b60201c565b905080600160006101000a81548173ffffffffffffffffffffffffffffffffffffffff021916908373ffffffffffffffffffffffffffffffffffffffff1602179055508073ffffffffffffffffffffffffffffffffffffffff16600073ffffffffffffffffffffffffffffffffffffffff167f8be0079c531659141344cd1fd0a4f28419497f9722a3daafe3b4186f6b6457e060405160405180910390a350600073ffffffffffffffffffffffffffffffffffffffff168273ffffffffffffffffffffffffffffffffffffffff1614156200027c576040517f08c379a00000000000000000000000000000000000000000000000000000000081526004018080602001828103825260158152602001807f496e76616c696420746f6b656e2061646472657373000000000000000000000081525060200191505060405180910390fd5b600073ffffffffffffffffffffffffffffffffffffffff168173ffffffffffffffffffffffffffffffffffffffff16141562000320576040517f08c379a00000000000000000000000000000000000000000000000000000000081526004018080602001828103825260178152602001807f496e76616c69642072657365727665206164647265737300000000000000000081525060200191505060405180910390fd5b81600460006101000a81548173ffffffffffffffffffffffffffffffffffffffff021916908373ffffffffffffffffffffffffffffffffffffffff16021790555080600360006101000a81548173ffffffffffffffffffffffffffffffffffffffff021916908373ffffffffffffffffffffffffffffffffffffffff160217905550678ac7230489e800006002819055505050620003d3620003c76200050060201b60201c565b6200057660201b60201c565b8260099080519060200190620003eb92919062000813565b5081600a90805190602001906200040492919062000813565b5080600b60006101000a81548160ff021916908360ff1602179055505050506001600c60003073ffffffffffffffffffffffffffffffffffffffff1673ffffffffffffffffffffffffffffffffffffffff16815260200190815260200160002060006101000a81548160ff0219169083151502179055507ff9d1124e8ad04208cc397a81f296144fc0ebe65b0177be33872769a2f5dca24a30604051808273ffffffffffffffffffffffffffffffffffffffff1673ffffffffffffffffffffffffffffffffffffffff16815260200191505060405180910390a16001600b60016101000a81548160ff02191690831515021790555050620008c2565b60008060009054906101000a900473ffffffffffffffffffffffffffffffffffffffff1673ffffffffffffffffffffffffffffffffffffffff163373ffffffffffffffffffffffffffffffffffffffff1614620005605733905062000573565b62000570620005d760201b60201c565b90505b90565b620005918160086200064f60201b620040981790919060201c565b8073ffffffffffffffffffffffffffffffffffffffff167f6ae172837ea30b801fbfcdd4108aa1d5bf8ff775444fd70256b44e6bf3dfc3f660405160405180910390a250565b600060606000368080601f016020809104026020016040519081016040528093929190818152602001838380828437600081840152601f19601f820116905080830192505050505050509050600080369050905073ffffffffffffffffffffffffffffffffffffffff81830151169250829250505090565b6200066182826200073360201b60201c565b15620006d5576040517f08c379a000000000000000000000000000000000000000000000000000000000815260040180806020018281038252601f8152602001807f526f6c65733a206163636f756e7420616c72656164792068617320726f6c650081525060200191505060405180910390fd5b60018260000160008373ffffffffffffffffffffffffffffffffffffffff1673ffffffffffffffffffffffffffffffffffffffff16815260200190815260200160002060006101000a81548160ff0219169083151502179055505050565b60008073ffffffffffffffffffffffffffffffffffffffff168273ffffffffffffffffffffffffffffffffffffffff161415620007bc576040517f08c379a000000000000000000000000000000000000000000000000000000000815260040180806020018281038252602281526020018062004e236022913960400191505060405180910390fd5b8260000160008373ffffffffffffffffffffffffffffffffffffffff1673ffffffffffffffffffffffffffffffffffffffff16815260200190815260200160002060009054906101000a900460ff16905092915050565b828054600181600116156101000203166002900490600052602060002090601f016020900481019282601f106200085657805160ff191683800117855562000887565b8280016001018555821562000887579182015b828111156200088657825182559160200191906001019062000869565b5b5090506200089691906200089a565b5090565b620008bf91905b80821115620008bb576000816000905550600101620008a1565b5090565b90565b61455180620008d26000396000f3fe608060405234801561001057600080fd5b506004361061025e5760003560e01c806384955c8811610146578063bef97c87116100c3578063eb82031211610087578063eb82031214611061578063ece70b22146110bd578063f2fde38b14611119578063f41e60c51461115d578063f6d1ef43146111a5578063fc0c546a146111ef5761025e565b8063bef97c8714610ea4578063c4d66de814610ec6578063dd46706414610f0a578063dd62ed3e14610f50578063e06e0e2214610fc85761025e565b8063986502751161010a5780639865027514610cef578063a457c2d714610cf9578063a9059cbb14610d5f578063aa271e1a14610dc5578063ad61ccd514610e215761025e565b806384955c8814610b645780638da5cb5b14610bbc5780638f32d59b14610c0657806395d89b4114610c28578063983b2d5614610cab5761025e565b806352346412116101df578063715018a6116101a3578063715018a61461085a578063744c8c091461086457806374e861d6146108825780637f133997146108cc57806380274db71461091657806383947ea0146109a35761025e565b806352346412146105a457806359355736146107085780636198e3391461076057806363145148146107a657806370a08231146108025761025e565b806323b872dd1161022657806323b872dd146103e8578063313ce5671461046e578063395093511461049257806340c10f19146104f8578063516ae9931461055e5761025e565b806306fdde0314610263578063095ea7b3146102e65780630eebd4591461034c578063158ef93e146103a857806318160ddd146103ca575b600080fd5b61026b611239565b6040518080602001828103825283818151815260200191508051906020019080838360005b838110156102ab578082015181840152602081019050610290565b50505050905090810190601f1680156102d85780820380516001836020036101000a031916815260200191505b509250505060405180910390f35b610332600480360360408110156102fc57600080fd5b81019080803573ffffffffffffffffffffffffffffffffffffffff169060200190929190803590602001909291905050506112db565b604051808215151515815260200191505060405180910390f35b61038e6004803603602081101561036257600080fd5b81019080803573ffffffffffffffffffffffffffffffffffffffff1690602001909291905050506112f9565b604051808215151515815260200191505060405180910390f35b6103b0611439565b604051808215151515815260200191505060405180910390f35b6103d261144c565b6040518082815260200191505060405180910390f35b610454600480360360608110156103fe57600080fd5b81019080803573ffffffffffffffffffffffffffffffffffffffff169060200190929190803573ffffffffffffffffffffffffffffffffffffffff16906020019092919080359060200190929190505050611456565b604051808215151515815260200191505060405180910390f35b610476611542565b604051808260ff1660ff16815260200191505060405180910390f35b6104de600480360360408110156104a857600080fd5b81019080803573ffffffffffffffffffffffffffffffffffffffff16906020019092919080359060200190929190505050611559565b604051808215151515815260200191505060405180910390f35b6105446004803603604081101561050e57600080fd5b81019080803573ffffffffffffffffffffffffffffffffffffffff1690602001909291908035906020019092919050505061160c565b604051808215151515815260200191505060405180910390f35b61058a6004803603602081101561057457600080fd5b81019080803590602001909291905050506117b7565b604051808215151515815260200191505060405180910390f35b6106ee600480360360408110156105ba57600080fd5b81019080803590602001906401000000008111156105d757600080fd5b8201836020820111156105e957600080fd5b8035906020019184602083028401116401000000008311171561060b57600080fd5b919080806020026020016040519081016040528093929190818152602001838360200280828437600081840152601f19601f8201169050808301925050505050505091929192908035906020019064010000000081111561066b57600080fd5b82018360208201111561067d57600080fd5b8035906020019184602083028401116401000000008311171561069f57600080fd5b919080806020026020016040519081016040528093929190818152602001838360200280828437600081840152601f19601f82011690508083019250505050505050919291929050505061187a565b604051808215151515815260200191505060405180910390f35b61074a6004803603602081101561071e57600080fd5b81019080803573ffffffffffffffffffffffffffffffffffffffff1690602001909291905050506119cd565b6040518082815260200191505060405180910390f35b61078c6004803603602081101561077657600080fd5b81019080803590602001909291905050506119e5565b604051808215151515815260200191505060405180910390f35b6107e8600480360360208110156107bc57600080fd5b81019080803573ffffffffffffffffffffffffffffffffffffffff169060200190929190505050611b94565b604051808215151515815260200191505060405180910390f35b6108446004803603602081101561081857600080fd5b81019080803573ffffffffffffffffffffffffffffffffffffffff169060200190929190505050611cd4565b6040518082815260200191505060405180910390f35b610862611d1d565b005b61086c611e58565b6040518082815260200191505060405180910390f35b61088a611e5e565b604051808273ffffffffffffffffffffffffffffffffffffffff1673ffffffffffffffffffffffffffffffffffffffff16815260200191505060405180910390f35b6108d4611e87565b604051808273ffffffffffffffffffffffffffffffffffffffff1673ffffffffffffffffffffffffffffffffffffffff16815260200191505060405180910390f35b61098d6004803603602081101561092c57600080fd5b810190808035906020019064010000000081111561094957600080fd5b82018360208201111561095b57600080fd5b8035906020019184600183028401116401000000008311171561097d57600080fd5b9091929391929390505050611ead565b6040518082815260200191505060405180910390f35b610ae260048036036101208110156109ba57600080fd5b81019080803573ffffffffffffffffffffffffffffffffffffffff169060200190929190803573ffffffffffffffffffffffffffffffffffffffff16906020019092919080359060200190640100000000811115610a1757600080fd5b820183602082011115610a2957600080fd5b80359060200191846001830284011164010000000083111715610a4b57600080fd5b90919293919293908035906020019092919080359060200190929190803590602001909291908035906020019092919080359060200190640100000000811115610a9457600080fd5b820183602082011115610aa657600080fd5b80359060200191846001830284011164010000000083111715610ac857600080fd5b909192939192939080359060200190929190505050611f8f565b6040518083815260200180602001828103825283818151815260200191508051906020019080838360005b83811015610b28578082015181840152602081019050610b0d565b50505050905090810190601f168015610b555780820380516001836020036101000a031916815260200191505b50935050505060405180910390f35b610ba660048036036020811015610b7a57600080fd5b81019080803573ffffffffffffffffffffffffffffffffffffffff1690602001909291905050506122b7565b6040518082815260200191505060405180910390f35b610bc461231a565b604051808273ffffffffffffffffffffffffffffffffffffffff1673ffffffffffffffffffffffffffffffffffffffff16815260200191505060405180910390f35b610c0e612344565b604051808215151515815260200191505060405180910390f35b610c306123a3565b6040518080602001828103825283818151815260200191508051906020019080838360005b83811015610c70578082015181840152602081019050610c55565b50505050905090810190601f168015610c9d5780820380516001836020036101000a031916815260200191505b509250505060405180910390f35b610ced60048036036020811015610cc157600080fd5b81019080803573ffffffffffffffffffffffffffffffffffffffff169060200190929190505050612445565b005b610cf76124b6565b005b610d4560048036036040811015610d0f57600080fd5b81019080803573ffffffffffffffffffffffffffffffffffffffff169060200190929190803590602001909291905050506124c8565b604051808215151515815260200191505060405180910390f35b610dab60048036036040811015610d7557600080fd5b81019080803573ffffffffffffffffffffffffffffffffffffffff16906020019092919080359060200190929190505050612595565b604051808215151515815260200191505060405180910390f35b610e0760048036036020811015610ddb57600080fd5b81019080803573ffffffffffffffffffffffffffffffffffffffff169060200190929190505050612611565b604051808215151515815260200191505060405180910390f35b610e2961262e565b6040518080602001828103825283818151815260200191508051906020019080838360005b83811015610e69578082015181840152602081019050610e4e565b50505050905090810190601f168015610e965780820380516001836020036101000a031916815260200191505b509250505060405180910390f35b610eac61266b565b604051808215151515815260200191505060405180910390f35b610f0860048036036020811015610edc57600080fd5b81019080803573ffffffffffffffffffffffffffffffffffffffff16906020019092919050505061267e565b005b610f3660048036036020811015610f2057600080fd5b81019080803590602001909291905050506128e9565b604051808215151515815260200191505060405180910390f35b610fb260048036036040811015610f6657600080fd5b81019080803573ffffffffffffffffffffffffffffffffffffffff169060200190929190803573ffffffffffffffffffffffffffffffffffffffff169060200190929190505050612a61565b6040518082815260200191505060405180910390f35b61105f60048036036080811015610fde57600080fd5b8101908080359060200190640100000000811115610ffb57600080fd5b82018360208201111561100d57600080fd5b8035906020019184600183028401116401000000008311171561102f57600080fd5b90919293919293908035151590602001909291908035906020019092919080359060200190929190505050612ae8565b005b6110a36004803603602081101561107757600080fd5b81019080803573ffffffffffffffffffffffffffffffffffffffff169060200190929190505050612bca565b604051808215151515815260200191505060405180910390f35b6110ff600480360360208110156110d357600080fd5b81019080803573ffffffffffffffffffffffffffffffffffffffff169060200190929190505050612bea565b604051808215151515815260200191505060405180910390f35b61115b6004803603602081101561112f57600080fd5b81019080803573ffffffffffffffffffffffffffffffffffffffff169060200190929190505050612db6565b005b61118b6004803603602081101561117357600080fd5b81019080803515159060200190929190505050612e3c565b604051808215151515815260200191505060405180910390f35b6111ad612f16565b604051808273ffffffffffffffffffffffffffffffffffffffff1673ffffffffffffffffffffffffffffffffffffffff16815260200191505060405180910390f35b6111f7612f3c565b604051808273ffffffffffffffffffffffffffffffffffffffff1673ffffffffffffffffffffffffffffffffffffffff16815260200191505060405180910390f35b606060098054600181600116156101000203166002900480601f0160208091040260200160405190810160405280929190818152602001828054600181600116156101000203166002900480156112d15780601f106112a6576101008083540402835291602001916112d1565b820191906000526020600020905b8154815290600101906020018083116112b457829003601f168201915b5050505050905090565b60006112ef6112e8612f62565b8484612fce565b6001905092915050565b6000611303612344565b611375576040517f08c379a00000000000000000000000000000000000000000000000000000000081526004018080602001828103825260208152602001807f4f776e61626c653a2063616c6c6572206973206e6f7420746865206f776e657281525060200191505060405180910390fd5b6001600c60008473ffffffffffffffffffffffffffffffffffffffff1673ffffffffffffffffffffffffffffffffffffffff16815260200190815260200160002060006101000a81548160ff0219169083151502179055507ff9d1124e8ad04208cc397a81f296144fc0ebe65b0177be33872769a2f5dca24a82604051808273ffffffffffffffffffffffffffffffffffffffff1673ffffffffffffffffffffffffffffffffffffffff16815260200191505060405180910390a160019050919050565b600b60029054906101000a900460ff1681565b6000600754905090565b600081611462856122b7565b10156114b9576040517f08c379a000000000000000000000000000000000000000000000000000000000815260040180806020018281038252602b8152602001806143ad602b913960400191505060405180910390fd5b60011515600c60006114c9612f62565b73ffffffffffffffffffffffffffffffffffffffff1673ffffffffffffffffffffffffffffffffffffffff16815260200190815260200160002060009054906101000a900460ff161515141561152d576115248484846131c5565b6001905061153b565b61153884848461347f565b90505b9392505050565b6000600b60009054906101000a900460ff16905090565b6000611602611566612f62565b846115fd8560066000611577612f62565b73ffffffffffffffffffffffffffffffffffffffff1673ffffffffffffffffffffffffffffffffffffffff16815260200190815260200160002060008973ffffffffffffffffffffffffffffffffffffffff1673ffffffffffffffffffffffffffffffffffffffff1681526020019081526020016000205461355890919063ffffffff16565b612fce565b6001905092915050565b600061161e611619612f62565b612611565b611673576040517f08c379a000000000000000000000000000000000000000000000000000000000815260040180806020018281038252603081526020018061435c6030913960400191505060405180910390fd5b600b60029054906101000a900460ff166116d8576040517f08c379a00000000000000000000000000000000000000000000000000000000081526004018080602001828103825260238152602001806144436023913960400191505060405180910390fd5b600b60039054906101000a900473ffffffffffffffffffffffffffffffffffffffff1673ffffffffffffffffffffffffffffffffffffffff16611719612f62565b73ffffffffffffffffffffffffffffffffffffffff16146117a2576040517f08c379a00000000000000000000000000000000000000000000000000000000081526004018080602001828103825260168152602001807f6e6f7420617574686f72697a656420746f206d696e740000000000000000000081525060200191505060405180910390fd5b6117ac83836135e0565b506001905092915050565b60006117c1612344565b611833576040517f08c379a00000000000000000000000000000000000000000000000000000000081526004018080602001828103825260208152602001807f4f776e61626c653a2063616c6c6572206973206e6f7420746865206f776e657281525060200191505060405180910390fd5b816002819055507fe43cbc6e431335d3c8bed1088480303872cac29a9dad5607362b82bfa2cd6d24826040518082815260200191505060405180910390a160019050919050565b6000600b60019054906101000a900460ff166118fe576040517f08c379a00000000000000000000000000000000000000000000000000000000081526004018080602001828103825260178152602001807f5472616e7366657273206e6f7420617661696c61626c6500000000000000000081525060200191505060405180910390fd5b8151835114611975576040517f08c379a000000000000000000000000000000000000000000000000000000000815260040180806020018281038252601a8152602001807f496e707574206c656e6774687320646f206e6f74206d6174636800000000000081525060200191505060405180910390fd5b60008090505b83518110156119c2576119b484828151811061199357fe5b60200260200101518483815181106119a757fe5b6020026020010151612595565b50808060010191505061197b565b506001905092915050565b600d6020528060005260406000206000915090505481565b6000806119f0612f62565b905082600d60008373ffffffffffffffffffffffffffffffffffffffff1673ffffffffffffffffffffffffffffffffffffffff168152602001908152602001600020541015611aa7576040517f08c379a00000000000000000000000000000000000000000000000000000000081526004018080602001828103825260188152602001807f4e6f7420656e6f756768206c6f636b656420746f6b656e73000000000000000081525060200191505060405180910390fd5b611af983600d60008473ffffffffffffffffffffffffffffffffffffffff1673ffffffffffffffffffffffffffffffffffffffff1681526020019081526020016000205461365b90919063ffffffff16565b600d60008373ffffffffffffffffffffffffffffffffffffffff1673ffffffffffffffffffffffffffffffffffffffff168152602001908152602001600020819055508073ffffffffffffffffffffffffffffffffffffffff167f613edbda9d1e6bda8af8e869a973f88cccf93854a11f351589038de07e1ab4e3846040518082815260200191505060405180910390a26001915050919050565b6000611b9e612344565b611c10576040517f08c379a00000000000000000000000000000000000000000000000000000000081526004018080602001828103825260208152602001807f4f776e61626c653a2063616c6c6572206973206e6f7420746865206f776e657281525060200191505060405180910390fd5b6000600c60008473ffffffffffffffffffffffffffffffffffffffff1673ffffffffffffffffffffffffffffffffffffffff16815260200190815260200160002060006101000a81548160ff0219169083151502179055507f708eda0d9ab8898ace84846943553bc0828975b72eba27fdbea3bf0e8bdd14cc82604051808273ffffffffffffffffffffffffffffffffffffffff1673ffffffffffffffffffffffffffffffffffffffff16815260200191505060405180910390a160019050919050565b6000600560008373ffffffffffffffffffffffffffffffffffffffff1673ffffffffffffffffffffffffffffffffffffffff168152602001908152602001600020549050919050565b611d25612344565b611d97576040517f08c379a00000000000000000000000000000000000000000000000000000000081526004018080602001828103825260208152602001807f4f776e61626c653a2063616c6c6572206973206e6f7420746865206f776e657281525060200191505060405180910390fd5b600073ffffffffffffffffffffffffffffffffffffffff16600160009054906101000a900473ffffffffffffffffffffffffffffffffffffffff1673ffffffffffffffffffffffffffffffffffffffff167f8be0079c531659141344cd1fd0a4f28419497f9722a3daafe3b4186f6b6457e060405160405180910390a36000600160006101000a81548173ffffffffffffffffffffffffffffffffffffffff021916908373ffffffffffffffffffffffffffffffffffffffff160217905550565b60025481565b60008060009054906101000a900473ffffffffffffffffffffffffffffffffffffffff16905090565b600360009054906101000a900473ffffffffffffffffffffffffffffffffffffffff1681565b6000611eb7611e5e565b73ffffffffffffffffffffffffffffffffffffffff163373ffffffffffffffffffffffffffffffffffffffff1614611f3a576040517f08c379a000000000000000000000000000000000000000000000000000000000815260040180806020018281038252602481526020018061448b6024913960400191505060405180910390fd5b611f8783838080601f016020809104026020016040519081016040528093929190818152602001838380828437600081840152601f19601f820116905080830192505050505050506136a5565b905092915050565b60006060600060019050600254600460009054906101000a900473ffffffffffffffffffffffffffffffffffffffff1673ffffffffffffffffffffffffffffffffffffffff166384955c888f6040518263ffffffff1660e01b8152600401808273ffffffffffffffffffffffffffffffffffffffff1673ffffffffffffffffffffffffffffffffffffffff16815260200191505060206040518083038186803b15801561203b57600080fd5b505afa15801561204f573d6000803e3d6000fd5b505050506040513d602081101561206557600080fd5b810190808051906020019092919050505010156122415760006120cd8d8d8080601f016020809104026020016040519081016040528093929190818152602001838380828437600081840152601f19601f82011690508083019250505050505050600061382d565b905060405180807f636f6e766572742875696e743235362900000000000000000000000000000000815250601001905060405180910390207bffffffffffffffffffffffffffffffffffffffffffffffffffffffff1916817bffffffffffffffffffffffffffffffffffffffffffffffffffffffff1916141561222c57600061219b8e8e8080601f016020809104026020016040519081016040528093929190818152602001838380828437600081840152601f19601f8201169050808301925050505050505060006138c6565b90506002548110612216576000925061220a8f84604051602001808373ffffffffffffffffffffffffffffffffffffffff1673ffffffffffffffffffffffffffffffffffffffff16815260200182151515158152602001925050506040516020818303038152906040526138e0565b945094505050506122a7565b612220600b6138f0565b945094505050506122a7565b612236600b6138f0565b9350935050506122a7565b6122a18d82604051602001808373ffffffffffffffffffffffffffffffffffffffff1673ffffffffffffffffffffffffffffffffffffffff16815260200182151515158152602001925050506040516020818303038152906040526138e0565b92509250505b9b509b9950505050505050505050565b6000612313600d60008473ffffffffffffffffffffffffffffffffffffffff1673ffffffffffffffffffffffffffffffffffffffff1681526020019081526020016000205461230584611cd4565b61365b90919063ffffffff16565b9050919050565b6000600160009054906101000a900473ffffffffffffffffffffffffffffffffffffffff16905090565b6000600160009054906101000a900473ffffffffffffffffffffffffffffffffffffffff1673ffffffffffffffffffffffffffffffffffffffff16612387612f62565b73ffffffffffffffffffffffffffffffffffffffff1614905090565b6060600a8054600181600116156101000203166002900480601f01602080910402602001604051908101604052809291908181526020018280546001816001161561010002031660029004801561243b5780601f106124105761010080835404028352916020019161243b565b820191906000526020600020905b81548152906001019060200180831161241e57829003601f168201915b5050505050905090565b612455612450612f62565b612611565b6124aa576040517f08c379a000000000000000000000000000000000000000000000000000000000815260040180806020018281038252603081526020018061435c6030913960400191505060405180910390fd5b6124b381613911565b50565b6124c66124c1612f62565b61396b565b565b600061258b6124d5612f62565b84612586856040518060600160405280602581526020016144f860259139600660006124ff612f62565b73ffffffffffffffffffffffffffffffffffffffff1673ffffffffffffffffffffffffffffffffffffffff16815260200190815260200160002060008a73ffffffffffffffffffffffffffffffffffffffff1673ffffffffffffffffffffffffffffffffffffffff168152602001908152602001600020546139c59092919063ffffffff16565b612fce565b6001905092915050565b6000816125a86125a3612f62565b6122b7565b10156125ff576040517f08c379a00000000000000000000000000000000000000000000000000000000081526004018080602001828103825260218152602001806144226021913960400191505060405180910390fd5b6126098383613a85565b905092915050565b6000612627826008613aa390919063ffffffff16565b9050919050565b60606040518060400160405280600581526020017f312e302e30000000000000000000000000000000000000000000000000000000815250905090565b600b60019054906101000a900460ff1681565b612686612344565b6126f8576040517f08c379a00000000000000000000000000000000000000000000000000000000081526004018080602001828103825260208152602001807f4f776e61626c653a2063616c6c6572206973206e6f7420746865206f776e657281525060200191505060405180910390fd5b600b60029054906101000a900460ff161561277b576040517f08c379a00000000000000000000000000000000000000000000000000000000081526004018080602001828103825260178152602001807f63616e6e6f7420696e697469616c697a6520747769636500000000000000000081525060200191505060405180910390fd5b600073ffffffffffffffffffffffffffffffffffffffff168173ffffffffffffffffffffffffffffffffffffffff16141561281e576040517f08c379a00000000000000000000000000000000000000000000000000000000081526004018080602001828103825260148152602001807f696e76616c69642073776170206164647265737300000000000000000000000081525060200191505060405180910390fd5b61282781612445565b80600b60036101000a81548173ffffffffffffffffffffffffffffffffffffffff021916908373ffffffffffffffffffffffffffffffffffffffff1602179055506001600b60026101000a81548160ff0219169083151502179055507f2ccf7258c0a17f0fd13ca24cd6be8a7af27e89043ec4d497c75356b5fb28fe0881604051808273ffffffffffffffffffffffffffffffffffffffff1673ffffffffffffffffffffffffffffffffffffffff16815260200191505060405180910390a150565b6000806128f4612f62565b905082612900826122b7565b1015612974576040517f08c379a000000000000000000000000000000000000000000000000000000000815260040180806020018281038252601a8152602001807f4e6f7420656e6f75676820756e6c6f636b656420746f6b656e7300000000000081525060200191505060405180910390fd5b6129c683600d60008473ffffffffffffffffffffffffffffffffffffffff1673ffffffffffffffffffffffffffffffffffffffff1681526020019081526020016000205461355890919063ffffffff16565b600d60008373ffffffffffffffffffffffffffffffffffffffff1673ffffffffffffffffffffffffffffffffffffffff168152602001908152602001600020819055508073ffffffffffffffffffffffffffffffffffffffff167ff9626bca62c59d77fa45a204dc096874ee066a5c5e124aa9ce6c438dbdf7387a846040518082815260200191505060405180910390a26001915050919050565b6000600660008473ffffffffffffffffffffffffffffffffffffffff1673ffffffffffffffffffffffffffffffffffffffff16815260200190815260200160002060008373ffffffffffffffffffffffffffffffffffffffff1673ffffffffffffffffffffffffffffffffffffffff16815260200190815260200160002054905092915050565b612af0611e5e565b73ffffffffffffffffffffffffffffffffffffffff163373ffffffffffffffffffffffffffffffffffffffff1614612b73576040517f08c379a000000000000000000000000000000000000000000000000000000000815260040180806020018281038252602481526020018061448b6024913960400191505060405180910390fd5b612bc385858080601f016020809104026020016040519081016040528093929190818152602001838380828437600081840152601f19601f82011690508083019250505050505050848484613b81565b5050505050565b600c6020528060005260406000206000915054906101000a900460ff1681565b6000612bf4612344565b612c66576040517f08c379a00000000000000000000000000000000000000000000000000000000081526004018080602001828103825260208152602001807f4f776e61626c653a2063616c6c6572206973206e6f7420746865206f776e657281525060200191505060405180910390fd5b600073ffffffffffffffffffffffffffffffffffffffff168273ffffffffffffffffffffffffffffffffffffffff161415612d09576040517f08c379a00000000000000000000000000000000000000000000000000000000081526004018080602001828103825260178152602001807f496e76616c69642072657365727665206164647265737300000000000000000081525060200191505060405180910390fd5b81600360006101000a81548173ffffffffffffffffffffffffffffffffffffffff021916908373ffffffffffffffffffffffffffffffffffffffff1602179055507f2d9c1b8b9564d60efd2f7c8a3742a514dae67760a74c804271e63b17420d100d82604051808273ffffffffffffffffffffffffffffffffffffffff1673ffffffffffffffffffffffffffffffffffffffff16815260200191505060405180910390a160019050919050565b612dbe612344565b612e30576040517f08c379a00000000000000000000000000000000000000000000000000000000081526004018080602001828103825260208152602001807f4f776e61626c653a2063616c6c6572206973206e6f7420746865206f776e657281525060200191505060405180910390fd5b612e3981613d03565b50565b6000612e46612344565b612eb8576040517f08c379a00000000000000000000000000000000000000000000000000000000081526004018080602001828103825260208152602001807f4f776e61626c653a2063616c6c6572206973206e6f7420746865206f776e657281525060200191505060405180910390fd5b81600b60016101000a81548160ff0219169083151502179055507f2cac12335272569cae3b5eead61f36da81730100604965d574b896ad69c9915382604051808215151515815260200191505060405180910390a160019050919050565b600b60039054906101000a900473ffffffffffffffffffffffffffffffffffffffff1681565b600460009054906101000a900473ffffffffffffffffffffffffffffffffffffffff1681565b60008060009054906101000a900473ffffffffffffffffffffffffffffffffffffffff1673ffffffffffffffffffffffffffffffffffffffff163373ffffffffffffffffffffffffffffffffffffffff1614612fc057339050612fcb565b612fc8613e49565b90505b90565b600073ffffffffffffffffffffffffffffffffffffffff168373ffffffffffffffffffffffffffffffffffffffff161415613054576040517f08c379a00000000000000000000000000000000000000000000000000000000081526004018080602001828103825260248152602001806144af6024913960400191505060405180910390fd5b600073ffffffffffffffffffffffffffffffffffffffff168273ffffffffffffffffffffffffffffffffffffffff1614156130da576040517f08c379a00000000000000000000000000000000000000000000000000000000081526004018080602001828103825260228152602001806142ee6022913960400191505060405180910390fd5b80600660008573ffffffffffffffffffffffffffffffffffffffff1673ffffffffffffffffffffffffffffffffffffffff16815260200190815260200160002060008473ffffffffffffffffffffffffffffffffffffffff1673ffffffffffffffffffffffffffffffffffffffff168152602001908152602001600020819055508173ffffffffffffffffffffffffffffffffffffffff168373ffffffffffffffffffffffffffffffffffffffff167f8c5be1e5ebec7d5bd14f71427d1e84f3dd0314c0f7b2291e5b200ac8c7c3b925836040518082815260200191505060405180910390a3505050565b600073ffffffffffffffffffffffffffffffffffffffff168373ffffffffffffffffffffffffffffffffffffffff16141561324b576040517f08c379a00000000000000000000000000000000000000000000000000000000081526004018080602001828103825260258152602001806144666025913960400191505060405180910390fd5b600073ffffffffffffffffffffffffffffffffffffffff168273ffffffffffffffffffffffffffffffffffffffff1614156132d1576040517f08c379a00000000000000000000000000000000000000000000000000000000081526004018080602001828103825260238152602001806142a56023913960400191505060405180910390fd5b61333d8160405180606001604052806026815260200161433660269139600560008773ffffffffffffffffffffffffffffffffffffffff1673ffffffffffffffffffffffffffffffffffffffff168152602001908152602001600020546139c59092919063ffffffff16565b600560008573ffffffffffffffffffffffffffffffffffffffff1673ffffffffffffffffffffffffffffffffffffffff168152602001908152602001600020819055506133d281600560008573ffffffffffffffffffffffffffffffffffffffff1673ffffffffffffffffffffffffffffffffffffffff1681526020019081526020016000205461355890919063ffffffff16565b600560008473ffffffffffffffffffffffffffffffffffffffff1673ffffffffffffffffffffffffffffffffffffffff168152602001908152602001600020819055508173ffffffffffffffffffffffffffffffffffffffff168373ffffffffffffffffffffffffffffffffffffffff167fddf252ad1be2c89b69c2b068fc378daa952ba7f163c4a11628f55a4df523b3ef836040518082815260200191505060405180910390a3505050565b600061348c8484846131c5565b61354d84613498612f62565b613548856040518060600160405280602881526020016143d860289139600660008b73ffffffffffffffffffffffffffffffffffffffff1673ffffffffffffffffffffffffffffffffffffffff16815260200190815260200160002060006134fe612f62565b73ffffffffffffffffffffffffffffffffffffffff1673ffffffffffffffffffffffffffffffffffffffff168152602001908152602001600020546139c59092919063ffffffff16565b612fce565b600190509392505050565b6000808284019050838110156135d6576040517f08c379a000000000000000000000000000000000000000000000000000000000815260040180806020018281038252601b8152602001807f536166654d6174683a206164646974696f6e206f766572666c6f77000000000081525060200191505060405180910390fd5b8091505092915050565b60006135f26135ed612f62565b612611565b613647576040517f08c379a000000000000000000000000000000000000000000000000000000000815260040180806020018281038252603081526020018061435c6030913960400191505060405180910390fd5b6136518383613ec1565b6001905092915050565b600061369d83836040518060400160405280601e81526020017f536166654d6174683a207375627472616374696f6e206f766572666c6f7700008152506139c5565b905092915050565b60008060008380602001905160408110156136bf57600080fd5b81019080805190602001909291908051906020019092919050505091509150801561382257600460009054906101000a900473ffffffffffffffffffffffffffffffffffffffff1673ffffffffffffffffffffffffffffffffffffffff166323b872dd83600360009054906101000a900473ffffffffffffffffffffffffffffffffffffffff166002546040518463ffffffff1660e01b8152600401808473ffffffffffffffffffffffffffffffffffffffff1673ffffffffffffffffffffffffffffffffffffffff1681526020018373ffffffffffffffffffffffffffffffffffffffff1673ffffffffffffffffffffffffffffffffffffffff1681526020018281526020019350505050602060405180830381600087803b1580156137e557600080fd5b505af11580156137f9573d6000803e3d6000fd5b505050506040513d602081101561380f57600080fd5b8101908080519060200190929190505050505b600092505050919050565b6000600482018351101561388c576040517f08c379a00000000000000000000000000000000000000000000000000000000081526004018080602001828103825260258152602001806144d36025913960400191505060405180910390fd5b6020820191508183015190507fffffffff000000000000000000000000000000000000000000000000000000008116905080905092915050565b60006138d8836020840260040161407e565b905092915050565b6000606060008391509150915091565b6000606082600b016040518060200160405280600081525091509150915091565b61392581600861409890919063ffffffff16565b8073ffffffffffffffffffffffffffffffffffffffff167f6ae172837ea30b801fbfcdd4108aa1d5bf8ff775444fd70256b44e6bf3dfc3f660405160405180910390a250565b61397f81600861417390919063ffffffff16565b8073ffffffffffffffffffffffffffffffffffffffff167fe94479a9f7e1952cc78f2d6baab678adc1b772d936c6583def489e524cb6669260405160405180910390a250565b6000838311158290613a72576040517f08c379a00000000000000000000000000000000000000000000000000000000081526004018080602001828103825283818151815260200191508051906020019080838360005b83811015613a37578082015181840152602081019050613a1c565b50505050905090810190601f168015613a645780820380516001836020036101000a031916815260200191505b509250505060405180910390fd5b5060008385039050809150509392505050565b6000613a99613a92612f62565b84846131c5565b6001905092915050565b60008073ffffffffffffffffffffffffffffffffffffffff168273ffffffffffffffffffffffffffffffffffffffff161415613b2a576040517f08c379a00000000000000000000000000000000000000000000000000000000081526004018080602001828103825260228152602001806144006022913960400191505060405180910390fd5b8260000160008373ffffffffffffffffffffffffffffffffffffffff1673ffffffffffffffffffffffffffffffffffffffff16815260200190815260200160002060009054906101000a900460ff16905092915050565b600080858060200190516040811015613b9957600080fd5b8101908080519060200190929190805190602001909291905050509150915080613cfb57600460009054906101000a900473ffffffffffffffffffffffffffffffffffffffff1673ffffffffffffffffffffffffffffffffffffffff166323b872dd83600360009054906101000a900473ffffffffffffffffffffffffffffffffffffffff166002546040518463ffffffff1660e01b8152600401808473ffffffffffffffffffffffffffffffffffffffff1673ffffffffffffffffffffffffffffffffffffffff1681526020018373ffffffffffffffffffffffffffffffffffffffff1673ffffffffffffffffffffffffffffffffffffffff1681526020018281526020019350505050602060405180830381600087803b158015613cbe57600080fd5b505af1158015613cd2573d6000803e3d6000fd5b505050506040513d6020811015613ce857600080fd5b8101908080519060200190929190505050505b505050505050565b600073ffffffffffffffffffffffffffffffffffffffff168173ffffffffffffffffffffffffffffffffffffffff161415613d89576040517f08c379a00000000000000000000000000000000000000000000000000000000081526004018080602001828103825260268152602001806142c86026913960400191505060405180910390fd5b8073ffffffffffffffffffffffffffffffffffffffff16600160009054906101000a900473ffffffffffffffffffffffffffffffffffffffff1673ffffffffffffffffffffffffffffffffffffffff167f8be0079c531659141344cd1fd0a4f28419497f9722a3daafe3b4186f6b6457e060405160405180910390a380600160006101000a81548173ffffffffffffffffffffffffffffffffffffffff021916908373ffffffffffffffffffffffffffffffffffffffff16021790555050565b600060606000368080601f016020809104026020016040519081016040528093929190818152602001838380828437600081840152601f19601f820116905080830192505050505050509050600080369050905073ffffffffffffffffffffffffffffffffffffffff81830151169250829250505090565b600073ffffffffffffffffffffffffffffffffffffffff168273ffffffffffffffffffffffffffffffffffffffff161415613f64576040517f08c379a000000000000000000000000000000000000000000000000000000000815260040180806020018281038252601f8152602001807f45524332303a206d696e7420746f20746865207a65726f20616464726573730081525060200191505060405180910390fd5b613f798160075461355890919063ffffffff16565b600781905550613fd181600560008573ffffffffffffffffffffffffffffffffffffffff1673ffffffffffffffffffffffffffffffffffffffff1681526020019081526020016000205461355890919063ffffffff16565b600560008473ffffffffffffffffffffffffffffffffffffffff1673ffffffffffffffffffffffffffffffffffffffff168152602001908152602001600020819055508173ffffffffffffffffffffffffffffffffffffffff16600073ffffffffffffffffffffffffffffffffffffffff167fddf252ad1be2c89b69c2b068fc378daa952ba7f163c4a11628f55a4df523b3ef836040518082815260200191505060405180910390a35050565b600061408a8383614230565b60001c905080905092915050565b6140a28282613aa3565b15614115576040517f08c379a000000000000000000000000000000000000000000000000000000000815260040180806020018281038252601f8152602001807f526f6c65733a206163636f756e7420616c72656164792068617320726f6c650081525060200191505060405180910390fd5b60018260000160008373ffffffffffffffffffffffffffffffffffffffff1673ffffffffffffffffffffffffffffffffffffffff16815260200190815260200160002060006101000a81548160ff0219169083151502179055505050565b61417d8282613aa3565b6141d2576040517f08c379a000000000000000000000000000000000000000000000000000000000815260040180806020018281038252602181526020018061438c6021913960400191505060405180910390fd5b60008260000160008373ffffffffffffffffffffffffffffffffffffffff1673ffffffffffffffffffffffffffffffffffffffff16815260200190815260200160002060006101000a81548160ff0219169083151502179055505050565b6000602082018351101561428f576040517f08c379a00000000000000000000000000000000000000000000000000000000081526004018080602001828103825260268152602001806143106026913960400191505060405180910390fd5b6020820191508183015190508090509291505056fe45524332303a207472616e7366657220746f20746865207a65726f20616464726573734f776e61626c653a206e6577206f776e657220697320746865207a65726f206164647265737345524332303a20617070726f766520746f20746865207a65726f2061646472657373475245415445525f4f525f455155414c5f544f5f33325f4c454e4754485f524551554952454445524332303a207472616e7366657220616d6f756e7420657863656564732062616c616e63654d696e746572526f6c653a2063616c6c657220646f6573206e6f74206861766520746865204d696e74657220726f6c65526f6c65733a206163636f756e7420646f6573206e6f74206861766520726f6c654e6f7420656e6f75676820756e6c6f636b656420746f6b656e2062616c616e6365206f662073656e64657245524332303a207472616e7366657220616d6f756e74206578636565647320616c6c6f77616e6365526f6c65733a206163636f756e7420697320746865207a65726f20616464726573734e6f7420656e6f75676820756e6c6f636b656420746f6b656e2062616c616e636554686520636f6e7472616374206973206e6f7420696e697469616c697a65642079657445524332303a207472616e736665722066726f6d20746865207a65726f206164647265737347534e526563697069656e743a2063616c6c6572206973206e6f742052656c617948756245524332303a20617070726f76652066726f6d20746865207a65726f2061646472657373475245415445525f4f525f455155414c5f544f5f345f4c454e4754485f524551554952454445524332303a2064656372656173656420616c6c6f77616e63652062656c6f77207a65726fa265627a7a723158205d22295c3c9532484b9b5e14915ccfde63408531710205589b29b4b48acb92b964736f6c63430005100032526f6c65733a206163636f756e7420697320746865207a65726f2061646472657373",
  "source": "pragma solidity 0.5.16;\n\nimport \"@openzeppelin/contracts/token/ERC20/ERC20Detailed.sol\";\nimport \"@openzeppelin/contracts/token/ERC20/ERC20Mintable.sol\";\nimport \"@openzeppelin/contracts/math/SafeMath.sol\";\nimport \"./StormXGSNRecipient.sol\";\n\n\ncontract StormXToken is \n  StormXGSNRecipient,         \n  ERC20Mintable, \n  ERC20Detailed(\"StormX\", \"STMX\", 18) {    \n\n  using SafeMath for uint256;\n\n  bool public transfersEnabled;\n  bool public initialized = false;\n  address public validMinter;\n\n  mapping(address => bool) public recipients;\n\n  // Variables for staking feature\n  mapping(address => uint256) public lockedBalanceOf;\n\n  event TokenLocked(address indexed account, uint256 amount);\n  event TokenUnlocked(address indexed account, uint256 amount);\n  event TransfersEnabled(bool newStatus);\n  event ValidMinterAdded(address minter);\n\n  // Testing that GSN is supported properly \n  event GSNRecipientAdded(address recipient);\n  event GSNRecipientDeleted(address recipient);\n\n  modifier transfersAllowed {\n    require(transfersEnabled, \"Transfers not available\");\n    _;\n  }\n  \n  /**\n   * @param reserve address of the StormX's reserve that receives\n   * GSN charged fees and remaining tokens\n   * after the token migration is closed\n   */\n  constructor(address reserve) \n    // solhint-disable-next-line visibility-modifier-order\n    StormXGSNRecipient(address(this), reserve) public { \n      recipients[address(this)] = true;\n      emit GSNRecipientAdded(address(this));\n      transfersEnabled = true;\n    }\n\n  /**\n   * @dev Adds GSN recipient that will charge users in this StormX token\n   * @param recipient address of the new recipient\n   * @return success status of the adding\n   */\n  function addGSNRecipient(address recipient) public onlyOwner returns (bool) {\n    recipients[recipient] = true;\n    emit GSNRecipientAdded(recipient);\n    return true;\n  }\n\n  /**\n   * @dev Deletes a GSN recipient from the list\n   * @param recipient address of the recipient to be deleted\n   * @return success status of the deleting\n   */\n  function deleteGSNRecipient(address recipient) public onlyOwner returns (bool) {\n    recipients[recipient] = false;\n    emit GSNRecipientDeleted(recipient);\n    return true;\n  }\n\n  /**\n   * @param account address of the user this function queries unlocked balance for\n   * @return the amount of unlocked tokens of the given address\n   *         i.e. the amount of manipulable tokens of the given address\n   */\n  function unlockedBalanceOf(address account) public view returns (uint256) {\n    return balanceOf(account).sub(lockedBalanceOf[account]);\n  }\n\n  /**\n   * @dev Locks specified amount of tokens for the user\n   *      Locked tokens are not manipulable until being unlocked\n   *      Locked tokens are still reported as owned by the user \n   *      when ``balanceOf()`` is called\n   * @param amount specified amount of tokens to be locked\n   * @return success status of the locking \n   */\n  function lock(uint256 amount) public returns (bool) {\n    address account = _msgSender();\n    require(unlockedBalanceOf(account) >= amount, \"Not enough unlocked tokens\");\n    lockedBalanceOf[account] = lockedBalanceOf[account].add(amount);\n    emit TokenLocked(account, amount);\n    return true;\n  }\n\n  /**\n   * @dev Unlocks specified amount of tokens for the user\n   *      Unlocked tokens are manipulable until being locked\n   * @param amount specified amount of tokens to be unlocked\n   * @return success status of the unlocking \n   */\n  function unlock(uint256 amount) public returns (bool) {\n    address account = _msgSender();\n    require(lockedBalanceOf[account] >= amount, \"Not enough locked tokens\");\n    lockedBalanceOf[account] = lockedBalanceOf[account].sub(amount);\n    emit TokenUnlocked(account, amount);\n    return true;\n  }\n  \n  /**\n   * @dev The only difference from standard ERC20 ``transferFrom()`` is that\n   *     it only succeeds if the sender has enough unlocked tokens\n   *     Note: this function is also used by every StormXGSNRecipient\n   *           when charging.\n   * @param sender address of the sender\n   * @param recipient address of the recipient\n   * @param amount specified amount of tokens to be transferred\n   * @return success status of the transferring\n   */\n  function transferFrom(address sender, address recipient, uint256 amount) public returns (bool) {\n    require(unlockedBalanceOf(sender) >= amount, \"Not enough unlocked token balance of sender\");\n    // if the msg.sender is charging ``sender`` for a GSN fee\n    // allowance does not apply\n    // so that no user approval is required for GSN calls\n    if (recipients[_msgSender()] == true) {\n      _transfer(sender, recipient, amount);\n      return true;\n    } else {\n      return super.transferFrom(sender, recipient, amount);\n    }\n  }\n\n  /**\n   * @dev The only difference from standard ERC20 ``transfer()`` is that\n   *     it only succeeds if the user has enough unlocked tokens\n   * @param recipient address of the recipient\n   * @param amount specified amount of tokens to be transferred\n   * @return success status of the transferring\n   */\n  function transfer(address recipient, uint256 amount) public returns (bool) {\n    require(unlockedBalanceOf(_msgSender()) >= amount, \"Not enough unlocked token balance\");\n    return super.transfer(recipient, amount);\n  }\n\n  /**\n   * @dev Transfers tokens in batch\n   * @param recipients an array of address of the recipient\n   * @param values an array of specified amount of tokens to be transferred\n   * @return success status of the batch transferring\n   */\n  function transfers(\n    address[] memory recipients, \n    uint256[] memory values\n  ) public transfersAllowed returns (bool) {\n    require(recipients.length == values.length, \"Input lengths do not match\");\n    \n    for (uint256 i = 0; i < recipients.length; i++) {\n      transfer(recipients[i], values[i]);\n    }\n    return true;\n  }\n\n  /**\n   * @dev Enables the method ``transfers()`` if ``enable=true``, \n   * and disables ``transfers()`` otherwise\n   * @param enable the expected new availability of the method ``transfers()``\n   */\n  function enableTransfers(bool enable) public onlyOwner returns (bool) {\n    transfersEnabled = enable;\n    emit TransfersEnabled(enable);\n    return true;\n  }\n\n  function mint(address account, uint256 amount) public onlyMinter returns (bool) {\n    require(initialized, \"The contract is not initialized yet\");\n    require(_msgSender() == validMinter, \"not authorized to mint\");\n    super.mint(account, amount);\n    return true;\n  }\n\n  /**\n   * @dev Initializes this contract\n   *      Sets address ``swap`` as the only valid minter for this token\n   *      Note: must be called before token migration opens in ``Swap.sol``\n   * @param swap address of the deployed contract ``Swap.sol``\n   */\n  function initialize(address swap) public onlyOwner {\n    require(!initialized, \"cannot initialize twice\");\n    require(swap != address(0), \"invalid swap address\");\n    addMinter(swap);\n    validMinter = swap;\n    initialized = true;\n    emit ValidMinterAdded(swap);\n  }\n}\n",
  "sourcePath": "/Users/evaxu/Desktop/stormx-token/contracts/StormXToken.sol",
  "compiler": {
    "name": "solc",
    "version": "0.5.16+commit.9c3226ce.Emscripten.clang"
  },
  "schemaVersion": "3.0.21",
  "updatedAt": "2020-03-23T18:19:00.035Z",
  "networkType": "ethereum",
  "devdoc": {
    "methods": {
      "addGSNRecipient(address)": {
        "details": "Adds GSN recipient that will charge users in this StormX token",
        "params": {
          "recipient": "address of the new recipient"
        },
        "return": "success status of the adding"
      },
      "allowance(address,address)": {
        "details": "See {IERC20-allowance}."
      },
      "approve(address,uint256)": {
        "details": "See {IERC20-approve}.     * Requirements:     * - `spender` cannot be the zero address."
      },
      "balanceOf(address)": {
        "details": "See {IERC20-balanceOf}."
      },
      "constructor": {
        "params": {
          "reserve": "address of the StormX's reserve that receives GSN charged fees and remaining tokens after the token migration is closed"
        }
      },
      "decimals()": {
        "details": "Returns the number of decimals used to get its user representation. For example, if `decimals` equals `2`, a balance of `505` tokens should be displayed to a user as `5,05` (`505 / 10 ** 2`).     * Tokens usually opt for a value of 18, imitating the relationship between Ether and Wei.     * NOTE: This information is only used for _display_ purposes: it in no way affects any of the arithmetic of the contract, including {IERC20-balanceOf} and {IERC20-transfer}."
      },
      "decreaseAllowance(address,uint256)": {
        "details": "Atomically decreases the allowance granted to `spender` by the caller.     * This is an alternative to {approve} that can be used as a mitigation for problems described in {IERC20-approve}.     * Emits an {Approval} event indicating the updated allowance.     * Requirements:     * - `spender` cannot be the zero address. - `spender` must have allowance for the caller of at least `subtractedValue`."
      },
      "deleteGSNRecipient(address)": {
        "details": "Deletes a GSN recipient from the list",
        "params": {
          "recipient": "address of the recipient to be deleted"
        },
        "return": "success status of the deleting"
      },
      "enableTransfers(bool)": {
        "details": "Enables the method ``transfers()`` if ``enable=true``,  and disables ``transfers()`` otherwise",
        "params": {
          "enable": "the expected new availability of the method ``transfers()``"
        }
      },
      "getHubAddr()": {
        "details": "Returns the address of the {IRelayHub} contract for this recipient."
      },
      "increaseAllowance(address,uint256)": {
        "details": "Atomically increases the allowance granted to `spender` by the caller.     * This is an alternative to {approve} that can be used as a mitigation for problems described in {IERC20-approve}.     * Emits an {Approval} event indicating the updated allowance.     * Requirements:     * - `spender` cannot be the zero address."
      },
      "initialize(address)": {
        "details": "Initializes this contract     Sets address ``swap`` as the only valid minter for this token     Note: must be called before token migration opens in ``Swap.sol``",
        "params": {
          "swap": "address of the deployed contract ``Swap.sol``"
        }
      },
      "isOwner()": {
        "details": "Returns true if the caller is the current owner."
      },
      "lock(uint256)": {
        "details": "Locks specified amount of tokens for the user     Locked tokens are not manipulable until being unlocked     Locked tokens are still reported as owned by the user      when ``balanceOf()`` is called",
        "params": {
          "amount": "specified amount of tokens to be locked"
        },
        "return": "success status of the locking "
      },
      "name()": {
        "details": "Returns the name of the token."
      },
      "owner()": {
        "details": "Returns the address of the current owner."
      },
      "postRelayedCall(bytes,bool,uint256,bytes32)": {
        "details": "See `IRelayRecipient.postRelayedCall`.     * This function should not be overriden directly, use `_postRelayedCall` instead.     * * Requirements:     * - the caller must be the `RelayHub` contract."
      },
      "preRelayedCall(bytes)": {
        "details": "See `IRelayRecipient.preRelayedCall`.     * This function should not be overriden directly, use `_preRelayedCall` instead.     * * Requirements:     * - the caller must be the `RelayHub` contract."
      },
      "relayHubVersion()": {
        "details": "Returns the version string of the {IRelayHub} for which this recipient implementation was built. If {_upgradeRelayHub} is used, the new {IRelayHub} instance should be compatible with this version."
      },
      "renounceOwnership()": {
        "details": "Leaves the contract without owner. It will not be possible to call `onlyOwner` functions anymore. Can only be called by the current owner.     * NOTE: Renouncing ownership will leave the contract without an owner, thereby removing any functionality that is only available to the owner."
      },
      "setChargeFee(uint256)": {
        "details": "Sets the charge fee for GSN calls",
        "params": {
          "newFee": "the new charge fee"
        },
        "return": "success status of the setting "
      },
      "setStormXReserve(address)": {
        "details": "Sets the address of StormX's reserve",
        "params": {
          "newReserve": "the new address of StormX's reserve"
        },
        "return": "success status of the setting "
      },
      "symbol()": {
        "details": "Returns the symbol of the token, usually a shorter version of the name."
      },
      "totalSupply()": {
        "details": "See {IERC20-totalSupply}."
      },
      "transfer(address,uint256)": {
        "details": "The only difference from standard ERC20 ``transfer()`` is that    it only succeeds if the user has enough unlocked tokens",
        "params": {
          "amount": "specified amount of tokens to be transferred",
          "recipient": "address of the recipient"
        },
        "return": "success status of the transferring"
      },
      "transferFrom(address,address,uint256)": {
        "details": "The only difference from standard ERC20 ``transferFrom()`` is that    it only succeeds if the sender has enough unlocked tokens    Note: this function is also used by every StormXGSNRecipient          when charging.",
        "params": {
          "amount": "specified amount of tokens to be transferred",
          "recipient": "address of the recipient",
          "sender": "address of the sender"
        },
        "return": "success status of the transferring"
      },
      "transferOwnership(address)": {
        "details": "Transfers ownership of the contract to a new account (`newOwner`). Can only be called by the current owner."
      },
      "transfers(address[],uint256[])": {
        "details": "Transfers tokens in batch",
        "params": {
          "recipients": "an array of address of the recipient",
          "values": "an array of specified amount of tokens to be transferred"
        },
        "return": "success status of the batch transferring"
      },
      "unlock(uint256)": {
        "details": "Unlocks specified amount of tokens for the user     Unlocked tokens are manipulable until being locked",
        "params": {
          "amount": "specified amount of tokens to be unlocked"
        },
        "return": "success status of the unlocking "
      },
      "unlockedBalanceOf(address)": {
        "params": {
          "account": "address of the user this function queries unlocked balance for"
        },
        "return": "the amount of unlocked tokens of the given address        i.e. the amount of manipulable tokens of the given address"
      }
    }
  },
  "userdoc": {
    "methods": {}
  }
}