{
  "contractName": "StormXToken",
  "abi": [
    {
      "inputs": [
        {
          "internalType": "address",
          "name": "reserve",
          "type": "address"
        }
      ],
      "payable": false,
      "stateMutability": "nonpayable",
      "type": "constructor"
    },
    {
      "anonymous": false,
      "inputs": [
        {
          "indexed": true,
          "internalType": "address",
          "name": "owner",
          "type": "address"
        },
        {
          "indexed": true,
          "internalType": "address",
          "name": "spender",
          "type": "address"
        },
        {
          "indexed": false,
          "internalType": "uint256",
          "name": "value",
          "type": "uint256"
        }
      ],
      "name": "Approval",
      "type": "event"
    },
    {
      "anonymous": false,
      "inputs": [
        {
          "indexed": false,
          "internalType": "uint256",
          "name": "newFee",
          "type": "uint256"
        }
      ],
      "name": "ChargeFeeSet",
      "type": "event"
    },
    {
      "anonymous": false,
      "inputs": [
        {
          "indexed": true,
          "internalType": "address",
          "name": "previousOwner",
          "type": "address"
        },
        {
          "indexed": true,
          "internalType": "address",
          "name": "newOwner",
          "type": "address"
        }
      ],
      "name": "OwnershipTransferred",
      "type": "event"
    },
    {
      "anonymous": false,
      "inputs": [
        {
          "indexed": true,
          "internalType": "address",
          "name": "oldRelayHub",
          "type": "address"
        },
        {
          "indexed": true,
          "internalType": "address",
          "name": "newRelayHub",
          "type": "address"
        }
      ],
      "name": "RelayHubChanged",
      "type": "event"
    },
    {
      "anonymous": false,
      "inputs": [
        {
          "indexed": false,
          "internalType": "address",
          "name": "newAddress",
          "type": "address"
        }
      ],
      "name": "StormXReserveSet",
      "type": "event"
    },
    {
      "anonymous": false,
      "inputs": [
        {
          "indexed": false,
          "internalType": "address",
          "name": "swap",
          "type": "address"
        }
      ],
      "name": "SwapAddressAdded",
      "type": "event"
    },
    {
      "anonymous": false,
      "inputs": [
        {
          "indexed": true,
          "internalType": "address",
          "name": "account",
          "type": "address"
        },
        {
          "indexed": false,
          "internalType": "uint256",
          "name": "amount",
          "type": "uint256"
        }
      ],
      "name": "TokenLocked",
      "type": "event"
    },
    {
      "anonymous": false,
      "inputs": [
        {
          "indexed": true,
          "internalType": "address",
          "name": "account",
          "type": "address"
        },
        {
          "indexed": false,
          "internalType": "uint256",
          "name": "amount",
          "type": "uint256"
        }
      ],
      "name": "TokenUnlocked",
      "type": "event"
    },
    {
      "anonymous": false,
      "inputs": [
        {
          "indexed": true,
          "internalType": "address",
          "name": "from",
          "type": "address"
        },
        {
          "indexed": true,
          "internalType": "address",
          "name": "to",
          "type": "address"
        },
        {
          "indexed": false,
          "internalType": "uint256",
          "name": "value",
          "type": "uint256"
        }
      ],
      "name": "Transfer",
      "type": "event"
    },
    {
      "anonymous": false,
      "inputs": [
        {
          "indexed": false,
          "internalType": "bool",
          "name": "newStatus",
          "type": "bool"
        }
      ],
      "name": "TransfersEnabled",
      "type": "event"
    },
    {
      "constant": true,
      "inputs": [
        {
          "internalType": "address",
          "name": "relay",
          "type": "address"
        },
        {
          "internalType": "address",
          "name": "from",
          "type": "address"
        },
        {
          "internalType": "bytes",
          "name": "encodedFunction",
          "type": "bytes"
        },
        {
          "internalType": "uint256",
          "name": "transactionFee",
          "type": "uint256"
        },
        {
          "internalType": "uint256",
          "name": "gasPrice",
          "type": "uint256"
        },
        {
          "internalType": "uint256",
          "name": "gasLimit",
          "type": "uint256"
        },
        {
          "internalType": "uint256",
          "name": "nonce",
          "type": "uint256"
        },
        {
          "internalType": "bytes",
          "name": "approvalData",
          "type": "bytes"
        },
        {
          "internalType": "uint256",
          "name": "maxPossibleCharge",
          "type": "uint256"
        }
      ],
      "name": "acceptRelayedCall",
      "outputs": [
        {
          "internalType": "uint256",
          "name": "",
          "type": "uint256"
        },
        {
          "internalType": "bytes",
          "name": "",
          "type": "bytes"
        }
      ],
      "payable": false,
      "stateMutability": "view",
      "type": "function"
    },
    {
      "constant": true,
      "inputs": [
        {
          "internalType": "address",
          "name": "owner",
          "type": "address"
        },
        {
          "internalType": "address",
          "name": "spender",
          "type": "address"
        }
      ],
      "name": "allowance",
      "outputs": [
        {
          "internalType": "uint256",
          "name": "",
          "type": "uint256"
        }
      ],
      "payable": false,
      "stateMutability": "view",
      "type": "function"
    },
    {
      "constant": false,
      "inputs": [
        {
          "internalType": "address",
          "name": "spender",
          "type": "address"
        },
        {
          "internalType": "uint256",
          "name": "amount",
          "type": "uint256"
        }
      ],
      "name": "approve",
      "outputs": [
        {
          "internalType": "bool",
          "name": "",
          "type": "bool"
        }
      ],
      "payable": false,
      "stateMutability": "nonpayable",
      "type": "function"
    },
    {
      "constant": true,
      "inputs": [
        {
          "internalType": "address",
          "name": "account",
          "type": "address"
        }
      ],
      "name": "balanceOf",
      "outputs": [
        {
          "internalType": "uint256",
          "name": "",
          "type": "uint256"
        }
      ],
      "payable": false,
      "stateMutability": "view",
      "type": "function"
    },
    {
      "constant": true,
      "inputs": [],
      "name": "chargeFee",
      "outputs": [
        {
          "internalType": "uint256",
          "name": "",
          "type": "uint256"
        }
      ],
      "payable": false,
      "stateMutability": "view",
      "type": "function"
    },
    {
      "constant": true,
      "inputs": [],
      "name": "decimals",
      "outputs": [
        {
          "internalType": "uint8",
          "name": "",
          "type": "uint8"
        }
      ],
      "payable": false,
      "stateMutability": "view",
      "type": "function"
    },
    {
      "constant": false,
      "inputs": [
        {
          "internalType": "address",
          "name": "spender",
          "type": "address"
        },
        {
          "internalType": "uint256",
          "name": "subtractedValue",
          "type": "uint256"
        }
      ],
      "name": "decreaseAllowance",
      "outputs": [
        {
          "internalType": "bool",
          "name": "",
          "type": "bool"
        }
      ],
      "payable": false,
      "stateMutability": "nonpayable",
      "type": "function"
    },
    {
      "constant": true,
      "inputs": [],
      "name": "getHubAddr",
      "outputs": [
        {
          "internalType": "address",
          "name": "",
          "type": "address"
        }
      ],
      "payable": false,
      "stateMutability": "view",
      "type": "function"
    },
    {
      "constant": false,
      "inputs": [
        {
          "internalType": "address",
          "name": "spender",
          "type": "address"
        },
        {
          "internalType": "uint256",
          "name": "addedValue",
          "type": "uint256"
        }
      ],
      "name": "increaseAllowance",
      "outputs": [
        {
          "internalType": "bool",
          "name": "",
          "type": "bool"
        }
      ],
      "payable": false,
      "stateMutability": "nonpayable",
      "type": "function"
    },
    {
      "constant": true,
      "inputs": [],
      "name": "initialized",
      "outputs": [
        {
          "internalType": "bool",
          "name": "",
          "type": "bool"
        }
      ],
      "payable": false,
      "stateMutability": "view",
      "type": "function"
    },
    {
      "constant": true,
      "inputs": [],
      "name": "isOwner",
      "outputs": [
        {
          "internalType": "bool",
          "name": "",
          "type": "bool"
        }
      ],
      "payable": false,
      "stateMutability": "view",
      "type": "function"
    },
    {
      "constant": true,
      "inputs": [
        {
          "internalType": "address",
          "name": "",
          "type": "address"
        }
      ],
      "name": "lockedBalanceOf",
      "outputs": [
        {
          "internalType": "uint256",
          "name": "",
          "type": "uint256"
        }
      ],
      "payable": false,
      "stateMutability": "view",
      "type": "function"
    },
    {
      "constant": true,
      "inputs": [],
      "name": "name",
      "outputs": [
        {
          "internalType": "string",
          "name": "",
          "type": "string"
        }
      ],
      "payable": false,
      "stateMutability": "view",
      "type": "function"
    },
    {
      "constant": true,
      "inputs": [],
      "name": "owner",
      "outputs": [
        {
          "internalType": "address",
          "name": "",
          "type": "address"
        }
      ],
      "payable": false,
      "stateMutability": "view",
      "type": "function"
    },
    {
      "constant": false,
      "inputs": [
        {
          "internalType": "bytes",
          "name": "context",
          "type": "bytes"
        },
        {
          "internalType": "bool",
          "name": "success",
          "type": "bool"
        },
        {
          "internalType": "uint256",
          "name": "actualCharge",
          "type": "uint256"
        },
        {
          "internalType": "bytes32",
          "name": "preRetVal",
          "type": "bytes32"
        }
      ],
      "name": "postRelayedCall",
      "outputs": [],
      "payable": false,
      "stateMutability": "nonpayable",
      "type": "function"
    },
    {
      "constant": false,
      "inputs": [
        {
          "internalType": "bytes",
          "name": "context",
          "type": "bytes"
        }
      ],
      "name": "preRelayedCall",
      "outputs": [
        {
          "internalType": "bytes32",
          "name": "",
          "type": "bytes32"
        }
      ],
      "payable": false,
      "stateMutability": "nonpayable",
      "type": "function"
    },
    {
      "constant": true,
      "inputs": [],
      "name": "relayHubVersion",
      "outputs": [
        {
          "internalType": "string",
          "name": "",
          "type": "string"
        }
      ],
      "payable": false,
      "stateMutability": "view",
      "type": "function"
    },
    {
      "constant": false,
      "inputs": [],
      "name": "renounceOwnership",
      "outputs": [],
      "payable": false,
      "stateMutability": "nonpayable",
      "type": "function"
    },
    {
      "constant": false,
      "inputs": [
        {
          "internalType": "uint256",
          "name": "newFee",
          "type": "uint256"
        }
      ],
      "name": "setChargeFee",
      "outputs": [
        {
          "internalType": "bool",
          "name": "",
          "type": "bool"
        }
      ],
      "payable": false,
      "stateMutability": "nonpayable",
      "type": "function"
    },
    {
      "constant": false,
      "inputs": [
        {
          "internalType": "address",
          "name": "newReserve",
          "type": "address"
        }
      ],
      "name": "setStormXReserve",
      "outputs": [
        {
          "internalType": "bool",
          "name": "",
          "type": "bool"
        }
      ],
      "payable": false,
      "stateMutability": "nonpayable",
      "type": "function"
    },
    {
      "constant": true,
      "inputs": [],
      "name": "stormXReserve",
      "outputs": [
        {
          "internalType": "address",
          "name": "",
          "type": "address"
        }
      ],
      "payable": false,
      "stateMutability": "view",
      "type": "function"
    },
    {
      "constant": true,
      "inputs": [],
      "name": "swap",
      "outputs": [
        {
          "internalType": "address",
          "name": "",
          "type": "address"
        }
      ],
      "payable": false,
      "stateMutability": "view",
      "type": "function"
    },
    {
      "constant": true,
      "inputs": [],
      "name": "symbol",
      "outputs": [
        {
          "internalType": "string",
          "name": "",
          "type": "string"
        }
      ],
      "payable": false,
      "stateMutability": "view",
      "type": "function"
    },
    {
      "constant": true,
      "inputs": [],
      "name": "token",
      "outputs": [
        {
          "internalType": "contract IStormXToken",
          "name": "",
          "type": "address"
        }
      ],
      "payable": false,
      "stateMutability": "view",
      "type": "function"
    },
    {
      "constant": true,
      "inputs": [],
      "name": "totalSupply",
      "outputs": [
        {
          "internalType": "uint256",
          "name": "",
          "type": "uint256"
        }
      ],
      "payable": false,
      "stateMutability": "view",
      "type": "function"
    },
    {
      "constant": false,
      "inputs": [
        {
          "internalType": "address",
          "name": "newOwner",
          "type": "address"
        }
      ],
      "name": "transferOwnership",
      "outputs": [],
      "payable": false,
      "stateMutability": "nonpayable",
      "type": "function"
    },
    {
      "constant": true,
      "inputs": [],
      "name": "transfersEnabled",
      "outputs": [
        {
          "internalType": "bool",
          "name": "",
          "type": "bool"
        }
      ],
      "payable": false,
      "stateMutability": "view",
      "type": "function"
    },
    {
      "constant": true,
      "inputs": [
        {
          "internalType": "address",
          "name": "account",
          "type": "address"
        }
      ],
      "name": "unlockedBalanceOf",
      "outputs": [
        {
          "internalType": "uint256",
          "name": "",
          "type": "uint256"
        }
      ],
      "payable": false,
      "stateMutability": "view",
      "type": "function"
    },
    {
      "constant": false,
      "inputs": [
        {
          "internalType": "uint256",
          "name": "amount",
          "type": "uint256"
        }
      ],
      "name": "lock",
      "outputs": [
        {
          "internalType": "bool",
          "name": "",
          "type": "bool"
        }
      ],
      "payable": false,
      "stateMutability": "nonpayable",
      "type": "function"
    },
    {
      "constant": false,
      "inputs": [
        {
          "internalType": "uint256",
          "name": "amount",
          "type": "uint256"
        }
      ],
      "name": "unlock",
      "outputs": [
        {
          "internalType": "bool",
          "name": "",
          "type": "bool"
        }
      ],
      "payable": false,
      "stateMutability": "nonpayable",
      "type": "function"
    },
    {
      "constant": false,
      "inputs": [
        {
          "internalType": "address",
          "name": "sender",
          "type": "address"
        },
        {
          "internalType": "address",
          "name": "recipient",
          "type": "address"
        },
        {
          "internalType": "uint256",
          "name": "amount",
          "type": "uint256"
        }
      ],
      "name": "transferFrom",
      "outputs": [
        {
          "internalType": "bool",
          "name": "",
          "type": "bool"
        }
      ],
      "payable": false,
      "stateMutability": "nonpayable",
      "type": "function"
    },
    {
      "constant": false,
      "inputs": [
        {
          "internalType": "address",
          "name": "recipient",
          "type": "address"
        },
        {
          "internalType": "uint256",
          "name": "amount",
          "type": "uint256"
        }
      ],
      "name": "transfer",
      "outputs": [
        {
          "internalType": "bool",
          "name": "",
          "type": "bool"
        }
      ],
      "payable": false,
      "stateMutability": "nonpayable",
      "type": "function"
    },
    {
      "constant": false,
      "inputs": [
        {
          "internalType": "address[]",
          "name": "recipients",
          "type": "address[]"
        },
        {
          "internalType": "uint256[]",
          "name": "values",
          "type": "uint256[]"
        }
      ],
      "name": "transfers",
      "outputs": [
        {
          "internalType": "bool",
          "name": "",
          "type": "bool"
        }
      ],
      "payable": false,
      "stateMutability": "nonpayable",
      "type": "function"
    },
    {
      "constant": false,
      "inputs": [
        {
          "internalType": "bool",
          "name": "enable",
          "type": "bool"
        }
      ],
      "name": "enableTransfers",
      "outputs": [
        {
          "internalType": "bool",
          "name": "",
          "type": "bool"
        }
      ],
      "payable": false,
      "stateMutability": "nonpayable",
      "type": "function"
    },
    {
      "constant": false,
      "inputs": [
        {
          "internalType": "address",
          "name": "account",
          "type": "address"
        },
        {
          "internalType": "uint256",
          "name": "amount",
          "type": "uint256"
        }
      ],
      "name": "mint",
      "outputs": [],
      "payable": false,
      "stateMutability": "nonpayable",
      "type": "function"
    },
    {
      "constant": false,
      "inputs": [
        {
          "internalType": "address",
          "name": "_swap",
          "type": "address"
        }
      ],
      "name": "initialize",
      "outputs": [],
      "payable": false,
      "stateMutability": "nonpayable",
      "type": "function"
    }
  ],
  "bytecode": "0x608060405273d216153c06e857cd7f72665e0af1d7d82172f4946000806101000a81548173ffffffffffffffffffffffffffffffffffffffff021916908373ffffffffffffffffffffffffffffffffffffffff1602179055506000600a60026101000a81548160ff0219169083151502179055503480156200008057600080fd5b506040516200415e3803806200415e83398181016040526020811015620000a657600080fd5b81019080805190602001909291905050506040518060400160405280600681526020017f53746f726d5800000000000000000000000000000000000000000000000000008152506040518060400160405280600481526020017f53544d5800000000000000000000000000000000000000000000000000000000815250601230846000620001396200040a60201b60201c565b905080600160006101000a81548173ffffffffffffffffffffffffffffffffffffffff021916908373ffffffffffffffffffffffffffffffffffffffff1602179055508073ffffffffffffffffffffffffffffffffffffffff16600073ffffffffffffffffffffffffffffffffffffffff167f8be0079c531659141344cd1fd0a4f28419497f9722a3daafe3b4186f6b6457e060405160405180910390a350600073ffffffffffffffffffffffffffffffffffffffff168273ffffffffffffffffffffffffffffffffffffffff1614156200027c576040517f08c379a00000000000000000000000000000000000000000000000000000000081526004018080602001828103825260158152602001807f496e76616c696420746f6b656e2061646472657373000000000000000000000081525060200191505060405180910390fd5b600073ffffffffffffffffffffffffffffffffffffffff168173ffffffffffffffffffffffffffffffffffffffff16141562000320576040517f08c379a00000000000000000000000000000000000000000000000000000000081526004018080602001828103825260178152602001807f496e76616c69642072657365727665206164647265737300000000000000000081525060200191505060405180910390fd5b81600460006101000a81548173ffffffffffffffffffffffffffffffffffffffff021916908373ffffffffffffffffffffffffffffffffffffffff16021790555080600360006101000a81548173ffffffffffffffffffffffffffffffffffffffff021916908373ffffffffffffffffffffffffffffffffffffffff160217905550678ac7230489e8000060028190555050508260089080519060200190620003cb929190620004f8565b508160099080519060200190620003e4929190620004f8565b5080600a60006101000a81548160ff021916908360ff16021790555050505050620005a7565b60008060009054906101000a900473ffffffffffffffffffffffffffffffffffffffff1673ffffffffffffffffffffffffffffffffffffffff163373ffffffffffffffffffffffffffffffffffffffff16146200046a573390506200047d565b6200047a6200048060201b60201c565b90505b90565b600060606000368080601f016020809104026020016040519081016040528093929190818152602001838380828437600081840152601f19601f820116905080830192505050505050509050600080369050905073ffffffffffffffffffffffffffffffffffffffff81830151169250829250505090565b828054600181600116156101000203166002900490600052602060002090601f016020900481019282601f106200053b57805160ff19168380011785556200056c565b828001600101855582156200056c579182015b828111156200056b5782518255916020019190600101906200054e565b5b5090506200057b91906200057f565b5090565b620005a491905b80821115620005a057600081600090555060010162000586565b5090565b90565b613ba780620005b76000396000f3fe608060405234801561001057600080fd5b506004361061021c5760003560e01c80638119c06511610125578063bef97c87116100ad578063e06e0e221161007c578063e06e0e2214610e56578063ece70b2214610eef578063f2fde38b14610f4b578063f41e60c514610f8f578063fc0c546a14610fd75761021c565b8063bef97c8714610d32578063c4d66de814610d54578063dd46706414610d98578063dd62ed3e14610dde5761021c565b80638f32d59b116100f45780638f32d59b14610b3e57806395d89b4114610b60578063a457c2d714610be3578063a9059cbb14610c49578063ad61ccd514610caf5761021c565b80638119c0651461089157806383947ea0146108db57806384955c8814610a9c5780638da5cb5b14610af45761021c565b806352346412116101a8578063715018a611610177578063715018a614610748578063744c8c091461075257806374e861d6146107705780637f133997146107ba57806380274db7146108045761021c565b806352346412146104ee57806359355736146106525780636198e339146106aa57806370a08231146106f05761021c565b806323b872dd116101ef57806323b872dd1461034a578063313ce567146103d057806339509351146103f457806340c10f191461045a578063516ae993146104a85761021c565b806306fdde0314610221578063095ea7b3146102a4578063158ef93e1461030a57806318160ddd1461032c575b600080fd5b610229611021565b6040518080602001828103825283818151815260200191508051906020019080838360005b8381101561026957808201518184015260208101905061024e565b50505050905090810190601f1680156102965780820380516001836020036101000a031916815260200191505b509250505060405180910390f35b6102f0600480360360408110156102ba57600080fd5b81019080803573ffffffffffffffffffffffffffffffffffffffff169060200190929190803590602001909291905050506110c3565b604051808215151515815260200191505060405180910390f35b6103126110e1565b604051808215151515815260200191505060405180910390f35b6103346110f4565b6040518082815260200191505060405180910390f35b6103b66004803603606081101561036057600080fd5b81019080803573ffffffffffffffffffffffffffffffffffffffff169060200190929190803573ffffffffffffffffffffffffffffffffffffffff169060200190929190803590602001909291905050506110fe565b604051808215151515815260200191505060405180910390f35b6103d8611224565b604051808260ff1660ff16815260200191505060405180910390f35b6104406004803603604081101561040a57600080fd5b81019080803573ffffffffffffffffffffffffffffffffffffffff1690602001909291908035906020019092919050505061123b565b604051808215151515815260200191505060405180910390f35b6104a66004803603604081101561047057600080fd5b81019080803573ffffffffffffffffffffffffffffffffffffffff169060200190929190803590602001909291905050506112ee565b005b6104d4600480360360208110156104be57600080fd5b810190808035906020019092919050505061142b565b604051808215151515815260200191505060405180910390f35b6106386004803603604081101561050457600080fd5b810190808035906020019064010000000081111561052157600080fd5b82018360208201111561053357600080fd5b8035906020019184602083028401116401000000008311171561055557600080fd5b919080806020026020016040519081016040528093929190818152602001838360200280828437600081840152601f19601f820116905080830192505050505050509192919290803590602001906401000000008111156105b557600080fd5b8201836020820111156105c757600080fd5b803590602001918460208302840111640100000000831117156105e957600080fd5b919080806020026020016040519081016040528093929190818152602001838360200280828437600081840152601f19601f8201169050808301925050505050505091929192905050506114ee565b604051808215151515815260200191505060405180910390f35b6106946004803603602081101561066857600080fd5b81019080803573ffffffffffffffffffffffffffffffffffffffff169060200190929190505050611641565b6040518082815260200191505060405180910390f35b6106d6600480360360208110156106c057600080fd5b8101908080359060200190929190505050611659565b604051808215151515815260200191505060405180910390f35b6107326004803603602081101561070657600080fd5b81019080803573ffffffffffffffffffffffffffffffffffffffff169060200190929190505050611808565b6040518082815260200191505060405180910390f35b610750611851565b005b61075a61198c565b6040518082815260200191505060405180910390f35b610778611992565b604051808273ffffffffffffffffffffffffffffffffffffffff1673ffffffffffffffffffffffffffffffffffffffff16815260200191505060405180910390f35b6107c26119bb565b604051808273ffffffffffffffffffffffffffffffffffffffff1673ffffffffffffffffffffffffffffffffffffffff16815260200191505060405180910390f35b61087b6004803603602081101561081a57600080fd5b810190808035906020019064010000000081111561083757600080fd5b82018360208201111561084957600080fd5b8035906020019184600183028401116401000000008311171561086b57600080fd5b90919293919293905050506119e1565b6040518082815260200191505060405180910390f35b610899611ac3565b604051808273ffffffffffffffffffffffffffffffffffffffff1673ffffffffffffffffffffffffffffffffffffffff16815260200191505060405180910390f35b610a1a60048036036101208110156108f257600080fd5b81019080803573ffffffffffffffffffffffffffffffffffffffff169060200190929190803573ffffffffffffffffffffffffffffffffffffffff1690602001909291908035906020019064010000000081111561094f57600080fd5b82018360208201111561096157600080fd5b8035906020019184600183028401116401000000008311171561098357600080fd5b909192939192939080359060200190929190803590602001909291908035906020019092919080359060200190929190803590602001906401000000008111156109cc57600080fd5b8201836020820111156109de57600080fd5b80359060200191846001830284011164010000000083111715610a0057600080fd5b909192939192939080359060200190929190505050611ae9565b6040518083815260200180602001828103825283818151815260200191508051906020019080838360005b83811015610a60578082015181840152602081019050610a45565b50505050905090810190601f168015610a8d5780820380516001836020036101000a031916815260200191505b50935050505060405180910390f35b610ade60048036036020811015610ab257600080fd5b81019080803573ffffffffffffffffffffffffffffffffffffffff169060200190929190505050611bd4565b6040518082815260200191505060405180910390f35b610afc611c37565b604051808273ffffffffffffffffffffffffffffffffffffffff1673ffffffffffffffffffffffffffffffffffffffff16815260200191505060405180910390f35b610b46611c61565b604051808215151515815260200191505060405180910390f35b610b68611cc0565b6040518080602001828103825283818151815260200191508051906020019080838360005b83811015610ba8578082015181840152602081019050610b8d565b50505050905090810190601f168015610bd55780820380516001836020036101000a031916815260200191505b509250505060405180910390f35b610c2f60048036036040811015610bf957600080fd5b81019080803573ffffffffffffffffffffffffffffffffffffffff16906020019092919080359060200190929190505050611d62565b604051808215151515815260200191505060405180910390f35b610c9560048036036040811015610c5f57600080fd5b81019080803573ffffffffffffffffffffffffffffffffffffffff16906020019092919080359060200190929190505050611e2f565b604051808215151515815260200191505060405180910390f35b610cb7611eab565b6040518080602001828103825283818151815260200191508051906020019080838360005b83811015610cf7578082015181840152602081019050610cdc565b50505050905090810190601f168015610d245780820380516001836020036101000a031916815260200191505b509250505060405180910390f35b610d3a611ee8565b604051808215151515815260200191505060405180910390f35b610d9660048036036020811015610d6a57600080fd5b81019080803573ffffffffffffffffffffffffffffffffffffffff169060200190929190505050611efb565b005b610dc460048036036020811015610dae57600080fd5b81019080803590602001909291905050506121b4565b604051808215151515815260200191505060405180910390f35b610e4060048036036040811015610df457600080fd5b81019080803573ffffffffffffffffffffffffffffffffffffffff169060200190929190803573ffffffffffffffffffffffffffffffffffffffff16906020019092919050505061232c565b6040518082815260200191505060405180910390f35b610eed60048036036080811015610e6c57600080fd5b8101908080359060200190640100000000811115610e8957600080fd5b820183602082011115610e9b57600080fd5b80359060200191846001830284011164010000000083111715610ebd57600080fd5b909192939192939080351515906020019092919080359060200190929190803590602001909291905050506123b3565b005b610f3160048036036020811015610f0557600080fd5b81019080803573ffffffffffffffffffffffffffffffffffffffff169060200190929190505050612495565b604051808215151515815260200191505060405180910390f35b610f8d60048036036020811015610f6157600080fd5b81019080803573ffffffffffffffffffffffffffffffffffffffff169060200190929190505050612661565b005b610fbd60048036036020811015610fa557600080fd5b810190808035151590602001909291905050506126e7565b604051808215151515815260200191505060405180910390f35b610fdf6127c1565b604051808273ffffffffffffffffffffffffffffffffffffffff1673ffffffffffffffffffffffffffffffffffffffff16815260200191505060405180910390f35b606060088054600181600116156101000203166002900480601f0160208091040260200160405190810160405280929190818152602001828054600181600116156101000203166002900480156110b95780601f1061108e576101008083540402835291602001916110b9565b820191906000526020600020905b81548152906001019060200180831161109c57829003601f168201915b5050505050905090565b60006110d76110d06127e7565b8484612853565b6001905092915050565b600a60029054906101000a900460ff1681565b6000600754905090565b60008161110a85611bd4565b1015611161576040517f08c379a000000000000000000000000000000000000000000000000000000000815260040180806020018281038252602b815260200180613a25602b913960400191505060405180910390fd5b3073ffffffffffffffffffffffffffffffffffffffff166111806127e7565b73ffffffffffffffffffffffffffffffffffffffff1614806111f65750600a60039054906101000a900473ffffffffffffffffffffffffffffffffffffffff1673ffffffffffffffffffffffffffffffffffffffff166111de6127e7565b73ffffffffffffffffffffffffffffffffffffffff16145b1561120f57611206848484612a4a565b6001905061121d565b61121a848484612d04565b90505b9392505050565b6000600a60009054906101000a900460ff16905090565b60006112e46112486127e7565b846112df85600660006112596127e7565b73ffffffffffffffffffffffffffffffffffffffff1673ffffffffffffffffffffffffffffffffffffffff16815260200190815260200160002060008973ffffffffffffffffffffffffffffffffffffffff1673ffffffffffffffffffffffffffffffffffffffff16815260200190815260200160002054612ddd90919063ffffffff16565b612853565b6001905092915050565b600a60029054906101000a900460ff16611353576040517f08c379a0000000000000000000000000000000000000000000000000000000008152600401808060200182810382526023815260200180613a996023913960400191505060405180910390fd5b600a60039054906101000a900473ffffffffffffffffffffffffffffffffffffffff1673ffffffffffffffffffffffffffffffffffffffff166113946127e7565b73ffffffffffffffffffffffffffffffffffffffff161461141d576040517f08c379a00000000000000000000000000000000000000000000000000000000081526004018080602001828103825260168152602001807f6e6f7420617574686f72697a656420746f206d696e740000000000000000000081525060200191505060405180910390fd5b6114278282612e65565b5050565b6000611435611c61565b6114a7576040517f08c379a00000000000000000000000000000000000000000000000000000000081526004018080602001828103825260208152602001807f4f776e61626c653a2063616c6c6572206973206e6f7420746865206f776e657281525060200191505060405180910390fd5b816002819055507fe43cbc6e431335d3c8bed1088480303872cac29a9dad5607362b82bfa2cd6d24826040518082815260200191505060405180910390a160019050919050565b6000600a60019054906101000a900460ff16611572576040517f08c379a00000000000000000000000000000000000000000000000000000000081526004018080602001828103825260178152602001807f5472616e7366657273206e6f7420617661696c61626c6500000000000000000081525060200191505060405180910390fd5b81518351146115e9576040517f08c379a000000000000000000000000000000000000000000000000000000000815260040180806020018281038252601a8152602001807f496e707574206c656e6774687320646f206e6f74206d6174636800000000000081525060200191505060405180910390fd5b60008090505b83518110156116365761162884828151811061160757fe5b602002602001015184838151811061161b57fe5b6020026020010151611e2f565b5080806001019150506115ef565b506001905092915050565b600b6020528060005260406000206000915090505481565b6000806116646127e7565b905082600b60008373ffffffffffffffffffffffffffffffffffffffff1673ffffffffffffffffffffffffffffffffffffffff16815260200190815260200160002054101561171b576040517f08c379a00000000000000000000000000000000000000000000000000000000081526004018080602001828103825260188152602001807f4e6f7420656e6f756768206c6f636b656420746f6b656e73000000000000000081525060200191505060405180910390fd5b61176d83600b60008473ffffffffffffffffffffffffffffffffffffffff1673ffffffffffffffffffffffffffffffffffffffff1681526020019081526020016000205461302290919063ffffffff16565b600b60008373ffffffffffffffffffffffffffffffffffffffff1673ffffffffffffffffffffffffffffffffffffffff168152602001908152602001600020819055508073ffffffffffffffffffffffffffffffffffffffff167f613edbda9d1e6bda8af8e869a973f88cccf93854a11f351589038de07e1ab4e3846040518082815260200191505060405180910390a26001915050919050565b6000600560008373ffffffffffffffffffffffffffffffffffffffff1673ffffffffffffffffffffffffffffffffffffffff168152602001908152602001600020549050919050565b611859611c61565b6118cb576040517f08c379a00000000000000000000000000000000000000000000000000000000081526004018080602001828103825260208152602001807f4f776e61626c653a2063616c6c6572206973206e6f7420746865206f776e657281525060200191505060405180910390fd5b600073ffffffffffffffffffffffffffffffffffffffff16600160009054906101000a900473ffffffffffffffffffffffffffffffffffffffff1673ffffffffffffffffffffffffffffffffffffffff167f8be0079c531659141344cd1fd0a4f28419497f9722a3daafe3b4186f6b6457e060405160405180910390a36000600160006101000a81548173ffffffffffffffffffffffffffffffffffffffff021916908373ffffffffffffffffffffffffffffffffffffffff160217905550565b60025481565b60008060009054906101000a900473ffffffffffffffffffffffffffffffffffffffff16905090565b600360009054906101000a900473ffffffffffffffffffffffffffffffffffffffff1681565b60006119eb611992565b73ffffffffffffffffffffffffffffffffffffffff163373ffffffffffffffffffffffffffffffffffffffff1614611a6e576040517f08c379a0000000000000000000000000000000000000000000000000000000008152600401808060200182810382526024815260200180613ae16024913960400191505060405180910390fd5b611abb83838080601f016020809104026020016040519081016040528093929190818152602001838380828437600081840152601f19601f8201169050808301925050505050505061306c565b905092915050565b600a60039054906101000a900473ffffffffffffffffffffffffffffffffffffffff1681565b60006060600080611b3e8e8e8e8080601f016020809104026020016040519081016040528093929190818152602001838380828437600081840152601f19601f820116905080830192505050505050506131f4565b915091508115611bb357611ba88e82604051602001808373ffffffffffffffffffffffffffffffffffffffff1673ffffffffffffffffffffffffffffffffffffffff16815260200182151515158152602001925050506040516020818303038152906040526133dd565b935093505050611bc4565b611bbd600b6133ed565b9350935050505b9b509b9950505050505050505050565b6000611c30600b60008473ffffffffffffffffffffffffffffffffffffffff1673ffffffffffffffffffffffffffffffffffffffff16815260200190815260200160002054611c2284611808565b61302290919063ffffffff16565b9050919050565b6000600160009054906101000a900473ffffffffffffffffffffffffffffffffffffffff16905090565b6000600160009054906101000a900473ffffffffffffffffffffffffffffffffffffffff1673ffffffffffffffffffffffffffffffffffffffff16611ca46127e7565b73ffffffffffffffffffffffffffffffffffffffff1614905090565b606060098054600181600116156101000203166002900480601f016020809104026020016040519081016040528092919081815260200182805460018160011615610100020316600290048015611d585780601f10611d2d57610100808354040283529160200191611d58565b820191906000526020600020905b815481529060010190602001808311611d3b57829003601f168201915b5050505050905090565b6000611e25611d6f6127e7565b84611e2085604051806060016040528060258152602001613b4e6025913960066000611d996127e7565b73ffffffffffffffffffffffffffffffffffffffff1673ffffffffffffffffffffffffffffffffffffffff16815260200190815260200160002060008a73ffffffffffffffffffffffffffffffffffffffff1673ffffffffffffffffffffffffffffffffffffffff1681526020019081526020016000205461340e9092919063ffffffff16565b612853565b6001905092915050565b600081611e42611e3d6127e7565b611bd4565b1015611e99576040517f08c379a0000000000000000000000000000000000000000000000000000000008152600401808060200182810382526021815260200180613a786021913960400191505060405180910390fd5b611ea383836134ce565b905092915050565b60606040518060400160405280600581526020017f312e302e30000000000000000000000000000000000000000000000000000000815250905090565b600a60019054906101000a900460ff1681565b611f03611c61565b611f75576040517f08c379a00000000000000000000000000000000000000000000000000000000081526004018080602001828103825260208152602001807f4f776e61626c653a2063616c6c6572206973206e6f7420746865206f776e657281525060200191505060405180910390fd5b600a60029054906101000a900460ff1615611ff8576040517f08c379a00000000000000000000000000000000000000000000000000000000081526004018080602001828103825260178152602001807f63616e6e6f7420696e697469616c697a6520747769636500000000000000000081525060200191505060405180910390fd5b600073ffffffffffffffffffffffffffffffffffffffff168173ffffffffffffffffffffffffffffffffffffffff16141561209b576040517f08c379a00000000000000000000000000000000000000000000000000000000081526004018080602001828103825260148152602001807f696e76616c69642073776170206164647265737300000000000000000000000081525060200191505060405180910390fd5b80600a60036101000a81548173ffffffffffffffffffffffffffffffffffffffff021916908373ffffffffffffffffffffffffffffffffffffffff1602179055506001600a60016101000a81548160ff0219169083151502179055507f2cac12335272569cae3b5eead61f36da81730100604965d574b896ad69c991536001604051808215151515815260200191505060405180910390a16001600a60026101000a81548160ff0219169083151502179055507f78aeb0bef1108b02c5ce01e4d85d557f8dadb35e6c6b633d539a07d9b832c26a81604051808273ffffffffffffffffffffffffffffffffffffffff1673ffffffffffffffffffffffffffffffffffffffff16815260200191505060405180910390a150565b6000806121bf6127e7565b9050826121cb82611bd4565b101561223f576040517f08c379a000000000000000000000000000000000000000000000000000000000815260040180806020018281038252601a8152602001807f4e6f7420656e6f75676820756e6c6f636b656420746f6b656e7300000000000081525060200191505060405180910390fd5b61229183600b60008473ffffffffffffffffffffffffffffffffffffffff1673ffffffffffffffffffffffffffffffffffffffff16815260200190815260200160002054612ddd90919063ffffffff16565b600b60008373ffffffffffffffffffffffffffffffffffffffff1673ffffffffffffffffffffffffffffffffffffffff168152602001908152602001600020819055508073ffffffffffffffffffffffffffffffffffffffff167ff9626bca62c59d77fa45a204dc096874ee066a5c5e124aa9ce6c438dbdf7387a846040518082815260200191505060405180910390a26001915050919050565b6000600660008473ffffffffffffffffffffffffffffffffffffffff1673ffffffffffffffffffffffffffffffffffffffff16815260200190815260200160002060008373ffffffffffffffffffffffffffffffffffffffff1673ffffffffffffffffffffffffffffffffffffffff16815260200190815260200160002054905092915050565b6123bb611992565b73ffffffffffffffffffffffffffffffffffffffff163373ffffffffffffffffffffffffffffffffffffffff161461243e576040517f08c379a0000000000000000000000000000000000000000000000000000000008152600401808060200182810382526024815260200180613ae16024913960400191505060405180910390fd5b61248e85858080601f016020809104026020016040519081016040528093929190818152602001838380828437600081840152601f19601f820116905080830192505050505050508484846134ec565b5050505050565b600061249f611c61565b612511576040517f08c379a00000000000000000000000000000000000000000000000000000000081526004018080602001828103825260208152602001807f4f776e61626c653a2063616c6c6572206973206e6f7420746865206f776e657281525060200191505060405180910390fd5b600073ffffffffffffffffffffffffffffffffffffffff168273ffffffffffffffffffffffffffffffffffffffff1614156125b4576040517f08c379a00000000000000000000000000000000000000000000000000000000081526004018080602001828103825260178152602001807f496e76616c69642072657365727665206164647265737300000000000000000081525060200191505060405180910390fd5b81600360006101000a81548173ffffffffffffffffffffffffffffffffffffffff021916908373ffffffffffffffffffffffffffffffffffffffff1602179055507f2d9c1b8b9564d60efd2f7c8a3742a514dae67760a74c804271e63b17420d100d82604051808273ffffffffffffffffffffffffffffffffffffffff1673ffffffffffffffffffffffffffffffffffffffff16815260200191505060405180910390a160019050919050565b612669611c61565b6126db576040517f08c379a00000000000000000000000000000000000000000000000000000000081526004018080602001828103825260208152602001807f4f776e61626c653a2063616c6c6572206973206e6f7420746865206f776e657281525060200191505060405180910390fd5b6126e48161366e565b50565b60006126f1611c61565b612763576040517f08c379a00000000000000000000000000000000000000000000000000000000081526004018080602001828103825260208152602001807f4f776e61626c653a2063616c6c6572206973206e6f7420746865206f776e657281525060200191505060405180910390fd5b81600a60016101000a81548160ff0219169083151502179055507f2cac12335272569cae3b5eead61f36da81730100604965d574b896ad69c9915382604051808215151515815260200191505060405180910390a160019050919050565b600460009054906101000a900473ffffffffffffffffffffffffffffffffffffffff1681565b60008060009054906101000a900473ffffffffffffffffffffffffffffffffffffffff1673ffffffffffffffffffffffffffffffffffffffff163373ffffffffffffffffffffffffffffffffffffffff161461284557339050612850565b61284d6137b4565b90505b90565b600073ffffffffffffffffffffffffffffffffffffffff168373ffffffffffffffffffffffffffffffffffffffff1614156128d9576040517f08c379a0000000000000000000000000000000000000000000000000000000008152600401808060200182810382526024815260200180613b056024913960400191505060405180910390fd5b600073ffffffffffffffffffffffffffffffffffffffff168273ffffffffffffffffffffffffffffffffffffffff16141561295f576040517f08c379a00000000000000000000000000000000000000000000000000000000081526004018080602001828103825260228152602001806139b76022913960400191505060405180910390fd5b80600660008573ffffffffffffffffffffffffffffffffffffffff1673ffffffffffffffffffffffffffffffffffffffff16815260200190815260200160002060008473ffffffffffffffffffffffffffffffffffffffff1673ffffffffffffffffffffffffffffffffffffffff168152602001908152602001600020819055508173ffffffffffffffffffffffffffffffffffffffff168373ffffffffffffffffffffffffffffffffffffffff167f8c5be1e5ebec7d5bd14f71427d1e84f3dd0314c0f7b2291e5b200ac8c7c3b925836040518082815260200191505060405180910390a3505050565b600073ffffffffffffffffffffffffffffffffffffffff168373ffffffffffffffffffffffffffffffffffffffff161415612ad0576040517f08c379a0000000000000000000000000000000000000000000000000000000008152600401808060200182810382526025815260200180613abc6025913960400191505060405180910390fd5b600073ffffffffffffffffffffffffffffffffffffffff168273ffffffffffffffffffffffffffffffffffffffff161415612b56576040517f08c379a000000000000000000000000000000000000000000000000000000000815260040180806020018281038252602381526020018061396e6023913960400191505060405180910390fd5b612bc2816040518060600160405280602681526020016139ff60269139600560008773ffffffffffffffffffffffffffffffffffffffff1673ffffffffffffffffffffffffffffffffffffffff1681526020019081526020016000205461340e9092919063ffffffff16565b600560008573ffffffffffffffffffffffffffffffffffffffff1673ffffffffffffffffffffffffffffffffffffffff16815260200190815260200160002081905550612c5781600560008573ffffffffffffffffffffffffffffffffffffffff1673ffffffffffffffffffffffffffffffffffffffff16815260200190815260200160002054612ddd90919063ffffffff16565b600560008473ffffffffffffffffffffffffffffffffffffffff1673ffffffffffffffffffffffffffffffffffffffff168152602001908152602001600020819055508173ffffffffffffffffffffffffffffffffffffffff168373ffffffffffffffffffffffffffffffffffffffff167fddf252ad1be2c89b69c2b068fc378daa952ba7f163c4a11628f55a4df523b3ef836040518082815260200191505060405180910390a3505050565b6000612d11848484612a4a565b612dd284612d1d6127e7565b612dcd85604051806060016040528060288152602001613a5060289139600660008b73ffffffffffffffffffffffffffffffffffffffff1673ffffffffffffffffffffffffffffffffffffffff1681526020019081526020016000206000612d836127e7565b73ffffffffffffffffffffffffffffffffffffffff1673ffffffffffffffffffffffffffffffffffffffff1681526020019081526020016000205461340e9092919063ffffffff16565b612853565b600190509392505050565b600080828401905083811015612e5b576040517f08c379a000000000000000000000000000000000000000000000000000000000815260040180806020018281038252601b8152602001807f536166654d6174683a206164646974696f6e206f766572666c6f77000000000081525060200191505060405180910390fd5b8091505092915050565b600073ffffffffffffffffffffffffffffffffffffffff168273ffffffffffffffffffffffffffffffffffffffff161415612f08576040517f08c379a000000000000000000000000000000000000000000000000000000000815260040180806020018281038252601f8152602001807f45524332303a206d696e7420746f20746865207a65726f20616464726573730081525060200191505060405180910390fd5b612f1d81600754612ddd90919063ffffffff16565b600781905550612f7581600560008573ffffffffffffffffffffffffffffffffffffffff1673ffffffffffffffffffffffffffffffffffffffff16815260200190815260200160002054612ddd90919063ffffffff16565b600560008473ffffffffffffffffffffffffffffffffffffffff1673ffffffffffffffffffffffffffffffffffffffff168152602001908152602001600020819055508173ffffffffffffffffffffffffffffffffffffffff16600073ffffffffffffffffffffffffffffffffffffffff167fddf252ad1be2c89b69c2b068fc378daa952ba7f163c4a11628f55a4df523b3ef836040518082815260200191505060405180910390a35050565b600061306483836040518060400160405280601e81526020017f536166654d6174683a207375627472616374696f6e206f766572666c6f77000081525061340e565b905092915050565b600080600083806020019051604081101561308657600080fd5b8101908080519060200190929190805190602001909291905050509150915080156131e957600460009054906101000a900473ffffffffffffffffffffffffffffffffffffffff1673ffffffffffffffffffffffffffffffffffffffff166323b872dd83600360009054906101000a900473ffffffffffffffffffffffffffffffffffffffff166002546040518463ffffffff1660e01b8152600401808473ffffffffffffffffffffffffffffffffffffffff1673ffffffffffffffffffffffffffffffffffffffff1681526020018373ffffffffffffffffffffffffffffffffffffffff1673ffffffffffffffffffffffffffffffffffffffff1681526020018281526020019350505050602060405180830381600087803b1580156131ac57600080fd5b505af11580156131c0573d6000803e3d6000fd5b505050506040513d60208110156131d657600080fd5b8101908080519060200190929190505050505b600092505050919050565b6000806000600190506000600460009054906101000a900473ffffffffffffffffffffffffffffffffffffffff1673ffffffffffffffffffffffffffffffffffffffff166384955c88876040518263ffffffff1660e01b8152600401808273ffffffffffffffffffffffffffffffffffffffff1673ffffffffffffffffffffffffffffffffffffffff16815260200191505060206040518083038186803b15801561329e57600080fd5b505afa1580156132b2573d6000803e3d6000fd5b505050506040513d60208110156132c857600080fd5b810190808051906020019092919050505090506002548110156133cc5760006132f286600061382c565b905060405180807f636f6e766572742875696e743235362900000000000000000000000000000000815250601001905060405180910390207bffffffffffffffffffffffffffffffffffffffffffffffffffffffff1916817bffffffffffffffffffffffffffffffffffffffffffffffffffffffff191614156133bd57600061338e836133808960006138c5565b612ddd90919063ffffffff16565b905060025481106133ad576000935060018495509550505050506133d6565b60008495509550505050506133d6565b600083945094505050506133d6565b6001829350935050505b9250929050565b6000606060008391509150915091565b6000606082600b016040518060200160405280600081525091509150915091565b60008383111582906134bb576040517f08c379a00000000000000000000000000000000000000000000000000000000081526004018080602001828103825283818151815260200191508051906020019080838360005b83811015613480578082015181840152602081019050613465565b50505050905090810190601f1680156134ad5780820380516001836020036101000a031916815260200191505b509250505060405180910390fd5b5060008385039050809150509392505050565b60006134e26134db6127e7565b8484612a4a565b6001905092915050565b60008085806020019051604081101561350457600080fd5b810190808051906020019092919080519060200190929190505050915091508061366657600460009054906101000a900473ffffffffffffffffffffffffffffffffffffffff1673ffffffffffffffffffffffffffffffffffffffff166323b872dd83600360009054906101000a900473ffffffffffffffffffffffffffffffffffffffff166002546040518463ffffffff1660e01b8152600401808473ffffffffffffffffffffffffffffffffffffffff1673ffffffffffffffffffffffffffffffffffffffff1681526020018373ffffffffffffffffffffffffffffffffffffffff1673ffffffffffffffffffffffffffffffffffffffff1681526020018281526020019350505050602060405180830381600087803b15801561362957600080fd5b505af115801561363d573d6000803e3d6000fd5b505050506040513d602081101561365357600080fd5b8101908080519060200190929190505050505b505050505050565b600073ffffffffffffffffffffffffffffffffffffffff168173ffffffffffffffffffffffffffffffffffffffff1614156136f4576040517f08c379a00000000000000000000000000000000000000000000000000000000081526004018080602001828103825260268152602001806139916026913960400191505060405180910390fd5b8073ffffffffffffffffffffffffffffffffffffffff16600160009054906101000a900473ffffffffffffffffffffffffffffffffffffffff1673ffffffffffffffffffffffffffffffffffffffff167f8be0079c531659141344cd1fd0a4f28419497f9722a3daafe3b4186f6b6457e060405160405180910390a380600160006101000a81548173ffffffffffffffffffffffffffffffffffffffff021916908373ffffffffffffffffffffffffffffffffffffffff16021790555050565b600060606000368080601f016020809104026020016040519081016040528093929190818152602001838380828437600081840152601f19601f820116905080830192505050505050509050600080369050905073ffffffffffffffffffffffffffffffffffffffff81830151169250829250505090565b6000600482018351101561388b576040517f08c379a0000000000000000000000000000000000000000000000000000000008152600401808060200182810382526025815260200180613b296025913960400191505060405180910390fd5b6020820191508183015190507fffffffff000000000000000000000000000000000000000000000000000000008116905080905092915050565b60006138d783602084026004016138df565b905092915050565b60006138eb83836138f9565b60001c905080905092915050565b60006020820183511015613958576040517f08c379a00000000000000000000000000000000000000000000000000000000081526004018080602001828103825260268152602001806139d96026913960400191505060405180910390fd5b6020820191508183015190508090509291505056fe45524332303a207472616e7366657220746f20746865207a65726f20616464726573734f776e61626c653a206e6577206f776e657220697320746865207a65726f206164647265737345524332303a20617070726f766520746f20746865207a65726f2061646472657373475245415445525f4f525f455155414c5f544f5f33325f4c454e4754485f524551554952454445524332303a207472616e7366657220616d6f756e7420657863656564732062616c616e63654e6f7420656e6f75676820756e6c6f636b656420746f6b656e2062616c616e6365206f662073656e64657245524332303a207472616e7366657220616d6f756e74206578636565647320616c6c6f77616e63654e6f7420656e6f75676820756e6c6f636b656420746f6b656e2062616c616e636554686520636f6e7472616374206973206e6f7420696e697469616c697a65642079657445524332303a207472616e736665722066726f6d20746865207a65726f206164647265737347534e526563697069656e743a2063616c6c6572206973206e6f742052656c617948756245524332303a20617070726f76652066726f6d20746865207a65726f2061646472657373475245415445525f4f525f455155414c5f544f5f345f4c454e4754485f524551554952454445524332303a2064656372656173656420616c6c6f77616e63652062656c6f77207a65726fa265627a7a72315820e41727cfd3428080260d0000447e2c22a5b7b2ad4d610346530026d5d047c8fd64736f6c63430005100032",
  "source": "pragma solidity 0.5.16;\n\nimport \"@openzeppelin/contracts/token/ERC20/ERC20Detailed.sol\";\nimport \"@openzeppelin/contracts/token/ERC20/ERC20.sol\";\nimport \"@openzeppelin/contracts/math/SafeMath.sol\";\nimport \"./StormXGSNRecipient.sol\";\n\n\ncontract StormXToken is\n  StormXGSNRecipient,\n  ERC20,\n  ERC20Detailed(\"StormX\", \"STMX\", 18) {\n\n  using SafeMath for uint256;\n\n  bool public transfersEnabled;\n  bool public initialized = false;\n  address public swap;\n\n  // Variables for staking feature\n  mapping(address => uint256) public lockedBalanceOf;\n\n  event TokenLocked(address indexed account, uint256 amount);\n  event TokenUnlocked(address indexed account, uint256 amount);\n  event TransfersEnabled(bool newStatus);\n  event SwapAddressAdded(address swap);\n\n  modifier transfersAllowed {\n    require(transfersEnabled, \"Transfers not available\");\n    _;\n  }\n\n  /**\n   * @param reserve address of the StormX's reserve that receives GSN charge fee\n   * GSN charged fees and remaining tokens\n   * after the token migration is closed\n   */\n  constructor(address reserve)\n    // solhint-disable-next-line visibility-modifier-order\n    StormXGSNRecipient(address(this), reserve) public {\n    }\n\n  /**\n   * @param account address of the user this function queries unlocked balance for\n   * @return the amount of unlocked tokens of the given address\n   *         i.e. the amount of manipulable tokens of the given address\n   */\n  function unlockedBalanceOf(address account) public view returns (uint256) {\n    return balanceOf(account).sub(lockedBalanceOf[account]);\n  }\n\n  /**\n   * @dev Locks specified amount of tokens for the user\n   *      Locked tokens are not manipulable until being unlocked\n   *      Locked tokens are still reported as owned by the user\n   *      when ``balanceOf()`` is called\n   * @param amount specified amount of tokens to be locked\n   * @return success status of the locking\n   */\n  function lock(uint256 amount) public returns (bool) {\n    address account = _msgSender();\n    require(unlockedBalanceOf(account) >= amount, \"Not enough unlocked tokens\");\n    lockedBalanceOf[account] = lockedBalanceOf[account].add(amount);\n    emit TokenLocked(account, amount);\n    return true;\n  }\n\n  /**\n   * @dev Unlocks specified amount of tokens for the user\n   *      Unlocked tokens are manipulable until being locked\n   * @param amount specified amount of tokens to be unlocked\n   * @return success status of the unlocking\n   */\n  function unlock(uint256 amount) public returns (bool) {\n    address account = _msgSender();\n    require(lockedBalanceOf[account] >= amount, \"Not enough locked tokens\");\n    lockedBalanceOf[account] = lockedBalanceOf[account].sub(amount);\n    emit TokenUnlocked(account, amount);\n    return true;\n  }\n\n  /**\n   * @dev The only difference from standard ERC20 ``transferFrom()`` is that\n   *     it only succeeds if the sender has enough unlocked tokens\n   *     Note: this function is also used by every StormXGSNRecipient\n   *           when charging.\n   * @param sender address of the sender\n   * @param recipient address of the recipient\n   * @param amount specified amount of tokens to be transferred\n   * @return success status of the transferring\n   */\n  function transferFrom(address sender, address recipient, uint256 amount) public returns (bool) {\n    require(unlockedBalanceOf(sender) >= amount, \"Not enough unlocked token balance of sender\");\n    // if the msg.sender is charging ``sender`` for a GSN fee\n    // allowance does not apply\n    // so that no user approval is required for GSN calls\n    if (_msgSender() == address(this) || _msgSender() == swap) {\n      _transfer(sender, recipient, amount);\n      return true;\n    } else {\n      return super.transferFrom(sender, recipient, amount);\n    }\n  }\n\n  /**\n   * @dev The only difference from standard ERC20 ``transfer()`` is that\n   *     it only succeeds if the user has enough unlocked tokens\n   * @param recipient address of the recipient\n   * @param amount specified amount of tokens to be transferred\n   * @return success status of the transferring\n   */\n  function transfer(address recipient, uint256 amount) public returns (bool) {\n    require(unlockedBalanceOf(_msgSender()) >= amount, \"Not enough unlocked token balance\");\n    return super.transfer(recipient, amount);\n  }\n\n  /**\n   * @dev Transfers tokens in batch\n   * @param recipients an array of recipient addresses\n   * @param values an array of specified amount of tokens to be transferred\n   * @return success status of the batch transferring\n   */\n  function transfers(\n    address[] memory recipients,\n    uint256[] memory values\n  ) public transfersAllowed returns (bool) {\n    require(recipients.length == values.length, \"Input lengths do not match\");\n\n    for (uint256 i = 0; i < recipients.length; i++) {\n      transfer(recipients[i], values[i]);\n    }\n    return true;\n  }\n\n  /**\n   * @dev Enables the method ``transfers()`` if ``enable=true``,\n   * and disables ``transfers()`` otherwise\n   * @param enable the expected new availability of the method ``transfers()``\n   */\n  function enableTransfers(bool enable) public onlyOwner returns (bool) {\n    transfersEnabled = enable;\n    emit TransfersEnabled(enable);\n    return true;\n  }\n\n  function mint(address account, uint256 amount) public {\n    require(initialized, \"The contract is not initialized yet\");\n    require(_msgSender() == swap, \"not authorized to mint\");\n    _mint(account, amount);\n  }\n\n  /**\n   * @dev Initializes this contract\n   *      Sets address ``swap`` as the only valid minter for this token\n   *      Note: must be called before token migration opens in ``Swap.sol``\n   * @param _swap address of the deployed contract ``Swap.sol``\n   */\n  function initialize(address _swap) public onlyOwner {\n    require(!initialized, \"cannot initialize twice\");\n    require(_swap != address(0), \"invalid swap address\");\n    swap = _swap;\n    transfersEnabled = true;\n    emit TransfersEnabled(true);\n    initialized = true;\n    emit SwapAddressAdded(_swap);\n  }\n}\n",
  "sourcePath": "/Users/evaxu/Desktop/stormx-token/contracts/StormXToken.sol",
  "compiler": {
    "name": "solc",
    "version": "0.5.16+commit.9c3226ce.Emscripten.clang"
  },
  "schemaVersion": "3.0.21",
  "updatedAt": "2020-03-25T20:08:13.753Z",
  "networkType": "ethereum",
  "devdoc": {
    "methods": {
      "acceptRelayedCall(address,address,bytes,uint256,uint256,uint256,uint256,bytes,uint256)": {
        "details": "Called by {IRelayHub} to validate if this recipient accepts being charged for a relayed call. Note that the recipient will be charged regardless of the execution result of the relayed call (i.e. if it reverts or not).   * The relay request was originated by `from` and will be served by `relay`. `encodedFunction` is the relayed call calldata, so its first four bytes are the function selector. The relayed call will be forwarded `gasLimit` gas, and the transaction executed with a gas price of at least `gasPrice`. `relay`'s fee is `transactionFee`, and the recipient will be charged at most `maxPossibleCharge` (in wei). `nonce` is the sender's (`from`) nonce for replay attack protection in {IRelayHub}, and `approvalData` is a optional parameter that can be used to hold a signature over all or some of the previous values.   * Returns a tuple, where the first value is used to indicate approval (0) or rejection (custom non-zero error code, values 1 to 10 are reserved) and the second one is data to be passed to the other {IRelayRecipient} functions.   * {acceptRelayedCall} is called with 50k gas: if it runs out during execution, the request will be considered rejected. A regular revert will also trigger a rejection."
      },
      "allowance(address,address)": {
        "details": "See {IERC20-allowance}."
      },
      "approve(address,uint256)": {
        "details": "See {IERC20-approve}.     * Requirements:     * - `spender` cannot be the zero address."
      },
      "balanceOf(address)": {
        "details": "See {IERC20-balanceOf}."
      },
      "constructor": {
        "params": {
          "reserve": "address of the StormX's reserve that receives GSN charge fee GSN charged fees and remaining tokens after the token migration is closed"
        }
      },
      "decimals()": {
        "details": "Returns the number of decimals used to get its user representation. For example, if `decimals` equals `2`, a balance of `505` tokens should be displayed to a user as `5,05` (`505 / 10 ** 2`).     * Tokens usually opt for a value of 18, imitating the relationship between Ether and Wei.     * NOTE: This information is only used for _display_ purposes: it in no way affects any of the arithmetic of the contract, including {IERC20-balanceOf} and {IERC20-transfer}."
      },
      "decreaseAllowance(address,uint256)": {
        "details": "Atomically decreases the allowance granted to `spender` by the caller.     * This is an alternative to {approve} that can be used as a mitigation for problems described in {IERC20-approve}.     * Emits an {Approval} event indicating the updated allowance.     * Requirements:     * - `spender` cannot be the zero address. - `spender` must have allowance for the caller of at least `subtractedValue`."
      },
      "enableTransfers(bool)": {
        "details": "Enables the method ``transfers()`` if ``enable=true``, and disables ``transfers()`` otherwise",
        "params": {
          "enable": "the expected new availability of the method ``transfers()``"
        }
      },
      "getHubAddr()": {
        "details": "Returns the address of the {IRelayHub} contract for this recipient."
      },
      "increaseAllowance(address,uint256)": {
        "details": "Atomically increases the allowance granted to `spender` by the caller.     * This is an alternative to {approve} that can be used as a mitigation for problems described in {IERC20-approve}.     * Emits an {Approval} event indicating the updated allowance.     * Requirements:     * - `spender` cannot be the zero address."
      },
      "initialize(address)": {
        "details": "Initializes this contract     Sets address ``swap`` as the only valid minter for this token     Note: must be called before token migration opens in ``Swap.sol``",
        "params": {
          "_swap": "address of the deployed contract ``Swap.sol``"
        }
      },
      "isOwner()": {
        "details": "Returns true if the caller is the current owner."
      },
      "lock(uint256)": {
        "details": "Locks specified amount of tokens for the user     Locked tokens are not manipulable until being unlocked     Locked tokens are still reported as owned by the user     when ``balanceOf()`` is called",
        "params": {
          "amount": "specified amount of tokens to be locked"
        },
        "return": "success status of the locking"
      },
      "name()": {
        "details": "Returns the name of the token."
      },
      "owner()": {
        "details": "Returns the address of the current owner."
      },
      "postRelayedCall(bytes,bool,uint256,bytes32)": {
        "details": "See `IRelayRecipient.postRelayedCall`.     * This function should not be overriden directly, use `_postRelayedCall` instead.     * * Requirements:     * - the caller must be the `RelayHub` contract."
      },
      "preRelayedCall(bytes)": {
        "details": "See `IRelayRecipient.preRelayedCall`.     * This function should not be overriden directly, use `_preRelayedCall` instead.     * * Requirements:     * - the caller must be the `RelayHub` contract."
      },
      "relayHubVersion()": {
        "details": "Returns the version string of the {IRelayHub} for which this recipient implementation was built. If {_upgradeRelayHub} is used, the new {IRelayHub} instance should be compatible with this version."
      },
      "renounceOwnership()": {
        "details": "Leaves the contract without owner. It will not be possible to call `onlyOwner` functions anymore. Can only be called by the current owner.     * NOTE: Renouncing ownership will leave the contract without an owner, thereby removing any functionality that is only available to the owner."
      },
      "setChargeFee(uint256)": {
        "details": "Sets the charge fee for GSN calls",
        "params": {
          "newFee": "the new charge fee"
        },
        "return": "success status of the setting"
      },
      "setStormXReserve(address)": {
        "details": "Sets the address of StormX's reserve",
        "params": {
          "newReserve": "the new address of StormX's reserve"
        },
        "return": "success status of the setting"
      },
      "symbol()": {
        "details": "Returns the symbol of the token, usually a shorter version of the name."
      },
      "totalSupply()": {
        "details": "See {IERC20-totalSupply}."
      },
      "transfer(address,uint256)": {
        "details": "The only difference from standard ERC20 ``transfer()`` is that    it only succeeds if the user has enough unlocked tokens",
        "params": {
          "amount": "specified amount of tokens to be transferred",
          "recipient": "address of the recipient"
        },
        "return": "success status of the transferring"
      },
      "transferFrom(address,address,uint256)": {
        "details": "The only difference from standard ERC20 ``transferFrom()`` is that    it only succeeds if the sender has enough unlocked tokens    Note: this function is also used by every StormXGSNRecipient          when charging.",
        "params": {
          "amount": "specified amount of tokens to be transferred",
          "recipient": "address of the recipient",
          "sender": "address of the sender"
        },
        "return": "success status of the transferring"
      },
      "transferOwnership(address)": {
        "details": "Transfers ownership of the contract to a new account (`newOwner`). Can only be called by the current owner."
      },
      "transfers(address[],uint256[])": {
        "details": "Transfers tokens in batch",
        "params": {
          "recipients": "an array of recipient addresses",
          "values": "an array of specified amount of tokens to be transferred"
        },
        "return": "success status of the batch transferring"
      },
      "unlock(uint256)": {
        "details": "Unlocks specified amount of tokens for the user     Unlocked tokens are manipulable until being locked",
        "params": {
          "amount": "specified amount of tokens to be unlocked"
        },
        "return": "success status of the unlocking"
      },
      "unlockedBalanceOf(address)": {
        "params": {
          "account": "address of the user this function queries unlocked balance for"
        },
        "return": "the amount of unlocked tokens of the given address        i.e. the amount of manipulable tokens of the given address"
      }
    }
  },
  "userdoc": {
    "methods": {
      "acceptRelayedCall(address,address,bytes,uint256,uint256,uint256,uint256,bytes,uint256)": {
        "notice": "Note: the documentation is copied from `openzeppelin-contracts/contracts/GSN/IRelayRecipient.sol`"
      }
    }
  }
}