{
  "contractName": "StormXToken",
  "abi": [
    {
      "inputs": [
        {
          "internalType": "address",
          "name": "reserve",
          "type": "address"
        }
      ],
      "payable": false,
      "stateMutability": "nonpayable",
      "type": "constructor"
    },
    {
      "anonymous": false,
      "inputs": [
        {
          "indexed": true,
          "internalType": "address",
          "name": "owner",
          "type": "address"
        },
        {
          "indexed": true,
          "internalType": "address",
          "name": "spender",
          "type": "address"
        },
        {
          "indexed": false,
          "internalType": "uint256",
          "name": "value",
          "type": "uint256"
        }
      ],
      "name": "Approval",
      "type": "event"
    },
    {
      "anonymous": false,
      "inputs": [
        {
          "indexed": true,
          "internalType": "address",
          "name": "account",
          "type": "address"
        },
        {
          "indexed": false,
          "internalType": "bool",
          "name": "status",
          "type": "bool"
        }
      ],
      "name": "AutoStakingSet",
      "type": "event"
    },
    {
      "anonymous": false,
      "inputs": [
        {
          "indexed": false,
          "internalType": "uint256",
          "name": "newFee",
          "type": "uint256"
        }
      ],
      "name": "ChargeFeeSet",
      "type": "event"
    },
    {
      "anonymous": false,
      "inputs": [
        {
          "indexed": true,
          "internalType": "address",
          "name": "previousOwner",
          "type": "address"
        },
        {
          "indexed": true,
          "internalType": "address",
          "name": "newOwner",
          "type": "address"
        }
      ],
      "name": "OwnershipTransferred",
      "type": "event"
    },
    {
      "anonymous": false,
      "inputs": [
        {
          "indexed": true,
          "internalType": "address",
          "name": "oldRelayHub",
          "type": "address"
        },
        {
          "indexed": true,
          "internalType": "address",
          "name": "newRelayHub",
          "type": "address"
        }
      ],
      "name": "RelayHubChanged",
      "type": "event"
    },
    {
      "anonymous": false,
      "inputs": [
        {
          "indexed": false,
          "internalType": "address",
          "name": "rewardRole",
          "type": "address"
        }
      ],
      "name": "RewardRoleAssigned",
      "type": "event"
    },
    {
      "anonymous": false,
      "inputs": [
        {
          "indexed": false,
          "internalType": "address",
          "name": "newAddress",
          "type": "address"
        }
      ],
      "name": "StormXReserveSet",
      "type": "event"
    },
    {
      "anonymous": false,
      "inputs": [
        {
          "indexed": false,
          "internalType": "address",
          "name": "swap",
          "type": "address"
        }
      ],
      "name": "SwapAddressAdded",
      "type": "event"
    },
    {
      "anonymous": false,
      "inputs": [
        {
          "indexed": true,
          "internalType": "address",
          "name": "account",
          "type": "address"
        },
        {
          "indexed": false,
          "internalType": "uint256",
          "name": "amount",
          "type": "uint256"
        }
      ],
      "name": "TokenLocked",
      "type": "event"
    },
    {
      "anonymous": false,
      "inputs": [
        {
          "indexed": true,
          "internalType": "address",
          "name": "account",
          "type": "address"
        },
        {
          "indexed": false,
          "internalType": "uint256",
          "name": "amount",
          "type": "uint256"
        }
      ],
      "name": "TokenUnlocked",
      "type": "event"
    },
    {
      "anonymous": false,
      "inputs": [
        {
          "indexed": true,
          "internalType": "address",
          "name": "from",
          "type": "address"
        },
        {
          "indexed": true,
          "internalType": "address",
          "name": "to",
          "type": "address"
        },
        {
          "indexed": false,
          "internalType": "uint256",
          "name": "value",
          "type": "uint256"
        }
      ],
      "name": "Transfer",
      "type": "event"
    },
    {
      "anonymous": false,
      "inputs": [
        {
          "indexed": false,
          "internalType": "bool",
          "name": "newStatus",
          "type": "bool"
        }
      ],
      "name": "TransfersEnabled",
      "type": "event"
    },
    {
      "constant": true,
      "inputs": [
        {
          "internalType": "address",
          "name": "relay",
          "type": "address"
        },
        {
          "internalType": "address",
          "name": "from",
          "type": "address"
        },
        {
          "internalType": "bytes",
          "name": "encodedFunction",
          "type": "bytes"
        },
        {
          "internalType": "uint256",
          "name": "transactionFee",
          "type": "uint256"
        },
        {
          "internalType": "uint256",
          "name": "gasPrice",
          "type": "uint256"
        },
        {
          "internalType": "uint256",
          "name": "gasLimit",
          "type": "uint256"
        },
        {
          "internalType": "uint256",
          "name": "nonce",
          "type": "uint256"
        },
        {
          "internalType": "bytes",
          "name": "approvalData",
          "type": "bytes"
        },
        {
          "internalType": "uint256",
          "name": "maxPossibleCharge",
          "type": "uint256"
        }
      ],
      "name": "acceptRelayedCall",
      "outputs": [
        {
          "internalType": "uint256",
          "name": "",
          "type": "uint256"
        },
        {
          "internalType": "bytes",
          "name": "",
          "type": "bytes"
        }
      ],
      "payable": false,
      "stateMutability": "view",
      "type": "function"
    },
    {
      "constant": true,
      "inputs": [
        {
          "internalType": "address",
          "name": "owner",
          "type": "address"
        },
        {
          "internalType": "address",
          "name": "spender",
          "type": "address"
        }
      ],
      "name": "allowance",
      "outputs": [
        {
          "internalType": "uint256",
          "name": "",
          "type": "uint256"
        }
      ],
      "payable": false,
      "stateMutability": "view",
      "type": "function"
    },
    {
      "constant": false,
      "inputs": [
        {
          "internalType": "address",
          "name": "spender",
          "type": "address"
        },
        {
          "internalType": "uint256",
          "name": "amount",
          "type": "uint256"
        }
      ],
      "name": "approve",
      "outputs": [
        {
          "internalType": "bool",
          "name": "",
          "type": "bool"
        }
      ],
      "payable": false,
      "stateMutability": "nonpayable",
      "type": "function"
    },
    {
      "constant": true,
      "inputs": [
        {
          "internalType": "address",
          "name": "",
          "type": "address"
        }
      ],
      "name": "autoStakingDisabled",
      "outputs": [
        {
          "internalType": "bool",
          "name": "",
          "type": "bool"
        }
      ],
      "payable": false,
      "stateMutability": "view",
      "type": "function"
    },
    {
      "constant": true,
      "inputs": [
        {
          "internalType": "address",
          "name": "account",
          "type": "address"
        }
      ],
      "name": "balanceOf",
      "outputs": [
        {
          "internalType": "uint256",
          "name": "",
          "type": "uint256"
        }
      ],
      "payable": false,
      "stateMutability": "view",
      "type": "function"
    },
    {
      "constant": true,
      "inputs": [],
      "name": "chargeFee",
      "outputs": [
        {
          "internalType": "uint256",
          "name": "",
          "type": "uint256"
        }
      ],
      "payable": false,
      "stateMutability": "view",
      "type": "function"
    },
    {
      "constant": true,
      "inputs": [],
      "name": "decimals",
      "outputs": [
        {
          "internalType": "uint8",
          "name": "",
          "type": "uint8"
        }
      ],
      "payable": false,
      "stateMutability": "view",
      "type": "function"
    },
    {
      "constant": false,
      "inputs": [
        {
          "internalType": "address",
          "name": "spender",
          "type": "address"
        },
        {
          "internalType": "uint256",
          "name": "subtractedValue",
          "type": "uint256"
        }
      ],
      "name": "decreaseAllowance",
      "outputs": [
        {
          "internalType": "bool",
          "name": "",
          "type": "bool"
        }
      ],
      "payable": false,
      "stateMutability": "nonpayable",
      "type": "function"
    },
    {
      "constant": true,
      "inputs": [],
      "name": "getHubAddr",
      "outputs": [
        {
          "internalType": "address",
          "name": "",
          "type": "address"
        }
      ],
      "payable": false,
      "stateMutability": "view",
      "type": "function"
    },
    {
      "constant": false,
      "inputs": [
        {
          "internalType": "address",
          "name": "spender",
          "type": "address"
        },
        {
          "internalType": "uint256",
          "name": "addedValue",
          "type": "uint256"
        }
      ],
      "name": "increaseAllowance",
      "outputs": [
        {
          "internalType": "bool",
          "name": "",
          "type": "bool"
        }
      ],
      "payable": false,
      "stateMutability": "nonpayable",
      "type": "function"
    },
    {
      "constant": true,
      "inputs": [],
      "name": "initialized",
      "outputs": [
        {
          "internalType": "bool",
          "name": "",
          "type": "bool"
        }
      ],
      "payable": false,
      "stateMutability": "view",
      "type": "function"
    },
    {
      "constant": true,
      "inputs": [],
      "name": "isOwner",
      "outputs": [
        {
          "internalType": "bool",
          "name": "",
          "type": "bool"
        }
      ],
      "payable": false,
      "stateMutability": "view",
      "type": "function"
    },
    {
      "constant": true,
      "inputs": [
        {
          "internalType": "address",
          "name": "",
          "type": "address"
        }
      ],
      "name": "lockedBalanceOf",
      "outputs": [
        {
          "internalType": "uint256",
          "name": "",
          "type": "uint256"
        }
      ],
      "payable": false,
      "stateMutability": "view",
      "type": "function"
    },
    {
      "constant": true,
      "inputs": [],
      "name": "name",
      "outputs": [
        {
          "internalType": "string",
          "name": "",
          "type": "string"
        }
      ],
      "payable": false,
      "stateMutability": "view",
      "type": "function"
    },
    {
      "constant": true,
      "inputs": [],
      "name": "owner",
      "outputs": [
        {
          "internalType": "address",
          "name": "",
          "type": "address"
        }
      ],
      "payable": false,
      "stateMutability": "view",
      "type": "function"
    },
    {
      "constant": false,
      "inputs": [
        {
          "internalType": "bytes",
          "name": "context",
          "type": "bytes"
        },
        {
          "internalType": "bool",
          "name": "success",
          "type": "bool"
        },
        {
          "internalType": "uint256",
          "name": "actualCharge",
          "type": "uint256"
        },
        {
          "internalType": "bytes32",
          "name": "preRetVal",
          "type": "bytes32"
        }
      ],
      "name": "postRelayedCall",
      "outputs": [],
      "payable": false,
      "stateMutability": "nonpayable",
      "type": "function"
    },
    {
      "constant": false,
      "inputs": [
        {
          "internalType": "bytes",
          "name": "context",
          "type": "bytes"
        }
      ],
      "name": "preRelayedCall",
      "outputs": [
        {
          "internalType": "bytes32",
          "name": "",
          "type": "bytes32"
        }
      ],
      "payable": false,
      "stateMutability": "nonpayable",
      "type": "function"
    },
    {
      "constant": true,
      "inputs": [],
      "name": "relayHubVersion",
      "outputs": [
        {
          "internalType": "string",
          "name": "",
          "type": "string"
        }
      ],
      "payable": false,
      "stateMutability": "view",
      "type": "function"
    },
    {
      "constant": false,
      "inputs": [],
      "name": "renounceOwnership",
      "outputs": [],
      "payable": false,
      "stateMutability": "nonpayable",
      "type": "function"
    },
    {
      "constant": true,
      "inputs": [],
      "name": "rewardRole",
      "outputs": [
        {
          "internalType": "address",
          "name": "",
          "type": "address"
        }
      ],
      "payable": false,
      "stateMutability": "view",
      "type": "function"
    },
    {
      "constant": false,
      "inputs": [
        {
          "internalType": "uint256",
          "name": "newFee",
          "type": "uint256"
        }
      ],
      "name": "setChargeFee",
      "outputs": [
        {
          "internalType": "bool",
          "name": "",
          "type": "bool"
        }
      ],
      "payable": false,
      "stateMutability": "nonpayable",
      "type": "function"
    },
    {
      "constant": false,
      "inputs": [
        {
          "internalType": "address",
          "name": "newReserve",
          "type": "address"
        }
      ],
      "name": "setStormXReserve",
      "outputs": [
        {
          "internalType": "bool",
          "name": "",
          "type": "bool"
        }
      ],
      "payable": false,
      "stateMutability": "nonpayable",
      "type": "function"
    },
    {
      "constant": true,
      "inputs": [],
      "name": "stormXReserve",
      "outputs": [
        {
          "internalType": "address",
          "name": "",
          "type": "address"
        }
      ],
      "payable": false,
      "stateMutability": "view",
      "type": "function"
    },
    {
      "constant": true,
      "inputs": [],
      "name": "swap",
      "outputs": [
        {
          "internalType": "address",
          "name": "",
          "type": "address"
        }
      ],
      "payable": false,
      "stateMutability": "view",
      "type": "function"
    },
    {
      "constant": true,
      "inputs": [],
      "name": "symbol",
      "outputs": [
        {
          "internalType": "string",
          "name": "",
          "type": "string"
        }
      ],
      "payable": false,
      "stateMutability": "view",
      "type": "function"
    },
    {
      "constant": true,
      "inputs": [],
      "name": "token",
      "outputs": [
        {
          "internalType": "contract IStormXToken",
          "name": "",
          "type": "address"
        }
      ],
      "payable": false,
      "stateMutability": "view",
      "type": "function"
    },
    {
      "constant": true,
      "inputs": [],
      "name": "totalSupply",
      "outputs": [
        {
          "internalType": "uint256",
          "name": "",
          "type": "uint256"
        }
      ],
      "payable": false,
      "stateMutability": "view",
      "type": "function"
    },
    {
      "constant": false,
      "inputs": [
        {
          "internalType": "address",
          "name": "newOwner",
          "type": "address"
        }
      ],
      "name": "transferOwnership",
      "outputs": [],
      "payable": false,
      "stateMutability": "nonpayable",
      "type": "function"
    },
    {
      "constant": true,
      "inputs": [],
      "name": "transfersEnabled",
      "outputs": [
        {
          "internalType": "bool",
          "name": "",
          "type": "bool"
        }
      ],
      "payable": false,
      "stateMutability": "view",
      "type": "function"
    },
    {
      "constant": true,
      "inputs": [
        {
          "internalType": "address",
          "name": "account",
          "type": "address"
        }
      ],
      "name": "unlockedBalanceOf",
      "outputs": [
        {
          "internalType": "uint256",
          "name": "",
          "type": "uint256"
        }
      ],
      "payable": false,
      "stateMutability": "view",
      "type": "function"
    },
    {
      "constant": false,
      "inputs": [
        {
          "internalType": "uint256",
          "name": "amount",
          "type": "uint256"
        }
      ],
      "name": "lock",
      "outputs": [
        {
          "internalType": "bool",
          "name": "",
          "type": "bool"
        }
      ],
      "payable": false,
      "stateMutability": "nonpayable",
      "type": "function"
    },
    {
      "constant": false,
      "inputs": [
        {
          "internalType": "uint256",
          "name": "amount",
          "type": "uint256"
        }
      ],
      "name": "unlock",
      "outputs": [
        {
          "internalType": "bool",
          "name": "",
          "type": "bool"
        }
      ],
      "payable": false,
      "stateMutability": "nonpayable",
      "type": "function"
    },
    {
      "constant": false,
      "inputs": [
        {
          "internalType": "address",
          "name": "sender",
          "type": "address"
        },
        {
          "internalType": "address",
          "name": "recipient",
          "type": "address"
        },
        {
          "internalType": "uint256",
          "name": "amount",
          "type": "uint256"
        }
      ],
      "name": "transferFrom",
      "outputs": [
        {
          "internalType": "bool",
          "name": "",
          "type": "bool"
        }
      ],
      "payable": false,
      "stateMutability": "nonpayable",
      "type": "function"
    },
    {
      "constant": false,
      "inputs": [
        {
          "internalType": "address",
          "name": "recipient",
          "type": "address"
        },
        {
          "internalType": "uint256",
          "name": "amount",
          "type": "uint256"
        }
      ],
      "name": "transfer",
      "outputs": [
        {
          "internalType": "bool",
          "name": "",
          "type": "bool"
        }
      ],
      "payable": false,
      "stateMutability": "nonpayable",
      "type": "function"
    },
    {
      "constant": false,
      "inputs": [
        {
          "internalType": "address[]",
          "name": "recipients",
          "type": "address[]"
        },
        {
          "internalType": "uint256[]",
          "name": "values",
          "type": "uint256[]"
        }
      ],
      "name": "transfers",
      "outputs": [
        {
          "internalType": "bool",
          "name": "",
          "type": "bool"
        }
      ],
      "payable": false,
      "stateMutability": "nonpayable",
      "type": "function"
    },
    {
      "constant": false,
      "inputs": [
        {
          "internalType": "bool",
          "name": "enable",
          "type": "bool"
        }
      ],
      "name": "enableTransfers",
      "outputs": [
        {
          "internalType": "bool",
          "name": "",
          "type": "bool"
        }
      ],
      "payable": false,
      "stateMutability": "nonpayable",
      "type": "function"
    },
    {
      "constant": false,
      "inputs": [
        {
          "internalType": "address",
          "name": "account",
          "type": "address"
        },
        {
          "internalType": "uint256",
          "name": "amount",
          "type": "uint256"
        }
      ],
      "name": "mint",
      "outputs": [],
      "payable": false,
      "stateMutability": "nonpayable",
      "type": "function"
    },
    {
      "constant": false,
      "inputs": [
        {
          "internalType": "address",
          "name": "_swap",
          "type": "address"
        }
      ],
      "name": "initialize",
      "outputs": [],
      "payable": false,
      "stateMutability": "nonpayable",
      "type": "function"
    },
    {
      "constant": false,
      "inputs": [
        {
          "internalType": "address",
          "name": "account",
          "type": "address"
        }
      ],
      "name": "assignRewardRole",
      "outputs": [],
      "payable": false,
      "stateMutability": "nonpayable",
      "type": "function"
    },
    {
      "constant": false,
      "inputs": [
        {
          "internalType": "address",
          "name": "recipient",
          "type": "address"
        },
        {
          "internalType": "uint256",
          "name": "amount",
          "type": "uint256"
        }
      ],
      "name": "reward",
      "outputs": [],
      "payable": false,
      "stateMutability": "nonpayable",
      "type": "function"
    },
    {
      "constant": false,
      "inputs": [
        {
          "internalType": "address[]",
          "name": "recipients",
          "type": "address[]"
        },
        {
          "internalType": "uint256[]",
          "name": "values",
          "type": "uint256[]"
        }
      ],
      "name": "rewards",
      "outputs": [],
      "payable": false,
      "stateMutability": "nonpayable",
      "type": "function"
    },
    {
      "constant": false,
      "inputs": [
        {
          "internalType": "bool",
          "name": "enabled",
          "type": "bool"
        }
      ],
      "name": "setAutoStaking",
      "outputs": [],
      "payable": false,
      "stateMutability": "nonpayable",
      "type": "function"
    }
  ],
  "bytecode": "0x608060405273d216153c06e857cd7f72665e0af1d7d82172f4946000806101000a81548173ffffffffffffffffffffffffffffffffffffffff021916908373ffffffffffffffffffffffffffffffffffffffff1602179055506000600c60006101000a81548160ff0219169083151502179055503480156200008057600080fd5b5060405162004cbd38038062004cbd83398181016040526020811015620000a657600080fd5b81019080805190602001909291905050506040518060400160405280600681526020017f53746f726d5800000000000000000000000000000000000000000000000000008152506040518060400160405280600481526020017f53544d5800000000000000000000000000000000000000000000000000000000815250601230846000620001396200040a60201b60201c565b905080600160006101000a81548173ffffffffffffffffffffffffffffffffffffffff021916908373ffffffffffffffffffffffffffffffffffffffff1602179055508073ffffffffffffffffffffffffffffffffffffffff16600073ffffffffffffffffffffffffffffffffffffffff167f8be0079c531659141344cd1fd0a4f28419497f9722a3daafe3b4186f6b6457e060405160405180910390a350600073ffffffffffffffffffffffffffffffffffffffff168273ffffffffffffffffffffffffffffffffffffffff1614156200027c576040517f08c379a00000000000000000000000000000000000000000000000000000000081526004018080602001828103825260158152602001807f496e76616c696420746f6b656e2061646472657373000000000000000000000081525060200191505060405180910390fd5b600073ffffffffffffffffffffffffffffffffffffffff168173ffffffffffffffffffffffffffffffffffffffff16141562000320576040517f08c379a00000000000000000000000000000000000000000000000000000000081526004018080602001828103825260178152602001807f496e76616c69642072657365727665206164647265737300000000000000000081525060200191505060405180910390fd5b81600460006101000a81548173ffffffffffffffffffffffffffffffffffffffff021916908373ffffffffffffffffffffffffffffffffffffffff16021790555080600360006101000a81548173ffffffffffffffffffffffffffffffffffffffff021916908373ffffffffffffffffffffffffffffffffffffffff160217905550678ac7230489e8000060028190555050508260089080519060200190620003cb929190620004f8565b508160099080519060200190620003e4929190620004f8565b5080600a60006101000a81548160ff021916908360ff16021790555050505050620005a7565b60008060009054906101000a900473ffffffffffffffffffffffffffffffffffffffff1673ffffffffffffffffffffffffffffffffffffffff163373ffffffffffffffffffffffffffffffffffffffff16146200046a573390506200047d565b6200047a6200048060201b60201c565b90505b90565b600060606000368080601f016020809104026020016040519081016040528093929190818152602001838380828437600081840152601f19601f820116905080830192505050505050509050600080369050905073ffffffffffffffffffffffffffffffffffffffff81830151169250829250505090565b828054600181600116156101000203166002900490600052602060002090601f016020900481019282601f106200053b57805160ff19168380011785556200056c565b828001600101855582156200056c579182015b828111156200056b5782518255916020019190600101906200054e565b5b5090506200057b91906200057f565b5090565b620005a491905b80821115620005a057600081600090555060010162000586565b5090565b90565b61470680620005b76000396000f3fe608060405234801561001057600080fd5b506004361061025e5760003560e01c806383947ea011610146578063ad61ccd5116100c3578063dd62ed3e11610087578063dd62ed3e146110d4578063e06e0e221461114c578063ece70b22146111e5578063f2fde38b14611241578063f41e60c514611285578063fc0c546a146112cd5761025e565b8063ad61ccd514610f5b578063bef97c8714610fde578063c4d66de814611000578063dc011e9714611044578063dd4670641461108e5761025e565b806395d89b411161010a57806395d89b4114610c64578063a1a640ce14610ce7578063a3d03fa014610d43578063a457c2d714610e8f578063a9059cbb14610ef55761025e565b806383947ea01461099b57806384955c8814610b5c5780638da5cb5b14610bb45780638f32d59b14610bfe578063910eb0d214610c205761025e565b8063516ae993116101df578063715018a6116101a3578063715018a614610808578063744c8c091461081257806374e861d6146108305780637f1339971461087a57806380274db7146108c45780638119c065146109515761025e565b8063516ae9931461056857806352346412146105ae57806359355736146107125780636198e3391461076a57806370a08231146107b05761025e565b806323b872dd1161022657806323b872dd146103da5780632b45389914610460578063313ce5671461049057806339509351146104b457806340c10f191461051a5761025e565b806306fdde0314610263578063095ea7b3146102e6578063158ef93e1461034c57806318160ddd1461036e57806321670f221461038c575b600080fd5b61026b611317565b6040518080602001828103825283818151815260200191508051906020019080838360005b838110156102ab578082015181840152602081019050610290565b50505050905090810190601f1680156102d85780820380516001836020036101000a031916815260200191505b509250505060405180910390f35b610332600480360360408110156102fc57600080fd5b81019080803573ffffffffffffffffffffffffffffffffffffffff169060200190929190803590602001909291905050506113b9565b604051808215151515815260200191505060405180910390f35b6103546113d7565b604051808215151515815260200191505060405180910390f35b6103766113ea565b6040518082815260200191505060405180910390f35b6103d8600480360360408110156103a257600080fd5b81019080803573ffffffffffffffffffffffffffffffffffffffff169060200190929190803590602001909291905050506113f4565b005b610446600480360360608110156103f057600080fd5b81019080803573ffffffffffffffffffffffffffffffffffffffff169060200190929190803573ffffffffffffffffffffffffffffffffffffffff16906020019092919080359060200190929190505050611720565b604051808215151515815260200191505060405180910390f35b61048e6004803603602081101561047657600080fd5b81019080803515159060200190929190505050611846565b005b610498611901565b604051808260ff1660ff16815260200191505060405180910390f35b610500600480360360408110156104ca57600080fd5b81019080803573ffffffffffffffffffffffffffffffffffffffff16906020019092919080359060200190929190505050611918565b604051808215151515815260200191505060405180910390f35b6105666004803603604081101561053057600080fd5b81019080803573ffffffffffffffffffffffffffffffffffffffff169060200190929190803590602001909291905050506119cb565b005b6105946004803603602081101561057e57600080fd5b8101908080359060200190929190505050611b08565b604051808215151515815260200191505060405180910390f35b6106f8600480360360408110156105c457600080fd5b81019080803590602001906401000000008111156105e157600080fd5b8201836020820111156105f357600080fd5b8035906020019184602083028401116401000000008311171561061557600080fd5b919080806020026020016040519081016040528093929190818152602001838360200280828437600081840152601f19601f8201169050808301925050505050505091929192908035906020019064010000000081111561067557600080fd5b82018360208201111561068757600080fd5b803590602001918460208302840111640100000000831117156106a957600080fd5b919080806020026020016040519081016040528093929190818152602001838360200280828437600081840152601f19601f820116905080830192505050505050509192919290505050611bcb565b604051808215151515815260200191505060405180910390f35b6107546004803603602081101561072857600080fd5b81019080803573ffffffffffffffffffffffffffffffffffffffff169060200190929190505050611d1e565b6040518082815260200191505060405180910390f35b6107966004803603602081101561078057600080fd5b8101908080359060200190929190505050611d36565b604051808215151515815260200191505060405180910390f35b6107f2600480360360208110156107c657600080fd5b81019080803573ffffffffffffffffffffffffffffffffffffffff169060200190929190505050611ee5565b6040518082815260200191505060405180910390f35b610810611f2e565b005b61081a612069565b6040518082815260200191505060405180910390f35b61083861206f565b604051808273ffffffffffffffffffffffffffffffffffffffff1673ffffffffffffffffffffffffffffffffffffffff16815260200191505060405180910390f35b610882612098565b604051808273ffffffffffffffffffffffffffffffffffffffff1673ffffffffffffffffffffffffffffffffffffffff16815260200191505060405180910390f35b61093b600480360360208110156108da57600080fd5b81019080803590602001906401000000008111156108f757600080fd5b82018360208201111561090957600080fd5b8035906020019184600183028401116401000000008311171561092b57600080fd5b90919293919293905050506120be565b6040518082815260200191505060405180910390f35b6109596121a0565b604051808273ffffffffffffffffffffffffffffffffffffffff1673ffffffffffffffffffffffffffffffffffffffff16815260200191505060405180910390f35b610ada60048036036101208110156109b257600080fd5b81019080803573ffffffffffffffffffffffffffffffffffffffff169060200190929190803573ffffffffffffffffffffffffffffffffffffffff16906020019092919080359060200190640100000000811115610a0f57600080fd5b820183602082011115610a2157600080fd5b80359060200191846001830284011164010000000083111715610a4357600080fd5b90919293919293908035906020019092919080359060200190929190803590602001909291908035906020019092919080359060200190640100000000811115610a8c57600080fd5b820183602082011115610a9e57600080fd5b80359060200191846001830284011164010000000083111715610ac057600080fd5b9091929391929390803590602001909291905050506121c6565b6040518083815260200180602001828103825283818151815260200191508051906020019080838360005b83811015610b20578082015181840152602081019050610b05565b50505050905090810190601f168015610b4d5780820380516001836020036101000a031916815260200191505b50935050505060405180910390f35b610b9e60048036036020811015610b7257600080fd5b81019080803573ffffffffffffffffffffffffffffffffffffffff1690602001909291905050506122b1565b6040518082815260200191505060405180910390f35b610bbc612314565b604051808273ffffffffffffffffffffffffffffffffffffffff1673ffffffffffffffffffffffffffffffffffffffff16815260200191505060405180910390f35b610c0661233e565b604051808215151515815260200191505060405180910390f35b610c6260048036036020811015610c3657600080fd5b81019080803573ffffffffffffffffffffffffffffffffffffffff16906020019092919050505061239d565b005b610c6c6124be565b6040518080602001828103825283818151815260200191508051906020019080838360005b83811015610cac578082015181840152602081019050610c91565b50505050905090810190601f168015610cd95780820380516001836020036101000a031916815260200191505b509250505060405180910390f35b610d2960048036036020811015610cfd57600080fd5b81019080803573ffffffffffffffffffffffffffffffffffffffff169060200190929190505050612560565b604051808215151515815260200191505060405180910390f35b610e8d60048036036040811015610d5957600080fd5b8101908080359060200190640100000000811115610d7657600080fd5b820183602082011115610d8857600080fd5b80359060200191846020830284011164010000000083111715610daa57600080fd5b919080806020026020016040519081016040528093929190818152602001838360200280828437600081840152601f19601f82011690508083019250505050505050919291929080359060200190640100000000811115610e0a57600080fd5b820183602082011115610e1c57600080fd5b80359060200191846020830284011164010000000083111715610e3e57600080fd5b919080806020026020016040519081016040528093929190818152602001838360200280828437600081840152601f19601f820116905080830192505050505050509192919290505050612580565b005b610edb60048036036040811015610ea557600080fd5b81019080803573ffffffffffffffffffffffffffffffffffffffff16906020019092919080359060200190929190505050612756565b604051808215151515815260200191505060405180910390f35b610f4160048036036040811015610f0b57600080fd5b81019080803573ffffffffffffffffffffffffffffffffffffffff16906020019092919080359060200190929190505050612823565b604051808215151515815260200191505060405180910390f35b610f6361289f565b6040518080602001828103825283818151815260200191508051906020019080838360005b83811015610fa3578082015181840152602081019050610f88565b50505050905090810190601f168015610fd05780820380516001836020036101000a031916815260200191505b509250505060405180910390f35b610fe66128dc565b604051808215151515815260200191505060405180910390f35b6110426004803603602081101561101657600080fd5b81019080803573ffffffffffffffffffffffffffffffffffffffff1690602001909291905050506128ef565b005b61104c612ba8565b604051808273ffffffffffffffffffffffffffffffffffffffff1673ffffffffffffffffffffffffffffffffffffffff16815260200191505060405180910390f35b6110ba600480360360208110156110a457600080fd5b8101908080359060200190929190505050612bce565b604051808215151515815260200191505060405180910390f35b611136600480360360408110156110ea57600080fd5b81019080803573ffffffffffffffffffffffffffffffffffffffff169060200190929190803573ffffffffffffffffffffffffffffffffffffffff169060200190929190505050612d46565b6040518082815260200191505060405180910390f35b6111e36004803603608081101561116257600080fd5b810190808035906020019064010000000081111561117f57600080fd5b82018360208201111561119157600080fd5b803590602001918460018302840111640100000000831117156111b357600080fd5b90919293919293908035151590602001909291908035906020019092919080359060200190929190505050612dcd565b005b611227600480360360208110156111fb57600080fd5b81019080803573ffffffffffffffffffffffffffffffffffffffff169060200190929190505050612eaf565b604051808215151515815260200191505060405180910390f35b6112836004803603602081101561125757600080fd5b81019080803573ffffffffffffffffffffffffffffffffffffffff16906020019092919050505061307b565b005b6112b36004803603602081101561129b57600080fd5b81019080803515159060200190929190505050613101565b604051808215151515815260200191505060405180910390f35b6112d56131db565b604051808273ffffffffffffffffffffffffffffffffffffffff1673ffffffffffffffffffffffffffffffffffffffff16815260200191505060405180910390f35b606060088054600181600116156101000203166002900480601f0160208091040260200160405190810160405280929190818152602001828054600181600116156101000203166002900480156113af5780601f10611384576101008083540402835291602001916113af565b820191906000526020600020905b81548152906001019060200180831161139257829003601f168201915b5050505050905090565b60006113cd6113c6613201565b848461326d565b6001905092915050565b600c60009054906101000a900460ff1681565b6000600754905090565b6113fc612314565b73ffffffffffffffffffffffffffffffffffffffff1661141a613201565b73ffffffffffffffffffffffffffffffffffffffff1614806114905750600d60009054906101000a900473ffffffffffffffffffffffffffffffffffffffff1673ffffffffffffffffffffffffffffffffffffffff16611478613201565b73ffffffffffffffffffffffffffffffffffffffff16145b611502576040517f08c379a000000000000000000000000000000000000000000000000000000000815260040180806020018281038252600e8152602001807f4e6f7420617574686f72697a656400000000000000000000000000000000000081525060200191505060405180910390fd5b600073ffffffffffffffffffffffffffffffffffffffff168273ffffffffffffffffffffffffffffffffffffffff161415611588576040517f08c379a00000000000000000000000000000000000000000000000000000000081526004018080602001828103825260228152602001806145896022913960400191505060405180910390fd5b6115928282612823565b6115e7576040517f08c379a00000000000000000000000000000000000000000000000000000000081526004018080602001828103825260248152602001806144e76024913960400191505060405180910390fd5b600b60008373ffffffffffffffffffffffffffffffffffffffff1673ffffffffffffffffffffffffffffffffffffffff16815260200190815260200160002060009054906101000a900460ff1661171c5761168a81600e60008573ffffffffffffffffffffffffffffffffffffffff1673ffffffffffffffffffffffffffffffffffffffff1681526020019081526020016000205461346490919063ffffffff16565b600e60008473ffffffffffffffffffffffffffffffffffffffff1673ffffffffffffffffffffffffffffffffffffffff168152602001908152602001600020819055508173ffffffffffffffffffffffffffffffffffffffff167ff9626bca62c59d77fa45a204dc096874ee066a5c5e124aa9ce6c438dbdf7387a826040518082815260200191505060405180910390a25b5050565b60008161172c856122b1565b1015611783576040517f08c379a000000000000000000000000000000000000000000000000000000000815260040180806020018281038252602b81526020018061450b602b913960400191505060405180910390fd5b3073ffffffffffffffffffffffffffffffffffffffff166117a2613201565b73ffffffffffffffffffffffffffffffffffffffff1614806118185750600c60019054906101000a900473ffffffffffffffffffffffffffffffffffffffff1673ffffffffffffffffffffffffffffffffffffffff16611800613201565b73ffffffffffffffffffffffffffffffffffffffff16145b15611831576118288484846134ec565b6001905061183f565b61183c8484846137a6565b90505b9392505050565b8015600b6000611854613201565b73ffffffffffffffffffffffffffffffffffffffff1673ffffffffffffffffffffffffffffffffffffffff16815260200190815260200160002060006101000a81548160ff0219169083151502179055506118ad613201565b73ffffffffffffffffffffffffffffffffffffffff167f7dfc9d981d371c504560e5ff3ebb43d0c2e0bf396d15f366aeefd547e3038c1782604051808215151515815260200191505060405180910390a250565b6000600a60009054906101000a900460ff16905090565b60006119c1611925613201565b846119bc8560066000611936613201565b73ffffffffffffffffffffffffffffffffffffffff1673ffffffffffffffffffffffffffffffffffffffff16815260200190815260200160002060008973ffffffffffffffffffffffffffffffffffffffff1673ffffffffffffffffffffffffffffffffffffffff1681526020019081526020016000205461346490919063ffffffff16565b61326d565b6001905092915050565b600c60009054906101000a900460ff16611a30576040517f08c379a00000000000000000000000000000000000000000000000000000000081526004018080602001828103825260238152602001806145cc6023913960400191505060405180910390fd5b600c60019054906101000a900473ffffffffffffffffffffffffffffffffffffffff1673ffffffffffffffffffffffffffffffffffffffff16611a71613201565b73ffffffffffffffffffffffffffffffffffffffff1614611afa576040517f08c379a00000000000000000000000000000000000000000000000000000000081526004018080602001828103825260168152602001807f6e6f7420617574686f72697a656420746f206d696e740000000000000000000081525060200191505060405180910390fd5b611b04828261387f565b5050565b6000611b1261233e565b611b84576040517f08c379a00000000000000000000000000000000000000000000000000000000081526004018080602001828103825260208152602001807f4f776e61626c653a2063616c6c6572206973206e6f7420746865206f776e657281525060200191505060405180910390fd5b816002819055507fe43cbc6e431335d3c8bed1088480303872cac29a9dad5607362b82bfa2cd6d24826040518082815260200191505060405180910390a160019050919050565b6000600a60019054906101000a900460ff16611c4f576040517f08c379a00000000000000000000000000000000000000000000000000000000081526004018080602001828103825260178152602001807f5472616e7366657273206e6f7420617661696c61626c6500000000000000000081525060200191505060405180910390fd5b8151835114611cc6576040517f08c379a000000000000000000000000000000000000000000000000000000000815260040180806020018281038252601a8152602001807f496e707574206c656e6774687320646f206e6f74206d6174636800000000000081525060200191505060405180910390fd5b60008090505b8351811015611d1357611d05848281518110611ce457fe5b6020026020010151848381518110611cf857fe5b6020026020010151612823565b508080600101915050611ccc565b506001905092915050565b600e6020528060005260406000206000915090505481565b600080611d41613201565b905082600e60008373ffffffffffffffffffffffffffffffffffffffff1673ffffffffffffffffffffffffffffffffffffffff168152602001908152602001600020541015611df8576040517f08c379a00000000000000000000000000000000000000000000000000000000081526004018080602001828103825260188152602001807f4e6f7420656e6f756768206c6f636b656420746f6b656e73000000000000000081525060200191505060405180910390fd5b611e4a83600e60008473ffffffffffffffffffffffffffffffffffffffff1673ffffffffffffffffffffffffffffffffffffffff16815260200190815260200160002054613a3c90919063ffffffff16565b600e60008373ffffffffffffffffffffffffffffffffffffffff1673ffffffffffffffffffffffffffffffffffffffff168152602001908152602001600020819055508073ffffffffffffffffffffffffffffffffffffffff167f613edbda9d1e6bda8af8e869a973f88cccf93854a11f351589038de07e1ab4e3846040518082815260200191505060405180910390a26001915050919050565b6000600560008373ffffffffffffffffffffffffffffffffffffffff1673ffffffffffffffffffffffffffffffffffffffff168152602001908152602001600020549050919050565b611f3661233e565b611fa8576040517f08c379a00000000000000000000000000000000000000000000000000000000081526004018080602001828103825260208152602001807f4f776e61626c653a2063616c6c6572206973206e6f7420746865206f776e657281525060200191505060405180910390fd5b600073ffffffffffffffffffffffffffffffffffffffff16600160009054906101000a900473ffffffffffffffffffffffffffffffffffffffff1673ffffffffffffffffffffffffffffffffffffffff167f8be0079c531659141344cd1fd0a4f28419497f9722a3daafe3b4186f6b6457e060405160405180910390a36000600160006101000a81548173ffffffffffffffffffffffffffffffffffffffff021916908373ffffffffffffffffffffffffffffffffffffffff160217905550565b60025481565b60008060009054906101000a900473ffffffffffffffffffffffffffffffffffffffff16905090565b600360009054906101000a900473ffffffffffffffffffffffffffffffffffffffff1681565b60006120c861206f565b73ffffffffffffffffffffffffffffffffffffffff163373ffffffffffffffffffffffffffffffffffffffff161461214b576040517f08c379a00000000000000000000000000000000000000000000000000000000081526004018080602001828103825260248152602001806146146024913960400191505060405180910390fd5b61219883838080601f016020809104026020016040519081016040528093929190818152602001838380828437600081840152601f19601f82011690508083019250505050505050613a86565b905092915050565b600c60019054906101000a900473ffffffffffffffffffffffffffffffffffffffff1681565b6000606060008061221b8e8e8e8080601f016020809104026020016040519081016040528093929190818152602001838380828437600081840152601f19601f82011690508083019250505050505050613c62565b915091508115612290576122858e82604051602001808373ffffffffffffffffffffffffffffffffffffffff1673ffffffffffffffffffffffffffffffffffffffff1681526020018215151515815260200192505050604051602081830303815290604052613e4b565b9350935050506122a1565b61229a600b613e5b565b9350935050505b9b509b9950505050505050505050565b600061230d600e60008473ffffffffffffffffffffffffffffffffffffffff1673ffffffffffffffffffffffffffffffffffffffff168152602001908152602001600020546122ff84611ee5565b613a3c90919063ffffffff16565b9050919050565b6000600160009054906101000a900473ffffffffffffffffffffffffffffffffffffffff16905090565b6000600160009054906101000a900473ffffffffffffffffffffffffffffffffffffffff1673ffffffffffffffffffffffffffffffffffffffff16612381613201565b73ffffffffffffffffffffffffffffffffffffffff1614905090565b6123a561233e565b612417576040517f08c379a00000000000000000000000000000000000000000000000000000000081526004018080602001828103825260208152602001807f4f776e61626c653a2063616c6c6572206973206e6f7420746865206f776e657281525060200191505060405180910390fd5b80600d60006101000a81548173ffffffffffffffffffffffffffffffffffffffff021916908373ffffffffffffffffffffffffffffffffffffffff1602179055507f160b41d612cb5a70661603d79f54df385ff2c4bbcd52b2208a42ab8da26ec42e81604051808273ffffffffffffffffffffffffffffffffffffffff1673ffffffffffffffffffffffffffffffffffffffff16815260200191505060405180910390a150565b606060098054600181600116156101000203166002900480601f0160208091040260200160405190810160405280929190818152602001828054600181600116156101000203166002900480156125565780601f1061252b57610100808354040283529160200191612556565b820191906000526020600020905b81548152906001019060200180831161253957829003601f168201915b5050505050905090565b600b6020528060005260406000206000915054906101000a900460ff1681565b612588612314565b73ffffffffffffffffffffffffffffffffffffffff166125a6613201565b73ffffffffffffffffffffffffffffffffffffffff16148061261c5750600d60009054906101000a900473ffffffffffffffffffffffffffffffffffffffff1673ffffffffffffffffffffffffffffffffffffffff16612604613201565b73ffffffffffffffffffffffffffffffffffffffff16145b61268e576040517f08c379a000000000000000000000000000000000000000000000000000000000815260040180806020018281038252600e8152602001807f4e6f7420617574686f72697a656400000000000000000000000000000000000081525060200191505060405180910390fd5b8051825114612705576040517f08c379a000000000000000000000000000000000000000000000000000000000815260040180806020018281038252601a8152602001807f496e707574206c656e6774687320646f206e6f74206d6174636800000000000081525060200191505060405180910390fd5b60008090505b82518110156127515761274483828151811061272357fe5b602002602001015183838151811061273757fe5b60200260200101516113f4565b808060010191505061270b565b505050565b6000612819612763613201565b84612814856040518060600160405280602581526020016146ad602591396006600061278d613201565b73ffffffffffffffffffffffffffffffffffffffff1673ffffffffffffffffffffffffffffffffffffffff16815260200190815260200160002060008a73ffffffffffffffffffffffffffffffffffffffff1673ffffffffffffffffffffffffffffffffffffffff16815260200190815260200160002054613e7c9092919063ffffffff16565b61326d565b6001905092915050565b600081612836612831613201565b6122b1565b101561288d576040517f08c379a00000000000000000000000000000000000000000000000000000000081526004018080602001828103825260218152602001806145ab6021913960400191505060405180910390fd5b6128978383613f3c565b905092915050565b60606040518060400160405280600581526020017f312e302e30000000000000000000000000000000000000000000000000000000815250905090565b600a60019054906101000a900460ff1681565b6128f761233e565b612969576040517f08c379a00000000000000000000000000000000000000000000000000000000081526004018080602001828103825260208152602001807f4f776e61626c653a2063616c6c6572206973206e6f7420746865206f776e657281525060200191505060405180910390fd5b600c60009054906101000a900460ff16156129ec576040517f08c379a00000000000000000000000000000000000000000000000000000000081526004018080602001828103825260178152602001807f63616e6e6f7420696e697469616c697a6520747769636500000000000000000081525060200191505060405180910390fd5b600073ffffffffffffffffffffffffffffffffffffffff168173ffffffffffffffffffffffffffffffffffffffff161415612a8f576040517f08c379a00000000000000000000000000000000000000000000000000000000081526004018080602001828103825260148152602001807f696e76616c69642073776170206164647265737300000000000000000000000081525060200191505060405180910390fd5b80600c60016101000a81548173ffffffffffffffffffffffffffffffffffffffff021916908373ffffffffffffffffffffffffffffffffffffffff1602179055506001600a60016101000a81548160ff0219169083151502179055507f2cac12335272569cae3b5eead61f36da81730100604965d574b896ad69c991536001604051808215151515815260200191505060405180910390a16001600c60006101000a81548160ff0219169083151502179055507f78aeb0bef1108b02c5ce01e4d85d557f8dadb35e6c6b633d539a07d9b832c26a81604051808273ffffffffffffffffffffffffffffffffffffffff1673ffffffffffffffffffffffffffffffffffffffff16815260200191505060405180910390a150565b600d60009054906101000a900473ffffffffffffffffffffffffffffffffffffffff1681565b600080612bd9613201565b905082612be5826122b1565b1015612c59576040517f08c379a000000000000000000000000000000000000000000000000000000000815260040180806020018281038252601a8152602001807f4e6f7420656e6f75676820756e6c6f636b656420746f6b656e7300000000000081525060200191505060405180910390fd5b612cab83600e60008473ffffffffffffffffffffffffffffffffffffffff1673ffffffffffffffffffffffffffffffffffffffff1681526020019081526020016000205461346490919063ffffffff16565b600e60008373ffffffffffffffffffffffffffffffffffffffff1673ffffffffffffffffffffffffffffffffffffffff168152602001908152602001600020819055508073ffffffffffffffffffffffffffffffffffffffff167ff9626bca62c59d77fa45a204dc096874ee066a5c5e124aa9ce6c438dbdf7387a846040518082815260200191505060405180910390a26001915050919050565b6000600660008473ffffffffffffffffffffffffffffffffffffffff1673ffffffffffffffffffffffffffffffffffffffff16815260200190815260200160002060008373ffffffffffffffffffffffffffffffffffffffff1673ffffffffffffffffffffffffffffffffffffffff16815260200190815260200160002054905092915050565b612dd561206f565b73ffffffffffffffffffffffffffffffffffffffff163373ffffffffffffffffffffffffffffffffffffffff1614612e58576040517f08c379a00000000000000000000000000000000000000000000000000000000081526004018080602001828103825260248152602001806146146024913960400191505060405180910390fd5b612ea885858080601f016020809104026020016040519081016040528093929190818152602001838380828437600081840152601f19601f82011690508083019250505050505050848484613f5a565b5050505050565b6000612eb961233e565b612f2b576040517f08c379a00000000000000000000000000000000000000000000000000000000081526004018080602001828103825260208152602001807f4f776e61626c653a2063616c6c6572206973206e6f7420746865206f776e657281525060200191505060405180910390fd5b600073ffffffffffffffffffffffffffffffffffffffff168273ffffffffffffffffffffffffffffffffffffffff161415612fce576040517f08c379a00000000000000000000000000000000000000000000000000000000081526004018080602001828103825260178152602001807f496e76616c69642072657365727665206164647265737300000000000000000081525060200191505060405180910390fd5b81600360006101000a81548173ffffffffffffffffffffffffffffffffffffffff021916908373ffffffffffffffffffffffffffffffffffffffff1602179055507f2d9c1b8b9564d60efd2f7c8a3742a514dae67760a74c804271e63b17420d100d82604051808273ffffffffffffffffffffffffffffffffffffffff1673ffffffffffffffffffffffffffffffffffffffff16815260200191505060405180910390a160019050919050565b61308361233e565b6130f5576040517f08c379a00000000000000000000000000000000000000000000000000000000081526004018080602001828103825260208152602001807f4f776e61626c653a2063616c6c6572206973206e6f7420746865206f776e657281525060200191505060405180910390fd5b6130fe81614130565b50565b600061310b61233e565b61317d576040517f08c379a00000000000000000000000000000000000000000000000000000000081526004018080602001828103825260208152602001807f4f776e61626c653a2063616c6c6572206973206e6f7420746865206f776e657281525060200191505060405180910390fd5b81600a60016101000a81548160ff0219169083151502179055507f2cac12335272569cae3b5eead61f36da81730100604965d574b896ad69c9915382604051808215151515815260200191505060405180910390a160019050919050565b600460009054906101000a900473ffffffffffffffffffffffffffffffffffffffff1681565b60008060009054906101000a900473ffffffffffffffffffffffffffffffffffffffff1673ffffffffffffffffffffffffffffffffffffffff163373ffffffffffffffffffffffffffffffffffffffff161461325f5733905061326a565b613267614276565b90505b90565b600073ffffffffffffffffffffffffffffffffffffffff168373ffffffffffffffffffffffffffffffffffffffff1614156132f3576040517f08c379a00000000000000000000000000000000000000000000000000000000081526004018080602001828103825260248152602001806146386024913960400191505060405180910390fd5b600073ffffffffffffffffffffffffffffffffffffffff168273ffffffffffffffffffffffffffffffffffffffff161415613379576040517f08c379a00000000000000000000000000000000000000000000000000000000081526004018080602001828103825260228152602001806144796022913960400191505060405180910390fd5b80600660008573ffffffffffffffffffffffffffffffffffffffff1673ffffffffffffffffffffffffffffffffffffffff16815260200190815260200160002060008473ffffffffffffffffffffffffffffffffffffffff1673ffffffffffffffffffffffffffffffffffffffff168152602001908152602001600020819055508173ffffffffffffffffffffffffffffffffffffffff168373ffffffffffffffffffffffffffffffffffffffff167f8c5be1e5ebec7d5bd14f71427d1e84f3dd0314c0f7b2291e5b200ac8c7c3b925836040518082815260200191505060405180910390a3505050565b6000808284019050838110156134e2576040517f08c379a000000000000000000000000000000000000000000000000000000000815260040180806020018281038252601b8152602001807f536166654d6174683a206164646974696f6e206f766572666c6f77000000000081525060200191505060405180910390fd5b8091505092915050565b600073ffffffffffffffffffffffffffffffffffffffff168373ffffffffffffffffffffffffffffffffffffffff161415613572576040517f08c379a00000000000000000000000000000000000000000000000000000000081526004018080602001828103825260258152602001806145ef6025913960400191505060405180910390fd5b600073ffffffffffffffffffffffffffffffffffffffff168273ffffffffffffffffffffffffffffffffffffffff1614156135f8576040517f08c379a00000000000000000000000000000000000000000000000000000000081526004018080602001828103825260238152602001806144306023913960400191505060405180910390fd5b613664816040518060600160405280602681526020016144c160269139600560008773ffffffffffffffffffffffffffffffffffffffff1673ffffffffffffffffffffffffffffffffffffffff16815260200190815260200160002054613e7c9092919063ffffffff16565b600560008573ffffffffffffffffffffffffffffffffffffffff1673ffffffffffffffffffffffffffffffffffffffff168152602001908152602001600020819055506136f981600560008573ffffffffffffffffffffffffffffffffffffffff1673ffffffffffffffffffffffffffffffffffffffff1681526020019081526020016000205461346490919063ffffffff16565b600560008473ffffffffffffffffffffffffffffffffffffffff1673ffffffffffffffffffffffffffffffffffffffff168152602001908152602001600020819055508173ffffffffffffffffffffffffffffffffffffffff168373ffffffffffffffffffffffffffffffffffffffff167fddf252ad1be2c89b69c2b068fc378daa952ba7f163c4a11628f55a4df523b3ef836040518082815260200191505060405180910390a3505050565b60006137b38484846134ec565b613874846137bf613201565b61386f8560405180606001604052806028815260200161456160289139600660008b73ffffffffffffffffffffffffffffffffffffffff1673ffffffffffffffffffffffffffffffffffffffff1681526020019081526020016000206000613825613201565b73ffffffffffffffffffffffffffffffffffffffff1673ffffffffffffffffffffffffffffffffffffffff16815260200190815260200160002054613e7c9092919063ffffffff16565b61326d565b600190509392505050565b600073ffffffffffffffffffffffffffffffffffffffff168273ffffffffffffffffffffffffffffffffffffffff161415613922576040517f08c379a000000000000000000000000000000000000000000000000000000000815260040180806020018281038252601f8152602001807f45524332303a206d696e7420746f20746865207a65726f20616464726573730081525060200191505060405180910390fd5b6139378160075461346490919063ffffffff16565b60078190555061398f81600560008573ffffffffffffffffffffffffffffffffffffffff1673ffffffffffffffffffffffffffffffffffffffff1681526020019081526020016000205461346490919063ffffffff16565b600560008473ffffffffffffffffffffffffffffffffffffffff1673ffffffffffffffffffffffffffffffffffffffff168152602001908152602001600020819055508173ffffffffffffffffffffffffffffffffffffffff16600073ffffffffffffffffffffffffffffffffffffffff167fddf252ad1be2c89b69c2b068fc378daa952ba7f163c4a11628f55a4df523b3ef836040518082815260200191505060405180910390a35050565b6000613a7e83836040518060400160405280601e81526020017f536166654d6174683a207375627472616374696f6e206f766572666c6f770000815250613e7c565b905092915050565b6000806000838060200190516040811015613aa057600080fd5b810190808051906020019092919080519060200190929190505050915091508015613c5757600460009054906101000a900473ffffffffffffffffffffffffffffffffffffffff1673ffffffffffffffffffffffffffffffffffffffff166323b872dd83600360009054906101000a900473ffffffffffffffffffffffffffffffffffffffff166002546040518463ffffffff1660e01b8152600401808473ffffffffffffffffffffffffffffffffffffffff1673ffffffffffffffffffffffffffffffffffffffff1681526020018373ffffffffffffffffffffffffffffffffffffffff1673ffffffffffffffffffffffffffffffffffffffff1681526020018281526020019350505050602060405180830381600087803b158015613bc657600080fd5b505af1158015613bda573d6000803e3d6000fd5b505050506040513d6020811015613bf057600080fd5b8101908080519060200190929190505050613c56576040517f08c379a000000000000000000000000000000000000000000000000000000000815260040180806020018281038252602c81526020018061465c602c913960400191505060405180910390fd5b5b600092505050919050565b6000806000600190506000600460009054906101000a900473ffffffffffffffffffffffffffffffffffffffff1673ffffffffffffffffffffffffffffffffffffffff166384955c88876040518263ffffffff1660e01b8152600401808273ffffffffffffffffffffffffffffffffffffffff1673ffffffffffffffffffffffffffffffffffffffff16815260200191505060206040518083038186803b158015613d0c57600080fd5b505afa158015613d20573d6000803e3d6000fd5b505050506040513d6020811015613d3657600080fd5b81019080805190602001909291905050509050600254811015613e3a576000613d608660006142ee565b905060405180807f636f6e766572742875696e743235362900000000000000000000000000000000815250601001905060405180910390207bffffffffffffffffffffffffffffffffffffffffffffffffffffffff1916817bffffffffffffffffffffffffffffffffffffffffffffffffffffffff19161415613e2b576000613dfc83613dee896000614387565b61346490919063ffffffff16565b90506002548110613e1b57600093506001849550955050505050613e44565b6000849550955050505050613e44565b60008394509450505050613e44565b6001829350935050505b9250929050565b6000606060008391509150915091565b6000606082600b016040518060200160405280600081525091509150915091565b6000838311158290613f29576040517f08c379a00000000000000000000000000000000000000000000000000000000081526004018080602001828103825283818151815260200191508051906020019080838360005b83811015613eee578082015181840152602081019050613ed3565b50505050905090810190601f168015613f1b5780820380516001836020036101000a031916815260200191505b509250505060405180910390fd5b5060008385039050809150509392505050565b6000613f50613f49613201565b84846134ec565b6001905092915050565b600080858060200190516040811015613f7257600080fd5b810190808051906020019092919080519060200190929190505050915091508061412857600460009054906101000a900473ffffffffffffffffffffffffffffffffffffffff1673ffffffffffffffffffffffffffffffffffffffff166323b872dd83600360009054906101000a900473ffffffffffffffffffffffffffffffffffffffff166002546040518463ffffffff1660e01b8152600401808473ffffffffffffffffffffffffffffffffffffffff1673ffffffffffffffffffffffffffffffffffffffff1681526020018373ffffffffffffffffffffffffffffffffffffffff1673ffffffffffffffffffffffffffffffffffffffff1681526020018281526020019350505050602060405180830381600087803b15801561409757600080fd5b505af11580156140ab573d6000803e3d6000fd5b505050506040513d60208110156140c157600080fd5b8101908080519060200190929190505050614127576040517f08c379a000000000000000000000000000000000000000000000000000000000815260040180806020018281038252602b815260200180614536602b913960400191505060405180910390fd5b5b505050505050565b600073ffffffffffffffffffffffffffffffffffffffff168173ffffffffffffffffffffffffffffffffffffffff1614156141b6576040517f08c379a00000000000000000000000000000000000000000000000000000000081526004018080602001828103825260268152602001806144536026913960400191505060405180910390fd5b8073ffffffffffffffffffffffffffffffffffffffff16600160009054906101000a900473ffffffffffffffffffffffffffffffffffffffff1673ffffffffffffffffffffffffffffffffffffffff167f8be0079c531659141344cd1fd0a4f28419497f9722a3daafe3b4186f6b6457e060405160405180910390a380600160006101000a81548173ffffffffffffffffffffffffffffffffffffffff021916908373ffffffffffffffffffffffffffffffffffffffff16021790555050565b600060606000368080601f016020809104026020016040519081016040528093929190818152602001838380828437600081840152601f19601f820116905080830192505050505050509050600080369050905073ffffffffffffffffffffffffffffffffffffffff81830151169250829250505090565b6000600482018351101561434d576040517f08c379a00000000000000000000000000000000000000000000000000000000081526004018080602001828103825260258152602001806146886025913960400191505060405180910390fd5b6020820191508183015190507fffffffff000000000000000000000000000000000000000000000000000000008116905080905092915050565b600061439983602084026004016143a1565b905092915050565b60006143ad83836143bb565b60001c905080905092915050565b6000602082018351101561441a576040517f08c379a000000000000000000000000000000000000000000000000000000000815260040180806020018281038252602681526020018061449b6026913960400191505060405180910390fd5b6020820191508183015190508090509291505056fe45524332303a207472616e7366657220746f20746865207a65726f20616464726573734f776e61626c653a206e6577206f776e657220697320746865207a65726f206164647265737345524332303a20617070726f766520746f20746865207a65726f2061646472657373475245415445525f4f525f455155414c5f544f5f33325f4c454e4754485f524551554952454445524332303a207472616e7366657220616d6f756e7420657863656564732062616c616e63655472616e73666572206661696c73207768656e20726577617264696e67206120757365724e6f7420656e6f75676820756e6c6f636b656420746f6b656e2062616c616e6365206f662073656e6465724368617267696e67206661696c7320616674657220657865637574696e67207468652066756e6374696f6e45524332303a207472616e7366657220616d6f756e74206578636565647320616c6c6f77616e6365496e76616c696420726563697069656e7420616464726573732070726f76696465644e6f7420656e6f75676820756e6c6f636b656420746f6b656e2062616c616e636554686520636f6e7472616374206973206e6f7420696e697469616c697a65642079657445524332303a207472616e736665722066726f6d20746865207a65726f206164647265737347534e526563697069656e743a2063616c6c6572206973206e6f742052656c617948756245524332303a20617070726f76652066726f6d20746865207a65726f20616464726573734368617267696e67206661696c73206265666f726520657865637574696e67207468652066756e6374696f6e475245415445525f4f525f455155414c5f544f5f345f4c454e4754485f524551554952454445524332303a2064656372656173656420616c6c6f77616e63652062656c6f77207a65726fa265627a7a723158205158281908c06cef99a304f87f1ce714090e7f84fadbd6fe3377a368ce719d4d64736f6c63430005100032",
  "source": "pragma solidity 0.5.16;\n\nimport \"@openzeppelin/contracts/token/ERC20/ERC20Detailed.sol\";\nimport \"@openzeppelin/contracts/token/ERC20/ERC20.sol\";\nimport \"@openzeppelin/contracts/math/SafeMath.sol\";\nimport \"./StormXGSNRecipient.sol\";\n\n\ncontract StormXToken is\n  StormXGSNRecipient,\n  ERC20,\n  ERC20Detailed(\"StormX\", \"STMX\", 18) {\n\n  using SafeMath for uint256;\n\n  bool public transfersEnabled;\n  mapping(address => bool) public autoStakingDisabled;\n  bool public initialized = false;\n  address public swap;\n  address public rewardRole;\n\n  // Variables for staking feature\n  mapping(address => uint256) public lockedBalanceOf;\n\n  event TokenLocked(address indexed account, uint256 amount);\n  event TokenUnlocked(address indexed account, uint256 amount);\n  event TransfersEnabled(bool newStatus);\n  event SwapAddressAdded(address swap);\n  event RewardRoleAssigned(address rewardRole);\n  event AutoStakingSet(address indexed account, bool status);\n\n  modifier transfersAllowed {\n    require(transfersEnabled, \"Transfers not available\");\n    _;\n  }\n\n  modifier onlyAuthorized {\n    require(_msgSender() == owner() || _msgSender() == rewardRole, \"Not authorized\");\n    _;\n  }\n\n  /**\n   * @param reserve address of the StormX's reserve that receives GSN charge fee\n   * GSN charged fees and remaining tokens\n   * after the token migration is closed\n   */\n  constructor(address reserve)\n    // solhint-disable-next-line visibility-modifier-order\n    StormXGSNRecipient(address(this), reserve) public {\n    }\n\n  /**\n   * @param account address of the user this function queries unlocked balance for\n   * @return the amount of unlocked tokens of the given address\n   *         i.e. the amount of manipulable tokens of the given address\n   */\n  function unlockedBalanceOf(address account) public view returns (uint256) {\n    return balanceOf(account).sub(lockedBalanceOf[account]);\n  }\n\n  /**\n   * @dev Locks specified amount of tokens for the user\n   *      Locked tokens are not manipulable until being unlocked\n   *      Locked tokens are still reported as owned by the user\n   *      when ``balanceOf()`` is called\n   * @param amount specified amount of tokens to be locked\n   * @return success status of the locking\n   */\n  function lock(uint256 amount) public returns (bool) {\n    address account = _msgSender();\n    require(unlockedBalanceOf(account) >= amount, \"Not enough unlocked tokens\");\n    lockedBalanceOf[account] = lockedBalanceOf[account].add(amount);\n    emit TokenLocked(account, amount);\n    return true;\n  }\n\n  /**\n   * @dev Unlocks specified amount of tokens for the user\n   *      Unlocked tokens are manipulable until being locked\n   * @param amount specified amount of tokens to be unlocked\n   * @return success status of the unlocking\n   */\n  function unlock(uint256 amount) public returns (bool) {\n    address account = _msgSender();\n    require(lockedBalanceOf[account] >= amount, \"Not enough locked tokens\");\n    lockedBalanceOf[account] = lockedBalanceOf[account].sub(amount);\n    emit TokenUnlocked(account, amount);\n    return true;\n  }\n\n  /**\n   * @dev The only difference from standard ERC20 ``transferFrom()`` is that\n   *     it only succeeds if the sender has enough unlocked tokens\n   *     Note: this function is also used by every StormXGSNRecipient\n   *           when charging.\n   * @param sender address of the sender\n   * @param recipient address of the recipient\n   * @param amount specified amount of tokens to be transferred\n   * @return success status of the transferring\n   */\n  function transferFrom(address sender, address recipient, uint256 amount) public returns (bool) {\n    require(unlockedBalanceOf(sender) >= amount, \"Not enough unlocked token balance of sender\");\n    // if the msg.sender is charging ``sender`` for a GSN fee\n    // allowance does not apply\n    // so that no user approval is required for GSN calls\n    if (_msgSender() == address(this) || _msgSender() == swap) {\n      _transfer(sender, recipient, amount);\n      return true;\n    } else {\n      return super.transferFrom(sender, recipient, amount);\n    }\n  }\n\n  /**\n   * @dev The only difference from standard ERC20 ``transfer()`` is that\n   *     it only succeeds if the user has enough unlocked tokens\n   * @param recipient address of the recipient\n   * @param amount specified amount of tokens to be transferred\n   * @return success status of the transferring\n   */\n  function transfer(address recipient, uint256 amount) public returns (bool) {\n    require(unlockedBalanceOf(_msgSender()) >= amount, \"Not enough unlocked token balance\");\n    return super.transfer(recipient, amount);\n  }\n\n  /**\n   * @dev Transfers tokens in batch\n   * @param recipients an array of recipient addresses\n   * @param values an array of specified amount of tokens to be transferred\n   * @return success status of the batch transferring\n   */\n  function transfers(\n    address[] memory recipients,\n    uint256[] memory values\n  ) public transfersAllowed returns (bool) {\n    require(recipients.length == values.length, \"Input lengths do not match\");\n\n    for (uint256 i = 0; i < recipients.length; i++) {\n      transfer(recipients[i], values[i]);\n    }\n    return true;\n  }\n\n  /**\n   * @dev Enables the method ``transfers()`` if ``enable=true``,\n   * and disables ``transfers()`` otherwise\n   * @param enable the expected new availability of the method ``transfers()``\n   */\n  function enableTransfers(bool enable) public onlyOwner returns (bool) {\n    transfersEnabled = enable;\n    emit TransfersEnabled(enable);\n    return true;\n  }\n\n  function mint(address account, uint256 amount) public {\n    require(initialized, \"The contract is not initialized yet\");\n    require(_msgSender() == swap, \"not authorized to mint\");\n    _mint(account, amount);\n  }\n\n  /**\n   * @dev Initializes this contract\n   *      Sets address ``swap`` as the only valid minter for this token\n   *      Note: must be called before token migration opens in ``Swap.sol``\n   * @param _swap address of the deployed contract ``Swap.sol``\n   */\n  function initialize(address _swap) public onlyOwner {\n    require(!initialized, \"cannot initialize twice\");\n    require(_swap != address(0), \"invalid swap address\");\n    swap = _swap;\n    transfersEnabled = true;\n    emit TransfersEnabled(true);\n    initialized = true;\n    emit SwapAddressAdded(_swap);\n  }\n\n  /**\n   * @dev Assigns `rewardRole` to the specified address\n   * @param account address to be assigned as the `rewardRole`\n   */\n  function assignRewardRole(address account) public onlyOwner {\n    rewardRole = account;\n    emit RewardRoleAssigned(account);\n  }\n\n  /**\n   * @dev Transfers tokens to users as rewards\n   * @param recipient address that receives the rewarded tokens\n   * @param amount amount of rewarded tokens\n   */\n  function reward(address recipient, uint256 amount) public onlyAuthorized {\n    require(recipient != address(0), \"Invalid recipient address provided\");\n\n    require(transfer(recipient, amount), \"Transfer fails when rewarding a user\");\n    // If `autoStakingDisabled[user] == false`,\n    // auto staking is enabled for current user\n    if (!autoStakingDisabled[recipient]) {\n      lockedBalanceOf[recipient] = lockedBalanceOf[recipient].add(amount);\n      emit TokenLocked(recipient, amount);\n    }\n  }\n\n  /**\n   * @dev Rewards users in batch\n   * @param recipients an array of recipient address\n   * @param values an array of specified amount of tokens to be rewarded\n   */\n  function rewards(address[] memory recipients, uint256[] memory values) public onlyAuthorized {\n    require(recipients.length == values.length, \"Input lengths do not match\");\n\n    for (uint256 i = 0; i < recipients.length; i++) {\n      reward(recipients[i], values[i]);\n    }\n  }\n\n  /**\n   * @dev Sets auto-staking feature status for users\n   * If `enabled = true`, rewarded tokens will be automatically staked for the message sender\n   * Else, rewarded tokens will not be automatically staked for the message sender.\n   * @param enabled expected status of the user's auto-staking feature status\n   */\n  function setAutoStaking(bool enabled) public {\n    // If `enabled == false`, set `autoStakingDisabled[user] = true`\n    autoStakingDisabled[_msgSender()] = !enabled;\n    emit AutoStakingSet(_msgSender(), enabled);\n  }\n}\n",
  "sourcePath": "/Users/evaxu/Desktop/stormx-token/contracts/StormXToken.sol",
  "compiler": {
    "name": "solc",
    "version": "0.5.16+commit.9c3226ce.Emscripten.clang"
  },
  "schemaVersion": "3.0.21",
  "updatedAt": "2020-04-16T03:32:44.724Z",
  "networkType": "ethereum",
  "devdoc": {
    "methods": {
      "acceptRelayedCall(address,address,bytes,uint256,uint256,uint256,uint256,bytes,uint256)": {
        "details": "Called by {IRelayHub} to validate if this recipient accepts being charged for a relayed call. Note that the recipient will be charged regardless of the execution result of the relayed call (i.e. if it reverts or not).   * The relay request was originated by `from` and will be served by `relay`. `encodedFunction` is the relayed call calldata, so its first four bytes are the function selector. The relayed call will be forwarded `gasLimit` gas, and the transaction executed with a gas price of at least `gasPrice`. `relay`'s fee is `transactionFee`, and the recipient will be charged at most `maxPossibleCharge` (in wei). `nonce` is the sender's (`from`) nonce for replay attack protection in {IRelayHub}, and `approvalData` is a optional parameter that can be used to hold a signature over all or some of the previous values.   * Returns a tuple, where the first value is used to indicate approval (0) or rejection (custom non-zero error code, values 1 to 10 are reserved) and the second one is data to be passed to the other {IRelayRecipient} functions.   * {acceptRelayedCall} is called with 50k gas: if it runs out during execution, the request will be considered rejected. A regular revert will also trigger a rejection."
      },
      "allowance(address,address)": {
        "details": "See {IERC20-allowance}."
      },
      "approve(address,uint256)": {
        "details": "See {IERC20-approve}.     * Requirements:     * - `spender` cannot be the zero address."
      },
      "assignRewardRole(address)": {
        "details": "Assigns `rewardRole` to the specified address",
        "params": {
          "account": "address to be assigned as the `rewardRole`"
        }
      },
      "balanceOf(address)": {
        "details": "See {IERC20-balanceOf}."
      },
      "constructor": {
        "params": {
          "reserve": "address of the StormX's reserve that receives GSN charge fee GSN charged fees and remaining tokens after the token migration is closed"
        }
      },
      "decimals()": {
        "details": "Returns the number of decimals used to get its user representation. For example, if `decimals` equals `2`, a balance of `505` tokens should be displayed to a user as `5,05` (`505 / 10 ** 2`).     * Tokens usually opt for a value of 18, imitating the relationship between Ether and Wei.     * NOTE: This information is only used for _display_ purposes: it in no way affects any of the arithmetic of the contract, including {IERC20-balanceOf} and {IERC20-transfer}."
      },
      "decreaseAllowance(address,uint256)": {
        "details": "Atomically decreases the allowance granted to `spender` by the caller.     * This is an alternative to {approve} that can be used as a mitigation for problems described in {IERC20-approve}.     * Emits an {Approval} event indicating the updated allowance.     * Requirements:     * - `spender` cannot be the zero address. - `spender` must have allowance for the caller of at least `subtractedValue`."
      },
      "enableTransfers(bool)": {
        "details": "Enables the method ``transfers()`` if ``enable=true``, and disables ``transfers()`` otherwise",
        "params": {
          "enable": "the expected new availability of the method ``transfers()``"
        }
      },
      "getHubAddr()": {
        "details": "Returns the address of the {IRelayHub} contract for this recipient."
      },
      "increaseAllowance(address,uint256)": {
        "details": "Atomically increases the allowance granted to `spender` by the caller.     * This is an alternative to {approve} that can be used as a mitigation for problems described in {IERC20-approve}.     * Emits an {Approval} event indicating the updated allowance.     * Requirements:     * - `spender` cannot be the zero address."
      },
      "initialize(address)": {
        "details": "Initializes this contract     Sets address ``swap`` as the only valid minter for this token     Note: must be called before token migration opens in ``Swap.sol``",
        "params": {
          "_swap": "address of the deployed contract ``Swap.sol``"
        }
      },
      "isOwner()": {
        "details": "Returns true if the caller is the current owner."
      },
      "lock(uint256)": {
        "details": "Locks specified amount of tokens for the user     Locked tokens are not manipulable until being unlocked     Locked tokens are still reported as owned by the user     when ``balanceOf()`` is called",
        "params": {
          "amount": "specified amount of tokens to be locked"
        },
        "return": "success status of the locking"
      },
      "name()": {
        "details": "Returns the name of the token."
      },
      "owner()": {
        "details": "Returns the address of the current owner."
      },
      "postRelayedCall(bytes,bool,uint256,bytes32)": {
        "details": "See `IRelayRecipient.postRelayedCall`.     * This function should not be overriden directly, use `_postRelayedCall` instead.     * * Requirements:     * - the caller must be the `RelayHub` contract."
      },
      "preRelayedCall(bytes)": {
        "details": "See `IRelayRecipient.preRelayedCall`.     * This function should not be overriden directly, use `_preRelayedCall` instead.     * * Requirements:     * - the caller must be the `RelayHub` contract."
      },
      "relayHubVersion()": {
        "details": "Returns the version string of the {IRelayHub} for which this recipient implementation was built. If {_upgradeRelayHub} is used, the new {IRelayHub} instance should be compatible with this version."
      },
      "renounceOwnership()": {
        "details": "Leaves the contract without owner. It will not be possible to call `onlyOwner` functions anymore. Can only be called by the current owner.     * NOTE: Renouncing ownership will leave the contract without an owner, thereby removing any functionality that is only available to the owner."
      },
      "reward(address,uint256)": {
        "details": "Transfers tokens to users as rewards",
        "params": {
          "amount": "amount of rewarded tokens",
          "recipient": "address that receives the rewarded tokens"
        }
      },
      "rewards(address[],uint256[])": {
        "details": "Rewards users in batch",
        "params": {
          "recipients": "an array of recipient address",
          "values": "an array of specified amount of tokens to be rewarded"
        }
      },
      "setAutoStaking(bool)": {
        "details": "Sets auto-staking feature status for users If `enabled = true`, rewarded tokens will be automatically staked for the message sender Else, rewarded tokens will not be automatically staked for the message sender.",
        "params": {
          "enabled": "expected status of the user's auto-staking feature status"
        }
      },
      "setChargeFee(uint256)": {
        "details": "Sets the charge fee for GSN calls",
        "params": {
          "newFee": "the new charge fee"
        },
        "return": "success status of the setting"
      },
      "setStormXReserve(address)": {
        "details": "Sets the address of StormX's reserve",
        "params": {
          "newReserve": "the new address of StormX's reserve"
        },
        "return": "success status of the setting"
      },
      "symbol()": {
        "details": "Returns the symbol of the token, usually a shorter version of the name."
      },
      "totalSupply()": {
        "details": "See {IERC20-totalSupply}."
      },
      "transfer(address,uint256)": {
        "details": "The only difference from standard ERC20 ``transfer()`` is that    it only succeeds if the user has enough unlocked tokens",
        "params": {
          "amount": "specified amount of tokens to be transferred",
          "recipient": "address of the recipient"
        },
        "return": "success status of the transferring"
      },
      "transferFrom(address,address,uint256)": {
        "details": "The only difference from standard ERC20 ``transferFrom()`` is that    it only succeeds if the sender has enough unlocked tokens    Note: this function is also used by every StormXGSNRecipient          when charging.",
        "params": {
          "amount": "specified amount of tokens to be transferred",
          "recipient": "address of the recipient",
          "sender": "address of the sender"
        },
        "return": "success status of the transferring"
      },
      "transferOwnership(address)": {
        "details": "Transfers ownership of the contract to a new account (`newOwner`). Can only be called by the current owner."
      },
      "transfers(address[],uint256[])": {
        "details": "Transfers tokens in batch",
        "params": {
          "recipients": "an array of recipient addresses",
          "values": "an array of specified amount of tokens to be transferred"
        },
        "return": "success status of the batch transferring"
      },
      "unlock(uint256)": {
        "details": "Unlocks specified amount of tokens for the user     Unlocked tokens are manipulable until being locked",
        "params": {
          "amount": "specified amount of tokens to be unlocked"
        },
        "return": "success status of the unlocking"
      },
      "unlockedBalanceOf(address)": {
        "params": {
          "account": "address of the user this function queries unlocked balance for"
        },
        "return": "the amount of unlocked tokens of the given address        i.e. the amount of manipulable tokens of the given address"
      }
    }
  },
  "userdoc": {
    "methods": {
      "acceptRelayedCall(address,address,bytes,uint256,uint256,uint256,uint256,bytes,uint256)": {
        "notice": "Note: the documentation is copied from `openzeppelin-contracts/contracts/GSN/IRelayRecipient.sol`"
      }
    }
  }
}