{
  "contractName": "Swap",
  "abi": [
    {
      "inputs": [
        {
          "internalType": "address",
          "name": "_oldToken",
          "type": "address"
        },
        {
          "internalType": "address",
          "name": "_newToken",
          "type": "address"
        },
        {
          "internalType": "address",
          "name": "reserve",
          "type": "address"
        }
      ],
      "payable": false,
      "stateMutability": "nonpayable",
      "type": "constructor"
    },
    {
      "anonymous": false,
      "inputs": [
        {
          "indexed": false,
          "internalType": "uint256",
          "name": "newFee",
          "type": "uint256"
        }
      ],
      "name": "ChargeFeeSet",
      "type": "event"
    },
    {
      "anonymous": false,
      "inputs": [
        {
          "indexed": false,
          "internalType": "uint256",
          "name": "initializeTime",
          "type": "uint256"
        }
      ],
      "name": "Initialized",
      "type": "event"
    },
    {
      "anonymous": false,
      "inputs": [],
      "name": "MigrationClosed",
      "type": "event"
    },
    {
      "anonymous": false,
      "inputs": [
        {
          "indexed": false,
          "internalType": "address",
          "name": "stormXReserve",
          "type": "address"
        },
        {
          "indexed": false,
          "internalType": "uint256",
          "name": "amount",
          "type": "uint256"
        }
      ],
      "name": "MigrationLeftoverTransferred",
      "type": "event"
    },
    {
      "anonymous": false,
      "inputs": [],
      "name": "MigrationOpen",
      "type": "event"
    },
    {
      "anonymous": false,
      "inputs": [
        {
          "indexed": true,
          "internalType": "address",
          "name": "previousOwner",
          "type": "address"
        },
        {
          "indexed": true,
          "internalType": "address",
          "name": "newOwner",
          "type": "address"
        }
      ],
      "name": "OwnershipTransferred",
      "type": "event"
    },
    {
      "anonymous": false,
      "inputs": [
        {
          "indexed": true,
          "internalType": "address",
          "name": "oldRelayHub",
          "type": "address"
        },
        {
          "indexed": true,
          "internalType": "address",
          "name": "newRelayHub",
          "type": "address"
        }
      ],
      "name": "RelayHubChanged",
      "type": "event"
    },
    {
      "anonymous": false,
      "inputs": [
        {
          "indexed": false,
          "internalType": "address",
          "name": "newAddress",
          "type": "address"
        }
      ],
      "name": "StormXReserveSet",
      "type": "event"
    },
    {
      "anonymous": false,
      "inputs": [
        {
          "indexed": true,
          "internalType": "address",
          "name": "account",
          "type": "address"
        },
        {
          "indexed": false,
          "internalType": "uint256",
          "name": "newToken",
          "type": "uint256"
        }
      ],
      "name": "TokenConverted",
      "type": "event"
    },
    {
      "constant": true,
      "inputs": [],
      "name": "MIGRATION_TIME",
      "outputs": [
        {
          "internalType": "uint256",
          "name": "",
          "type": "uint256"
        }
      ],
      "payable": false,
      "stateMutability": "view",
      "type": "function"
    },
    {
      "constant": true,
      "inputs": [
        {
          "internalType": "address",
          "name": "relay",
          "type": "address"
        },
        {
          "internalType": "address",
          "name": "from",
          "type": "address"
        },
        {
          "internalType": "bytes",
          "name": "encodedFunction",
          "type": "bytes"
        },
        {
          "internalType": "uint256",
          "name": "transactionFee",
          "type": "uint256"
        },
        {
          "internalType": "uint256",
          "name": "gasPrice",
          "type": "uint256"
        },
        {
          "internalType": "uint256",
          "name": "gasLimit",
          "type": "uint256"
        },
        {
          "internalType": "uint256",
          "name": "nonce",
          "type": "uint256"
        },
        {
          "internalType": "bytes",
          "name": "approvalData",
          "type": "bytes"
        },
        {
          "internalType": "uint256",
          "name": "maxPossibleCharge",
          "type": "uint256"
        }
      ],
      "name": "acceptRelayedCall",
      "outputs": [
        {
          "internalType": "uint256",
          "name": "",
          "type": "uint256"
        },
        {
          "internalType": "bytes",
          "name": "",
          "type": "bytes"
        }
      ],
      "payable": false,
      "stateMutability": "view",
      "type": "function"
    },
    {
      "constant": true,
      "inputs": [],
      "name": "chargeFee",
      "outputs": [
        {
          "internalType": "uint256",
          "name": "",
          "type": "uint256"
        }
      ],
      "payable": false,
      "stateMutability": "view",
      "type": "function"
    },
    {
      "constant": true,
      "inputs": [],
      "name": "getHubAddr",
      "outputs": [
        {
          "internalType": "address",
          "name": "",
          "type": "address"
        }
      ],
      "payable": false,
      "stateMutability": "view",
      "type": "function"
    },
    {
      "constant": true,
      "inputs": [],
      "name": "initializeTime",
      "outputs": [
        {
          "internalType": "uint256",
          "name": "",
          "type": "uint256"
        }
      ],
      "payable": false,
      "stateMutability": "view",
      "type": "function"
    },
    {
      "constant": true,
      "inputs": [],
      "name": "initialized",
      "outputs": [
        {
          "internalType": "bool",
          "name": "",
          "type": "bool"
        }
      ],
      "payable": false,
      "stateMutability": "view",
      "type": "function"
    },
    {
      "constant": true,
      "inputs": [],
      "name": "isOwner",
      "outputs": [
        {
          "internalType": "bool",
          "name": "",
          "type": "bool"
        }
      ],
      "payable": false,
      "stateMutability": "view",
      "type": "function"
    },
    {
      "constant": true,
      "inputs": [],
      "name": "migrationOpen",
      "outputs": [
        {
          "internalType": "bool",
          "name": "",
          "type": "bool"
        }
      ],
      "payable": false,
      "stateMutability": "view",
      "type": "function"
    },
    {
      "constant": true,
      "inputs": [],
      "name": "newToken",
      "outputs": [
        {
          "internalType": "contract StormXToken",
          "name": "",
          "type": "address"
        }
      ],
      "payable": false,
      "stateMutability": "view",
      "type": "function"
    },
    {
      "constant": true,
      "inputs": [],
      "name": "oldToken",
      "outputs": [
        {
          "internalType": "contract StormToken",
          "name": "",
          "type": "address"
        }
      ],
      "payable": false,
      "stateMutability": "view",
      "type": "function"
    },
    {
      "constant": true,
      "inputs": [],
      "name": "owner",
      "outputs": [
        {
          "internalType": "address",
          "name": "",
          "type": "address"
        }
      ],
      "payable": false,
      "stateMutability": "view",
      "type": "function"
    },
    {
      "constant": false,
      "inputs": [
        {
          "internalType": "bytes",
          "name": "context",
          "type": "bytes"
        },
        {
          "internalType": "bool",
          "name": "success",
          "type": "bool"
        },
        {
          "internalType": "uint256",
          "name": "actualCharge",
          "type": "uint256"
        },
        {
          "internalType": "bytes32",
          "name": "preRetVal",
          "type": "bytes32"
        }
      ],
      "name": "postRelayedCall",
      "outputs": [],
      "payable": false,
      "stateMutability": "nonpayable",
      "type": "function"
    },
    {
      "constant": false,
      "inputs": [
        {
          "internalType": "bytes",
          "name": "context",
          "type": "bytes"
        }
      ],
      "name": "preRelayedCall",
      "outputs": [
        {
          "internalType": "bytes32",
          "name": "",
          "type": "bytes32"
        }
      ],
      "payable": false,
      "stateMutability": "nonpayable",
      "type": "function"
    },
    {
      "constant": true,
      "inputs": [],
      "name": "relayHubVersion",
      "outputs": [
        {
          "internalType": "string",
          "name": "",
          "type": "string"
        }
      ],
      "payable": false,
      "stateMutability": "view",
      "type": "function"
    },
    {
      "constant": false,
      "inputs": [],
      "name": "renounceOwnership",
      "outputs": [],
      "payable": false,
      "stateMutability": "nonpayable",
      "type": "function"
    },
    {
      "constant": false,
      "inputs": [
        {
          "internalType": "uint256",
          "name": "newFee",
          "type": "uint256"
        }
      ],
      "name": "setChargeFee",
      "outputs": [
        {
          "internalType": "bool",
          "name": "",
          "type": "bool"
        }
      ],
      "payable": false,
      "stateMutability": "nonpayable",
      "type": "function"
    },
    {
      "constant": false,
      "inputs": [
        {
          "internalType": "address",
          "name": "newReserve",
          "type": "address"
        }
      ],
      "name": "setStormXReserve",
      "outputs": [
        {
          "internalType": "bool",
          "name": "",
          "type": "bool"
        }
      ],
      "payable": false,
      "stateMutability": "nonpayable",
      "type": "function"
    },
    {
      "constant": true,
      "inputs": [],
      "name": "stormXReserve",
      "outputs": [
        {
          "internalType": "address",
          "name": "",
          "type": "address"
        }
      ],
      "payable": false,
      "stateMutability": "view",
      "type": "function"
    },
    {
      "constant": true,
      "inputs": [],
      "name": "token",
      "outputs": [
        {
          "internalType": "contract IStormXToken",
          "name": "",
          "type": "address"
        }
      ],
      "payable": false,
      "stateMutability": "view",
      "type": "function"
    },
    {
      "constant": false,
      "inputs": [
        {
          "internalType": "address",
          "name": "newOwner",
          "type": "address"
        }
      ],
      "name": "transferOwnership",
      "outputs": [],
      "payable": false,
      "stateMutability": "nonpayable",
      "type": "function"
    },
    {
      "constant": false,
      "inputs": [],
      "name": "initialize",
      "outputs": [],
      "payable": false,
      "stateMutability": "nonpayable",
      "type": "function"
    },
    {
      "constant": false,
      "inputs": [
        {
          "internalType": "address",
          "name": "newOwner",
          "type": "address"
        }
      ],
      "name": "transferOldTokenOwnership",
      "outputs": [],
      "payable": false,
      "stateMutability": "nonpayable",
      "type": "function"
    },
    {
      "constant": false,
      "inputs": [
        {
          "internalType": "uint256",
          "name": "amount",
          "type": "uint256"
        }
      ],
      "name": "convert",
      "outputs": [
        {
          "internalType": "bool",
          "name": "",
          "type": "bool"
        }
      ],
      "payable": false,
      "stateMutability": "nonpayable",
      "type": "function"
    },
    {
      "constant": false,
      "inputs": [
        {
          "internalType": "address",
          "name": "reserve",
          "type": "address"
        }
      ],
      "name": "disableMigration",
      "outputs": [
        {
          "internalType": "bool",
          "name": "",
          "type": "bool"
        }
      ],
      "payable": false,
      "stateMutability": "nonpayable",
      "type": "function"
    }
  ],
  "bytecode": "0x608060405273d216153c06e857cd7f72665e0af1d7d82172f4946000806101000a81548173ffffffffffffffffffffffffffffffffffffffff021916908373ffffffffffffffffffffffffffffffffffffffff1602179055503480156200006557600080fd5b506040516200275538038062002755833981810160405260608110156200008b57600080fd5b8101908080519060200190929190805190602001909291908051906020019092919050505081816000620000c46200046660201b60201c565b905080600160006101000a81548173ffffffffffffffffffffffffffffffffffffffff021916908373ffffffffffffffffffffffffffffffffffffffff1602179055508073ffffffffffffffffffffffffffffffffffffffff16600073ffffffffffffffffffffffffffffffffffffffff167f8be0079c531659141344cd1fd0a4f28419497f9722a3daafe3b4186f6b6457e060405160405180910390a350600073ffffffffffffffffffffffffffffffffffffffff168273ffffffffffffffffffffffffffffffffffffffff16141562000207576040517f08c379a00000000000000000000000000000000000000000000000000000000081526004018080602001828103825260158152602001807f496e76616c696420746f6b656e2061646472657373000000000000000000000081525060200191505060405180910390fd5b600073ffffffffffffffffffffffffffffffffffffffff168173ffffffffffffffffffffffffffffffffffffffff161415620002ab576040517f08c379a00000000000000000000000000000000000000000000000000000000081526004018080602001828103825260178152602001807f496e76616c69642072657365727665206164647265737300000000000000000081525060200191505060405180910390fd5b81600460006101000a81548173ffffffffffffffffffffffffffffffffffffffff021916908373ffffffffffffffffffffffffffffffffffffffff16021790555080600360006101000a81548173ffffffffffffffffffffffffffffffffffffffff021916908373ffffffffffffffffffffffffffffffffffffffff160217905550600a6002819055505050600073ffffffffffffffffffffffffffffffffffffffff168373ffffffffffffffffffffffffffffffffffffffff161415620003db576040517f08c379a00000000000000000000000000000000000000000000000000000000081526004018080602001828103825260198152602001807f496e76616c6964206f6c6420746f6b656e20616464726573730000000000000081525060200191505060405180910390fd5b82600560006101000a81548173ffffffffffffffffffffffffffffffffffffffff021916908373ffffffffffffffffffffffffffffffffffffffff16021790555081600660006101000a81548173ffffffffffffffffffffffffffffffffffffffff021916908373ffffffffffffffffffffffffffffffffffffffff16021790555050505062000554565b60008060009054906101000a900473ffffffffffffffffffffffffffffffffffffffff1673ffffffffffffffffffffffffffffffffffffffff163373ffffffffffffffffffffffffffffffffffffffff1614620004c657339050620004d9565b620004d6620004dc60201b60201c565b90505b90565b600060606000368080601f016020809104026020016040519081016040528093929190818152602001838380828437600081840152601f19601f820116905080830192505050505050509050600080369050905073ffffffffffffffffffffffffffffffffffffffff81830151169250829250505090565b6121f180620005646000396000f3fe608060405234801561001057600080fd5b50600436106101585760003560e01c80638f32d59b116100c3578063c42bd05a1161007c578063c42bd05a14610712578063e06e0e221461075c578063ea3ed44f146107f5578063ece70b2214610839578063f2fde38b14610895578063fc0c546a146108d957610158565b80638f32d59b1461059d57806398c8bece146105bf578063a3908e1b146105e1578063aa74fee514610627578063ad61ccd514610645578063b31c710a146106c857610158565b806374e861d61161011557806374e861d6146102675780637f133997146102b157806380274db7146102fb5780638129fc1c1461038857806383947ea0146103925780638da5cb5b1461055357610158565b80631373f9491461015d578063158ef93e146101b9578063516ae993146101db5780635e4887bd14610221578063715018a61461023f578063744c8c0914610249575b600080fd5b61019f6004803603602081101561017357600080fd5b81019080803573ffffffffffffffffffffffffffffffffffffffff169060200190929190505050610923565b604051808215151515815260200191505060405180910390f35b6101c1610b7e565b604051808215151515815260200191505060405180910390f35b610207600480360360208110156101f157600080fd5b8101908080359060200190929190505050610b91565b604051808215151515815260200191505060405180910390f35b610229610c54565b6040518082815260200191505060405180910390f35b610247610c5a565b005b610251610d95565b6040518082815260200191505060405180910390f35b61026f610d9b565b604051808273ffffffffffffffffffffffffffffffffffffffff1673ffffffffffffffffffffffffffffffffffffffff16815260200191505060405180910390f35b6102b9610dc4565b604051808273ffffffffffffffffffffffffffffffffffffffff1673ffffffffffffffffffffffffffffffffffffffff16815260200191505060405180910390f35b6103726004803603602081101561031157600080fd5b810190808035906020019064010000000081111561032e57600080fd5b82018360208201111561034057600080fd5b8035906020019184600183028401116401000000008311171561036257600080fd5b9091929391929390505050610dea565b6040518082815260200191505060405180910390f35b610390610ecc565b005b6104d160048036036101208110156103a957600080fd5b81019080803573ffffffffffffffffffffffffffffffffffffffff169060200190929190803573ffffffffffffffffffffffffffffffffffffffff1690602001909291908035906020019064010000000081111561040657600080fd5b82018360208201111561041857600080fd5b8035906020019184600183028401116401000000008311171561043a57600080fd5b9091929391929390803590602001909291908035906020019092919080359060200190929190803590602001909291908035906020019064010000000081111561048357600080fd5b82018360208201111561049557600080fd5b803590602001918460018302840111640100000000831117156104b757600080fd5b909192939192939080359060200190929190505050611075565b6040518083815260200180602001828103825283818151815260200191508051906020019080838360005b838110156105175780820151818401526020810190506104fc565b50505050905090810190601f1680156105445780820380516001836020036101000a031916815260200191505b50935050505060405180910390f35b61055b6111d8565b604051808273ffffffffffffffffffffffffffffffffffffffff1673ffffffffffffffffffffffffffffffffffffffff16815260200191505060405180910390f35b6105a5611202565b604051808215151515815260200191505060405180910390f35b6105c7611261565b604051808215151515815260200191505060405180910390f35b61060d600480360360208110156105f757600080fd5b8101908080359060200190929190505050611274565b604051808215151515815260200191505060405180910390f35b61062f611658565b6040518082815260200191505060405180910390f35b61064d61165f565b6040518080602001828103825283818151815260200191508051906020019080838360005b8381101561068d578082015181840152602081019050610672565b50505050905090810190601f1680156106ba5780820380516001836020036101000a031916815260200191505b509250505060405180910390f35b6106d061169c565b604051808273ffffffffffffffffffffffffffffffffffffffff1673ffffffffffffffffffffffffffffffffffffffff16815260200191505060405180910390f35b61071a6116c2565b604051808273ffffffffffffffffffffffffffffffffffffffff1673ffffffffffffffffffffffffffffffffffffffff16815260200191505060405180910390f35b6107f36004803603608081101561077257600080fd5b810190808035906020019064010000000081111561078f57600080fd5b8201836020820111156107a157600080fd5b803590602001918460018302840111640100000000831117156107c357600080fd5b909192939192939080351515906020019092919080359060200190929190803590602001909291905050506116e8565b005b6108376004803603602081101561080b57600080fd5b81019080803573ffffffffffffffffffffffffffffffffffffffff1690602001909291905050506117ca565b005b61087b6004803603602081101561084f57600080fd5b81019080803573ffffffffffffffffffffffffffffffffffffffff169060200190929190505050611900565b604051808215151515815260200191505060405180910390f35b6108d7600480360360208110156108ab57600080fd5b81019080803573ffffffffffffffffffffffffffffffffffffffff169060200190929190505050611acc565b005b6108e1611b52565b604051808273ffffffffffffffffffffffffffffffffffffffff1673ffffffffffffffffffffffffffffffffffffffff16815260200191505060405180910390f35b600061092d611202565b61099f576040517f08c379a00000000000000000000000000000000000000000000000000000000081526004018080602001828103825260208152602001807f4f776e61626c653a2063616c6c6572206973206e6f7420746865206f776e657281525060200191505060405180910390fd5b600660159054906101000a900460ff16610a21576040517f08c379a000000000000000000000000000000000000000000000000000000000815260040180806020018281038252601d8152602001807f546f6b656e204d6967726174696f6e206e6f7420617661696c61626c6500000081525060200191505060405180910390fd5b600073ffffffffffffffffffffffffffffffffffffffff168273ffffffffffffffffffffffffffffffffffffffff161415610ac4576040517f08c379a00000000000000000000000000000000000000000000000000000000081526004018080602001828103825260208152602001807f496e76616c6964207265736572766520616464726573732070726f766964656481525060200191505060405180910390fd5b62dd7c0060075442031015610b24576040517f08c379a00000000000000000000000000000000000000000000000000000000081526004018080602001828103825260278152602001806121966027913960400191505060405180910390fd5b6000600660156101000a81548160ff0219169083151502179055507f012d817cff9ef0fadf4f91fee7cdd7e4cc989af8751d7d9ce0bbe10c5fcb911660405160405180910390a1610b7482611b78565b5060019050919050565b600660149054906101000a900460ff1681565b6000610b9b611202565b610c0d576040517f08c379a00000000000000000000000000000000000000000000000000000000081526004018080602001828103825260208152602001807f4f776e61626c653a2063616c6c6572206973206e6f7420746865206f776e657281525060200191505060405180910390fd5b816002819055507fe43cbc6e431335d3c8bed1088480303872cac29a9dad5607362b82bfa2cd6d24826040518082815260200191505060405180910390a160019050919050565b60075481565b610c62611202565b610cd4576040517f08c379a00000000000000000000000000000000000000000000000000000000081526004018080602001828103825260208152602001807f4f776e61626c653a2063616c6c6572206973206e6f7420746865206f776e657281525060200191505060405180910390fd5b600073ffffffffffffffffffffffffffffffffffffffff16600160009054906101000a900473ffffffffffffffffffffffffffffffffffffffff1673ffffffffffffffffffffffffffffffffffffffff167f8be0079c531659141344cd1fd0a4f28419497f9722a3daafe3b4186f6b6457e060405160405180910390a36000600160006101000a81548173ffffffffffffffffffffffffffffffffffffffff021916908373ffffffffffffffffffffffffffffffffffffffff160217905550565b60025481565b60008060009054906101000a900473ffffffffffffffffffffffffffffffffffffffff16905090565b600360009054906101000a900473ffffffffffffffffffffffffffffffffffffffff1681565b6000610df4610d9b565b73ffffffffffffffffffffffffffffffffffffffff163373ffffffffffffffffffffffffffffffffffffffff1614610e77576040517f08c379a00000000000000000000000000000000000000000000000000000000081526004018080602001828103825260248152602001806121726024913960400191505060405180910390fd5b610ec483838080601f016020809104026020016040519081016040528093929190818152602001838380828437600081840152601f19601f82011690508083019250505050505050611d7c565b905092915050565b600660149054906101000a900460ff1615610f4f576040517f08c379a00000000000000000000000000000000000000000000000000000000081526004018080602001828103825260178152602001807f63616e6e6f7420696e697469616c697a6520747769636500000000000000000081525060200191505060405180910390fd5b600560009054906101000a900473ffffffffffffffffffffffffffffffffffffffff1673ffffffffffffffffffffffffffffffffffffffff166379ba50976040518163ffffffff1660e01b8152600401600060405180830381600087803b158015610fb957600080fd5b505af1158015610fcd573d6000803e3d6000fd5b505050506001600660146101000a81548160ff021916908315150217905550426007819055507fbe9b076dc5b65990cca9dd9d7366682482e7817a6f6bc7f4faf4dc32af497f326007546040518082815260200191505060405180910390a16001600660156101000a81548160ff0219169083151502179055507f2bc0eacdfebad290333386d197b095ce32cd5255c124a3463dc1182da1e909f460405160405180910390a1565b60006060600254600460009054906101000a900473ffffffffffffffffffffffffffffffffffffffff1673ffffffffffffffffffffffffffffffffffffffff166384955c888e6040518263ffffffff1660e01b8152600401808273ffffffffffffffffffffffffffffffffffffffff1673ffffffffffffffffffffffffffffffffffffffff16815260200191505060206040518083038186803b15801561111b57600080fd5b505afa15801561112f573d6000803e3d6000fd5b505050506040513d602081101561114557600080fd5b8101908080519060200190929190505050101561116f57611166600b611eea565b915091506111c8565b6111c38c604051602001808273ffffffffffffffffffffffffffffffffffffffff1673ffffffffffffffffffffffffffffffffffffffff168152602001915050604051602081830303815290604052611f0b565b915091505b9b509b9950505050505050505050565b6000600160009054906101000a900473ffffffffffffffffffffffffffffffffffffffff16905090565b6000600160009054906101000a900473ffffffffffffffffffffffffffffffffffffffff1673ffffffffffffffffffffffffffffffffffffffff16611245611f1b565b73ffffffffffffffffffffffffffffffffffffffff1614905090565b600660159054906101000a900460ff1681565b6000600660159054906101000a900460ff166112f8576040517f08c379a000000000000000000000000000000000000000000000000000000000815260040180806020018281038252601d8152602001807f546f6b656e204d6967726174696f6e206e6f7420617661696c61626c6500000081525060200191505060405180910390fd5b6000611302611f1b565b905082600560009054906101000a900473ffffffffffffffffffffffffffffffffffffffff1673ffffffffffffffffffffffffffffffffffffffff166370a0823161134b611f1b565b6040518263ffffffff1660e01b8152600401808273ffffffffffffffffffffffffffffffffffffffff1673ffffffffffffffffffffffffffffffffffffffff16815260200191505060206040518083038186803b1580156113ab57600080fd5b505afa1580156113bf573d6000803e3d6000fd5b505050506040513d60208110156113d557600080fd5b8101908080519060200190929190505050101561145a576040517f08c379a00000000000000000000000000000000000000000000000000000000081526004018080602001828103825260128152602001807f4e6f7420656e6f7567682062616c616e6365000000000000000000000000000081525060200191505060405180910390fd5b600560009054906101000a900473ffffffffffffffffffffffffffffffffffffffff1673ffffffffffffffffffffffffffffffffffffffff1663a24835d182856040518363ffffffff1660e01b8152600401808373ffffffffffffffffffffffffffffffffffffffff1673ffffffffffffffffffffffffffffffffffffffff16815260200182815260200192505050600060405180830381600087803b15801561150357600080fd5b505af1158015611517573d6000803e3d6000fd5b50505050600660009054906101000a900473ffffffffffffffffffffffffffffffffffffffff1673ffffffffffffffffffffffffffffffffffffffff166340c10f1982856040518363ffffffff1660e01b8152600401808373ffffffffffffffffffffffffffffffffffffffff1673ffffffffffffffffffffffffffffffffffffffff16815260200182815260200192505050602060405180830381600087803b1580156115c457600080fd5b505af11580156115d8573d6000803e3d6000fd5b505050506040513d60208110156115ee57600080fd5b8101908080519060200190929190505050508073ffffffffffffffffffffffffffffffffffffffff167f91f710b4f850878cc143b360b8fb1388d9b27d3af8e2963d785b97a9f8a8f626846040518082815260200191505060405180910390a26001915050919050565b62dd7c0081565b60606040518060400160405280600581526020017f312e302e30000000000000000000000000000000000000000000000000000000815250905090565b600560009054906101000a900473ffffffffffffffffffffffffffffffffffffffff1681565b600660009054906101000a900473ffffffffffffffffffffffffffffffffffffffff1681565b6116f0610d9b565b73ffffffffffffffffffffffffffffffffffffffff163373ffffffffffffffffffffffffffffffffffffffff1614611773576040517f08c379a00000000000000000000000000000000000000000000000000000000081526004018080602001828103825260248152602001806121726024913960400191505060405180910390fd5b6117c385858080601f016020809104026020016040519081016040528093929190818152602001838380828437600081840152601f19601f82011690508083019250505050505050848484611f87565b5050505050565b6117d2611202565b611844576040517f08c379a00000000000000000000000000000000000000000000000000000000081526004018080602001828103825260208152602001807f4f776e61626c653a2063616c6c6572206973206e6f7420746865206f776e657281525060200191505060405180910390fd5b600560009054906101000a900473ffffffffffffffffffffffffffffffffffffffff1673ffffffffffffffffffffffffffffffffffffffff1663f2fde38b826040518263ffffffff1660e01b8152600401808273ffffffffffffffffffffffffffffffffffffffff1673ffffffffffffffffffffffffffffffffffffffff168152602001915050600060405180830381600087803b1580156118e557600080fd5b505af11580156118f9573d6000803e3d6000fd5b5050505050565b600061190a611202565b61197c576040517f08c379a00000000000000000000000000000000000000000000000000000000081526004018080602001828103825260208152602001807f4f776e61626c653a2063616c6c6572206973206e6f7420746865206f776e657281525060200191505060405180910390fd5b600073ffffffffffffffffffffffffffffffffffffffff168273ffffffffffffffffffffffffffffffffffffffff161415611a1f576040517f08c379a00000000000000000000000000000000000000000000000000000000081526004018080602001828103825260178152602001807f496e76616c69642072657365727665206164647265737300000000000000000081525060200191505060405180910390fd5b81600360006101000a81548173ffffffffffffffffffffffffffffffffffffffff021916908373ffffffffffffffffffffffffffffffffffffffff1602179055507f2d9c1b8b9564d60efd2f7c8a3742a514dae67760a74c804271e63b17420d100d82604051808273ffffffffffffffffffffffffffffffffffffffff1673ffffffffffffffffffffffffffffffffffffffff16815260200191505060405180910390a160019050919050565b611ad4611202565b611b46576040517f08c379a00000000000000000000000000000000000000000000000000000000081526004018080602001828103825260208152602001807f4f776e61626c653a2063616c6c6572206973206e6f7420746865206f776e657281525060200191505060405180910390fd5b611b4f81611f8d565b50565b600460009054906101000a900473ffffffffffffffffffffffffffffffffffffffff1681565b600080600560009054906101000a900473ffffffffffffffffffffffffffffffffffffffff1673ffffffffffffffffffffffffffffffffffffffff166318160ddd6040518163ffffffff1660e01b8152600401602060405180830381600087803b158015611be557600080fd5b505af1158015611bf9573d6000803e3d6000fd5b505050506040513d6020811015611c0f57600080fd5b81019080805190602001909291905050509050600660009054906101000a900473ffffffffffffffffffffffffffffffffffffffff1673ffffffffffffffffffffffffffffffffffffffff166340c10f1984836040518363ffffffff1660e01b8152600401808373ffffffffffffffffffffffffffffffffffffffff1673ffffffffffffffffffffffffffffffffffffffff16815260200182815260200192505050602060405180830381600087803b158015611ccb57600080fd5b505af1158015611cdf573d6000803e3d6000fd5b505050506040513d6020811015611cf557600080fd5b8101908080519060200190929190505050507fcadc1556166a2c135f4d4582b072ddd45fd61ffb5a9712c813a0aec4c135d0ed8382604051808373ffffffffffffffffffffffffffffffffffffffff1673ffffffffffffffffffffffffffffffffffffffff1681526020018281526020019250505060405180910390a16001915050919050565b600080828060200190516020811015611d9457600080fd5b81019080805190602001909291905050509050600460009054906101000a900473ffffffffffffffffffffffffffffffffffffffff1673ffffffffffffffffffffffffffffffffffffffff166323b872dd82600360009054906101000a900473ffffffffffffffffffffffffffffffffffffffff166002546040518463ffffffff1660e01b8152600401808473ffffffffffffffffffffffffffffffffffffffff1673ffffffffffffffffffffffffffffffffffffffff1681526020018373ffffffffffffffffffffffffffffffffffffffff1673ffffffffffffffffffffffffffffffffffffffff1681526020018281526020019350505050602060405180830381600087803b158015611ea857600080fd5b505af1158015611ebc573d6000803e3d6000fd5b505050506040513d6020811015611ed257600080fd5b81019080805190602001909291905050505050919050565b6000606082600b016040518060200160405280600081525091509150915091565b6000606060008391509150915091565b60008060009054906101000a900473ffffffffffffffffffffffffffffffffffffffff1673ffffffffffffffffffffffffffffffffffffffff163373ffffffffffffffffffffffffffffffffffffffff1614611f7957339050611f84565b611f816120d3565b90505b90565b50505050565b600073ffffffffffffffffffffffffffffffffffffffff168173ffffffffffffffffffffffffffffffffffffffff161415612013576040517f08c379a000000000000000000000000000000000000000000000000000000000815260040180806020018281038252602681526020018061214c6026913960400191505060405180910390fd5b8073ffffffffffffffffffffffffffffffffffffffff16600160009054906101000a900473ffffffffffffffffffffffffffffffffffffffff1673ffffffffffffffffffffffffffffffffffffffff167f8be0079c531659141344cd1fd0a4f28419497f9722a3daafe3b4186f6b6457e060405160405180910390a380600160006101000a81548173ffffffffffffffffffffffffffffffffffffffff021916908373ffffffffffffffffffffffffffffffffffffffff16021790555050565b600060606000368080601f016020809104026020016040519081016040528093929190818152602001838380828437600081840152601f19601f820116905080830192505050505050509050600080369050905073ffffffffffffffffffffffffffffffffffffffff8183015116925082925050509056fe4f776e61626c653a206e6577206f776e657220697320746865207a65726f206164647265737347534e526563697069656e743a2063616c6c6572206973206e6f742052656c61794875624e6f742061626c6520746f2064697361626c6520746f6b656e206d6967726174696f6e20796574a265627a7a72315820715282df5c34a48621d2d51b311b7925e07858244bb387035e096ccb309f30d864736f6c63430005100032",
  "source": "pragma solidity 0.5.16;\n\nimport \"@openzeppelin/contracts/math/SafeMath.sol\";\nimport \"./StormXToken.sol\";\nimport \"./StormXGSNRecipient.sol\";\nimport \"../mock/OldStormXToken.sol\";\n\n\ncontract Swap is StormXGSNRecipient {       \n\n  using SafeMath for uint256;\n\n  StormToken public oldToken;\n  StormXToken public newToken;\n  bool public initialized;\n\n  // Variables for supporing token swap\n  bool public migrationOpen;\n  uint256 public initializeTime;\n\n  // Token migration should be open no shorter than 24 weeks,\n  // which is roughly 6 months\n  uint256 constant public MIGRATION_TIME = 24 weeks;\n\n  event Initialized(uint256 initializeTime);\n  event MigrationOpen();\n  event MigrationClosed();\n  event MigrationLeftoverTransferred(address stormXReserve, uint256 amount);\n  event TokenConverted(address indexed account, uint256 newToken);\n\n  modifier canMigrate() {\n    require(migrationOpen, \"Token Migration not available\");\n    _;\n  }\n\n  constructor(\n    address _oldToken, \n    address _newToken, \n    address reserve\n  // solhint-disable-next-line visibility-modifier-order\n  ) StormXGSNRecipient(_newToken, reserve) public { \n    require(_oldToken != address(0), \"Invalid old token address\");\n    oldToken = StormToken(_oldToken);\n    newToken = StormXToken(_newToken);\n  }\n\n  /**\n   * @dev Accepts the ownership of the old token and\n   *      opens the token migration\n   *      Important: the ownership of the old token should be transferred\n   *      to this contract before calling this function\n   */\n  function initialize() public {\n    require(!initialized, \"cannot initialize twice\");\n    oldToken.acceptOwnership();\n    initialized = true;\n    initializeTime = now;\n    emit Initialized(initializeTime);\n\n    // open token migration when this contract is initialized successfully\n    migrationOpen = true;\n    emit MigrationOpen();\n  }\n\n  /**\n   * @dev Transfers the ownership of the old token to a new owner\n   *      Reverts if current contract is not the owner yet\n   *      Note: after this function is invoked, ``newOwner`` has to\n   *      accept the ownership to become the actual owner by calling\n   *      ``acceptOwnership()`` of the old token contract  \n   * @param newOwner the expected new owner of the old token contract\n   */\n  function transferOldTokenOwnership(address newOwner) public onlyOwner {\n    oldToken.transferOwnership(newOwner);\n  }\n\n  /**\n   * @dev Swaps certain amount of old tokens to new tokens for the user\n   * @param amount specified amount of old tokens to swap\n   * @return success status of the conversion\n   */\n  function convert(uint256 amount) public canMigrate returns (bool) {\n    address account = _msgSender();\n    require(oldToken.balanceOf(_msgSender()) >= amount, \"Not enough balance\");\n    \n    // requires the ownership of original token contract\n    oldToken.destroy(account, amount); \n    newToken.mint(account, amount);\n    emit TokenConverted(account, amount);\n    return true;\n  }\n\n  /**\n   * @dev Disables token migration successfully if it has already been MIGRATION_TIME\n   *      since token migration opens, reverts otherwise\n   * @param reserve the address that the remaining tokens are sent to \n   * @return success status\n   */\n  function disableMigration(address reserve) public onlyOwner canMigrate returns (bool) {\n    require(reserve != address(0), \"Invalid reserve address provided\");\n    require(now - initializeTime >= MIGRATION_TIME, \"Not able to disable token migration yet\");\n    migrationOpen = false;\n    emit MigrationClosed();\n    mintAndTransfer(reserve);\n    return true;\n  }\n\n  /**\n   * @dev Called by ``disableMigration()`` \n   *      if token migration is closed successfully.\n   *      Mint and transfer the remaining tokens to stormXReserve\n   * @param reserve the address that the remaining tokens are sent to \n   * @return success status\n   */\n  function mintAndTransfer(address reserve) internal returns (bool) {\n    uint256 amount = oldToken.totalSupply();\n    newToken.mint(reserve, amount);\n    emit MigrationLeftoverTransferred(reserve, amount);\n    return true;\n  }\n}\n",
  "sourcePath": "/Users/evaxu/Desktop/stormx-token/contracts/Swap.sol",
  "compiler": {
    "name": "solc",
    "version": "0.5.16+commit.9c3226ce.Emscripten.clang"
  },
  "schemaVersion": "3.0.21",
  "updatedAt": "2020-03-11T18:42:35.681Z",
  "devdoc": {
    "methods": {
      "convert(uint256)": {
        "details": "Swaps certain amount of old tokens to new tokens for the user",
        "params": {
          "amount": "specified amount of old tokens to swap"
        },
        "return": "success status of the conversion"
      },
      "disableMigration(address)": {
        "details": "Disables token migration successfully if it has already been MIGRATION_TIME     since token migration opens, reverts otherwise",
        "params": {
          "reserve": "the address that the remaining tokens are sent to "
        },
        "return": "success status"
      },
      "getHubAddr()": {
        "details": "Returns the address of the {IRelayHub} contract for this recipient."
      },
      "initialize()": {
        "details": "Accepts the ownership of the old token and     opens the token migration     Important: the ownership of the old token should be transferred     to this contract before calling this function"
      },
      "isOwner()": {
        "details": "Returns true if the caller is the current owner."
      },
      "owner()": {
        "details": "Returns the address of the current owner."
      },
      "postRelayedCall(bytes,bool,uint256,bytes32)": {
        "details": "See `IRelayRecipient.postRelayedCall`.     * This function should not be overriden directly, use `_postRelayedCall` instead.     * * Requirements:     * - the caller must be the `RelayHub` contract."
      },
      "preRelayedCall(bytes)": {
        "details": "See `IRelayRecipient.preRelayedCall`.     * This function should not be overriden directly, use `_preRelayedCall` instead.     * * Requirements:     * - the caller must be the `RelayHub` contract."
      },
      "relayHubVersion()": {
        "details": "Returns the version string of the {IRelayHub} for which this recipient implementation was built. If {_upgradeRelayHub} is used, the new {IRelayHub} instance should be compatible with this version."
      },
      "renounceOwnership()": {
        "details": "Leaves the contract without owner. It will not be possible to call `onlyOwner` functions anymore. Can only be called by the current owner.     * NOTE: Renouncing ownership will leave the contract without an owner, thereby removing any functionality that is only available to the owner."
      },
      "setChargeFee(uint256)": {
        "details": "Sets the charge fee for GSN calls",
        "params": {
          "newFee": "the new charge fee"
        },
        "return": "success status of the setting "
      },
      "setStormXReserve(address)": {
        "details": "Sets the address of StormX's reserve",
        "params": {
          "newReserve": "the new address of StormX's reserve"
        },
        "return": "success status of the setting "
      },
      "transferOldTokenOwnership(address)": {
        "details": "Transfers the ownership of the old token to a new owner     Reverts if current contract is not the owner yet     Note: after this function is invoked, ``newOwner`` has to     accept the ownership to become the actual owner by calling     ``acceptOwnership()`` of the old token contract  ",
        "params": {
          "newOwner": "the expected new owner of the old token contract"
        }
      },
      "transferOwnership(address)": {
        "details": "Transfers ownership of the contract to a new account (`newOwner`). Can only be called by the current owner."
      }
    }
  },
  "userdoc": {
    "methods": {}
  }
}